{
  "contractName": "Advocates",
  "abi": [
    {
      "inputs": [
        {
          "internalType": "string",
          "name": "_cnr",
          "type": "string"
        },
        {
          "internalType": "string",
          "name": "_party",
          "type": "string"
        }
      ],
      "name": "getAdvocate",
      "outputs": [
        {
          "internalType": "address[]",
          "name": "",
          "type": "address[]"
        }
      ],
      "stateMutability": "view",
      "type": "function",
      "constant": true
    },
    {
      "inputs": [
        {
          "internalType": "address",
          "name": "_adv_address",
          "type": "address"
        }
      ],
      "name": "getAdvocateCases",
      "outputs": [
        {
          "internalType": "string[]",
          "name": "",
          "type": "string[]"
        }
      ],
      "stateMutability": "view",
      "type": "function",
      "constant": true
    },
    {
      "inputs": [
        {
          "internalType": "address",
          "name": "_advAddress",
          "type": "address"
        },
        {
          "internalType": "string",
          "name": "_cnr",
          "type": "string"
        }
      ],
      "name": "getAdvocateRole",
      "outputs": [
        {
          "internalType": "string",
          "name": "",
          "type": "string"
        }
      ],
      "stateMutability": "view",
      "type": "function",
      "constant": true
    },
    {
      "inputs": [
        {
          "internalType": "string",
          "name": "_cnr",
          "type": "string"
        },
        {
          "internalType": "address[]",
          "name": "_adv_addresses",
          "type": "address[]"
        },
        {
          "internalType": "string[]",
          "name": "_parties",
          "type": "string[]"
        },
        {
          "internalType": "string[]",
          "name": "_roles",
          "type": "string[]"
        }
      ],
      "name": "addOrUpdateAdvocates",
      "outputs": [],
      "stateMutability": "nonpayable",
      "type": "function"
    }
  ],
  "bytecode": "0x608060405234801561001057600080fd5b50610ce1806100206000396000f3fe608060405234801561001057600080fd5b506004361061004c5760003560e01c80630f4df901146100515780632dca7f6b1461007a578063bc181ee11461009a578063fe43a3b1146100af575b600080fd5b61006461005f36600461073f565b6100cf565b60405161007191906107a3565b60405180910390f35b61008d61008836600461080c565b610166565b60405161007191906108a0565b6100ad6100a836600461096e565b610226565b005b6100c26100bd366004610a76565b610599565b6040516100719190610a91565b60606000836040516100e19190610af3565b9081526020016040518091039020826040516100fd9190610af3565b908152604080519182900360209081018320805480830285018301909352828452919083018282801561015957602002820191906000526020600020905b81546001600160a01b0316815260019091019060200180831161013b575b5050505050905092915050565b6001600160a01b03821660009081526002602052604090819020905160609190610191908490610af3565b908152602001604051809103902080546101aa90610b0f565b80601f01602080910402602001604051908101604052809291908181526020018280546101d690610b0f565b80156101595780601f106101f857610100808354040283529160200191610159565b820191906000526020600020905b815481529060010190602001808311610206575093979650505050505050565b80518351146102745760405162461bcd60e51b8152602060048201526016602482015275125b98dbdc9c9958dd081a5b9c1d5d08199bdc9b585d60521b604482015260640160405180910390fd5b60005b6000856040516102879190610af3565b908152604051908190036020018120621c195d60ea1b82529060030190815260405190819003602001902054811015610337576000856040516102ca9190610af3565b908152604051908190036020018120621c195d60ea1b825290600301908152602001604051809103902080548061030357610303610b49565b600082815260209020810160001990810180546001600160a01b03191690550190558061032f81610b5f565b915050610277565b5060005b60008560405161034b9190610af3565b9081526040519081900360200181206272657360e81b825290600301908152604051908190036020019020548110156103fb5760008560405161038e9190610af3565b9081526040519081900360200181206272657360e81b82529060030190815260200160405180910390208054806103c7576103c7610b49565b600082815260209020810160001990810180546001600160a01b0319169055019055806103f381610b5f565b91505061033b565b5060005b8151811015610592576000856040516104189190610af3565b908152602001604051809103902083828151811061043857610438610b86565b602002602001015160405161044d9190610af3565b908152602001604051809103902084828151811061046d5761046d610b86565b60209081029190910181015182546001808201855560009485529284200180546001600160a01b0319166001600160a01b0390921691909117905585519091908690849081106104bf576104bf610b86565b6020908102919091018101516001600160a01b031682528181019290925260400160009081208054600181018255908252919020016104fe8682610beb565b5081818151811061051157610511610b86565b60200260200101516002600086848151811061052f5761052f610b86565b60200260200101516001600160a01b03166001600160a01b03168152602001908152602001600020866040516105659190610af3565b9081526020016040518091039020908161057f9190610beb565b508061058a81610b5f565b9150506103ff565b5050505050565b6001600160a01b0381166000908152600160209081526040808320805482518185028101850190935280835260609492939192909184015b8282101561067d5783829060005260206000200180546105f090610b0f565b80601f016020809104026020016040519081016040528092919081815260200182805461061c90610b0f565b80156106695780601f1061063e57610100808354040283529160200191610669565b820191906000526020600020905b81548152906001019060200180831161064c57829003601f168201915b5050505050815260200190600101906105d1565b505050509050919050565b634e487b7160e01b600052604160045260246000fd5b604051601f8201601f1916810167ffffffffffffffff811182821017156106c7576106c7610688565b604052919050565b600082601f8301126106e057600080fd5b813567ffffffffffffffff8111156106fa576106fa610688565b61070d601f8201601f191660200161069e565b81815284602083860101111561072257600080fd5b816020850160208301376000918101602001919091529392505050565b6000806040838503121561075257600080fd5b823567ffffffffffffffff8082111561076a57600080fd5b610776868387016106cf565b9350602085013591508082111561078c57600080fd5b50610799858286016106cf565b9150509250929050565b6020808252825182820181905260009190848201906040850190845b818110156107e45783516001600160a01b0316835292840192918401916001016107bf565b50909695505050505050565b80356001600160a01b038116811461080757600080fd5b919050565b6000806040838503121561081f57600080fd5b610828836107f0565b9150602083013567ffffffffffffffff81111561084457600080fd5b610799858286016106cf565b60005b8381101561086b578181015183820152602001610853565b50506000910152565b6000815180845261088c816020860160208601610850565b601f01601f19169290920160200192915050565b6020815260006108b36020830184610874565b9392505050565b600067ffffffffffffffff8211156108d4576108d4610688565b5060051b60200190565b600082601f8301126108ef57600080fd5b813560206109046108ff836108ba565b61069e565b82815260059290921b8401810191818101908684111561092357600080fd5b8286015b8481101561096357803567ffffffffffffffff8111156109475760008081fd5b6109558986838b01016106cf565b845250918301918301610927565b509695505050505050565b6000806000806080858703121561098457600080fd5b843567ffffffffffffffff8082111561099c57600080fd5b6109a8888389016106cf565b95506020915081870135818111156109bf57600080fd5b8701601f810189136109d057600080fd5b80356109de6108ff826108ba565b81815260059190911b8201840190848101908b8311156109fd57600080fd5b928501925b82841015610a2257610a13846107f0565b82529285019290850190610a02565b97505050506040870135915080821115610a3b57600080fd5b610a47888389016108de565b93506060870135915080821115610a5d57600080fd5b50610a6a878288016108de565b91505092959194509250565b600060208284031215610a8857600080fd5b6108b3826107f0565b6000602080830181845280855180835260408601915060408160051b870101925083870160005b82811015610ae657603f19888603018452610ad4858351610874565b94509285019290850190600101610ab8565b5092979650505050505050565b60008251610b05818460208701610850565b9190910192915050565b600181811c90821680610b2357607f821691505b602082108103610b4357634e487b7160e01b600052602260045260246000fd5b50919050565b634e487b7160e01b600052603160045260246000fd5b600060018201610b7f57634e487b7160e01b600052601160045260246000fd5b5060010190565b634e487b7160e01b600052603260045260246000fd5b601f821115610be657600081815260208120601f850160051c81016020861015610bc35750805b601f850160051c820191505b81811015610be257828155600101610bcf565b5050505b505050565b815167ffffffffffffffff811115610c0557610c05610688565b610c1981610c138454610b0f565b84610b9c565b602080601f831160018114610c4e5760008415610c365750858301515b600019600386901b1c1916600185901b178555610be2565b600085815260208120601f198616915b82811015610c7d57888601518255948401946001909101908401610c5e565b5085821015610c9b5787850151600019600388901b60f8161c191681555b5050505050600190811b0190555056fea2646970667358221220f32ff42585f173c74f4e511c99f3b16de5f9378a562f156139440781b5a579b564736f6c63430008130033",
  "immutableReferences": {},
  "source": "// SPDX-License-Identifier: GPL-3.0\r\n\r\npragma solidity >=0.8.2 <0.9.0;\r\n\r\ncontract Advocates{\r\n  mapping(string => mapping(string => address[])) adv; //cnr -> party -> advocate addresses\r\n  mapping(address => string[]) adv_cases;  //advAddress -> cnrs\r\n  mapping(address => mapping(string => string)) adv_role; //advAddress -> cnr -> role\r\n\r\n  function getAdvocate (string memory _cnr, string memory _party) external view returns(address[] memory){\r\n    return adv[_cnr][_party];\r\n  }\r\n\r\n  function getAdvocateCases (address _adv_address) external view returns(string[] memory){\r\n    return adv_cases[_adv_address];\r\n  }\r\n\r\n  function getAdvocateRole (address _advAddress, string memory _cnr) external view returns(string memory){\r\n    return adv_role[_advAddress][_cnr];\r\n  }\r\n\r\n  function addOrUpdateAdvocates(\r\n    string memory _cnr,\r\n    address[] memory _adv_addresses,\r\n    string[] memory _parties,\r\n    string[] memory _roles\r\n  )external{\r\n    require(_adv_addresses.length==_roles.length, \"Incorrect input format\");\r\n\r\n    for(uint i=0;i<adv[_cnr][\"pet\"].length;i++){\r\n      adv[_cnr][\"pet\"].pop();\r\n    }\r\n    for(uint i=0;i<adv[_cnr][\"res\"].length;i++){\r\n      adv[_cnr][\"res\"].pop();\r\n    }\r\n\r\n    for(uint i=0;i<_roles.length;i++){\r\n      adv[_cnr][_parties[i]].push(_adv_addresses[i]);\r\n      adv_cases[_adv_addresses[i]].push(_cnr);\r\n      adv_role[_adv_addresses[i]][_cnr]=_roles[i];\r\n    }\r\n  }\r\n}",
  "sourcePath": "C:\\Users\\Aprameya\\Desktop\\LawVertex\\web3\\contracts\\Advocates.sol",
  "compiler": {
    "name": "solc",
    "version": "0.8.19+commit.7dd6d404.Emscripten.clang"
  },
  "schemaVersion": "3.4.16",
  "updatedAt": "2024-05-20T11:06:06.523Z",
  "networkType": "ethereum",
  "devdoc": {
    "kind": "dev",
    "methods": {},
    "version": 1
  },
  "userdoc": {
    "kind": "user",
    "methods": {},
    "version": 1
  }
}