{
  "contractName": "Advocates",
  "abi": [
    {
      "inputs": [
        {
          "internalType": "string",
          "name": "_cnr",
          "type": "string"
        },
        {
          "internalType": "string",
          "name": "_party",
          "type": "string"
        }
      ],
      "name": "getAdvocate",
      "outputs": [
        {
          "internalType": "address[]",
          "name": "",
          "type": "address[]"
        }
      ],
      "stateMutability": "view",
      "type": "function",
      "constant": true
    },
    {
      "inputs": [
        {
          "internalType": "address",
          "name": "_advAddress",
          "type": "address"
        },
        {
          "internalType": "string",
          "name": "_cnr",
          "type": "string"
        }
      ],
      "name": "getAdvocateRole",
      "outputs": [
        {
          "internalType": "string",
          "name": "",
          "type": "string"
        }
      ],
      "stateMutability": "view",
      "type": "function",
      "constant": true
    },
    {
      "inputs": [
        {
          "internalType": "string",
          "name": "_cnr",
          "type": "string"
        },
        {
          "internalType": "address[]",
          "name": "_adv_addresses",
          "type": "address[]"
        },
        {
          "internalType": "string[]",
          "name": "_parties",
          "type": "string[]"
        },
        {
          "internalType": "string[]",
          "name": "_roles",
          "type": "string[]"
        }
      ],
      "name": "addOrUpdateAdvocates",
      "outputs": [],
      "stateMutability": "nonpayable",
      "type": "function"
    }
  ],
  "bytecode": "0x608060405234801561001057600080fd5b50610b37806100206000396000f3fe608060405234801561001057600080fd5b50600436106100415760003560e01c80630f4df901146100465780632dca7f6b1461006f578063bc181ee11461008f575b600080fd5b610059610054366004610625565b6100a4565b6040516100669190610689565b60405180910390f35b61008261007d3660046106f2565b61013b565b604051610066919061075a565b6100a261009d366004610841565b6101fb565b005b60606000836040516100b69190610949565b9081526020016040518091039020826040516100d29190610949565b908152604080519182900360209081018320805480830285018301909352828452919083018282801561012e57602002820191906000526020600020905b81546001600160a01b03168152600190910190602001808311610110575b5050505050905092915050565b6001600160a01b03821660009081526002602052604090819020905160609190610166908490610949565b9081526020016040518091039020805461017f90610965565b80601f01602080910402602001604051908101604052809291908181526020018280546101ab90610965565b801561012e5780601f106101cd5761010080835404028352916020019161012e565b820191906000526020600020905b8154815290600101906020018083116101db575093979650505050505050565b80518351146102495760405162461bcd60e51b8152602060048201526016602482015275125b98dbdc9c9958dd081a5b9c1d5d08199bdc9b585d60521b604482015260640160405180910390fd5b60005b60008560405161025c9190610949565b908152604051908190036020018120621c195d60ea1b8252906003019081526040519081900360200190205481101561030c5760008560405161029f9190610949565b908152604051908190036020018120621c195d60ea1b82529060030190815260200160405180910390208054806102d8576102d861099f565b600082815260209020810160001990810180546001600160a01b031916905501905580610304816109b5565b91505061024c565b5060005b6000856040516103209190610949565b9081526040519081900360200181206272657360e81b825290600301908152604051908190036020019020548110156103d0576000856040516103639190610949565b9081526040519081900360200181206272657360e81b825290600301908152602001604051809103902080548061039c5761039c61099f565b600082815260209020810160001990810180546001600160a01b0319169055019055806103c8816109b5565b915050610310565b5060005b8151811015610567576000856040516103ed9190610949565b908152602001604051809103902083828151811061040d5761040d6109dc565b60200260200101516040516104229190610949565b9081526020016040518091039020848281518110610442576104426109dc565b60209081029190910181015182546001808201855560009485529284200180546001600160a01b0319166001600160a01b039092169190911790558551909190869084908110610494576104946109dc565b6020908102919091018101516001600160a01b031682528181019290925260400160009081208054600181018255908252919020016104d38682610a41565b508181815181106104e6576104e66109dc565b602002602001015160026000868481518110610504576105046109dc565b60200260200101516001600160a01b03166001600160a01b031681526020019081526020016000208660405161053a9190610949565b908152602001604051809103902090816105549190610a41565b508061055f816109b5565b9150506103d4565b5050505050565b634e487b7160e01b600052604160045260246000fd5b604051601f8201601f1916810167ffffffffffffffff811182821017156105ad576105ad61056e565b604052919050565b600082601f8301126105c657600080fd5b813567ffffffffffffffff8111156105e0576105e061056e565b6105f3601f8201601f1916602001610584565b81815284602083860101111561060857600080fd5b816020850160208301376000918101602001919091529392505050565b6000806040838503121561063857600080fd5b823567ffffffffffffffff8082111561065057600080fd5b61065c868387016105b5565b9350602085013591508082111561067257600080fd5b5061067f858286016105b5565b9150509250929050565b6020808252825182820181905260009190848201906040850190845b818110156106ca5783516001600160a01b0316835292840192918401916001016106a5565b50909695505050505050565b80356001600160a01b03811681146106ed57600080fd5b919050565b6000806040838503121561070557600080fd5b61070e836106d6565b9150602083013567ffffffffffffffff81111561072a57600080fd5b61067f858286016105b5565b60005b83811015610751578181015183820152602001610739565b50506000910152565b6020815260008251806020840152610779816040850160208701610736565b601f01601f19169190910160400192915050565b600067ffffffffffffffff8211156107a7576107a761056e565b5060051b60200190565b600082601f8301126107c257600080fd5b813560206107d76107d28361078d565b610584565b82815260059290921b840181019181810190868411156107f657600080fd5b8286015b8481101561083657803567ffffffffffffffff81111561081a5760008081fd5b6108288986838b01016105b5565b8452509183019183016107fa565b509695505050505050565b6000806000806080858703121561085757600080fd5b843567ffffffffffffffff8082111561086f57600080fd5b61087b888389016105b5565b955060209150818701358181111561089257600080fd5b8701601f810189136108a357600080fd5b80356108b16107d28261078d565b81815260059190911b8201840190848101908b8311156108d057600080fd5b928501925b828410156108f5576108e6846106d6565b825292850192908501906108d5565b9750505050604087013591508082111561090e57600080fd5b61091a888389016107b1565b9350606087013591508082111561093057600080fd5b5061093d878288016107b1565b91505092959194509250565b6000825161095b818460208701610736565b9190910192915050565b600181811c9082168061097957607f821691505b60208210810361099957634e487b7160e01b600052602260045260246000fd5b50919050565b634e487b7160e01b600052603160045260246000fd5b6000600182016109d557634e487b7160e01b600052601160045260246000fd5b5060010190565b634e487b7160e01b600052603260045260246000fd5b601f821115610a3c57600081815260208120601f850160051c81016020861015610a195750805b601f850160051c820191505b81811015610a3857828155600101610a25565b5050505b505050565b815167ffffffffffffffff811115610a5b57610a5b61056e565b610a6f81610a698454610965565b846109f2565b602080601f831160018114610aa45760008415610a8c5750858301515b600019600386901b1c1916600185901b178555610a38565b600085815260208120601f198616915b82811015610ad357888601518255948401946001909101908401610ab4565b5085821015610af15787850151600019600388901b60f8161c191681555b5050505050600190811b0190555056fea2646970667358221220574df1d84b5734aa1d27bb163adba1b25ca34e365fe8dd4f6f000b1a4da32cfa64736f6c63430008130033",
  "immutableReferences": {},
  "source": "// SPDX-License-Identifier: GPL-3.0\r\n\r\npragma solidity >=0.8.2 <0.9.0;\r\n\r\ncontract Advocates{\r\n  mapping(string => mapping(string => address[])) adv; //cnr -> party -> advocate addresses\r\n  mapping(address => string[]) adv_cases;  //advAddress -> cnrs\r\n  mapping(address => mapping(string => string)) adv_role; //advAddress -> cnr -> role\r\n\r\n  function getAdvocate (string memory _cnr, string memory _party) external view returns(address[] memory){\r\n    return adv[_cnr][_party];\r\n  }\r\n\r\n  function getAdvocateRole (address _advAddress, string memory _cnr) external view returns(string memory){\r\n    return adv_role[_advAddress][_cnr];\r\n  }\r\n\r\n  function addOrUpdateAdvocates(\r\n    string memory _cnr,\r\n    address[] memory _adv_addresses,\r\n    string[] memory _parties,\r\n    string[] memory _roles\r\n  )external{\r\n    require(_adv_addresses.length==_roles.length, \"Incorrect input format\");\r\n\r\n    for(uint i=0;i<adv[_cnr][\"pet\"].length;i++){\r\n      adv[_cnr][\"pet\"].pop();\r\n    }\r\n    for(uint i=0;i<adv[_cnr][\"res\"].length;i++){\r\n      adv[_cnr][\"res\"].pop();\r\n    }\r\n\r\n    for(uint i=0;i<_roles.length;i++){\r\n      adv[_cnr][_parties[i]].push(_adv_addresses[i]);\r\n      adv_cases[_adv_addresses[i]].push(_cnr);\r\n      adv_role[_adv_addresses[i]][_cnr]=_roles[i];\r\n    }\r\n  }\r\n}",
  "sourcePath": "C:\\Users\\Aprameya\\Desktop\\LawVertex\\web3\\contracts\\Advocates.sol",
  "compiler": {
    "name": "solc",
    "version": "0.8.19+commit.7dd6d404.Emscripten.clang"
  },
  "schemaVersion": "3.4.16",
  "updatedAt": "2024-05-03T12:18:53.455Z",
  "networkType": "ethereum",
  "devdoc": {
    "kind": "dev",
    "methods": {},
    "version": 1
  },
  "userdoc": {
    "kind": "user",
    "methods": {},
    "version": 1
  }
}