{
  "contractName": "Advocates",
  "abi": [
    {
      "inputs": [
        {
          "internalType": "string",
          "name": "_cnr",
          "type": "string"
        }
      ],
      "name": "getAdvocates",
      "outputs": [
        {
          "components": [
            {
              "internalType": "address",
              "name": "adv_address",
              "type": "address"
            },
            {
              "internalType": "string",
              "name": "name",
              "type": "string"
            },
            {
              "internalType": "string",
              "name": "cnr",
              "type": "string"
            },
            {
              "internalType": "string",
              "name": "party",
              "type": "string"
            }
          ],
          "internalType": "struct Advocates.Advocate[]",
          "name": "",
          "type": "tuple[]"
        }
      ],
      "stateMutability": "view",
      "type": "function",
      "constant": true
    },
    {
      "inputs": [
        {
          "internalType": "address",
          "name": "_adv_address",
          "type": "address"
        }
      ],
      "name": "getAdvocateCases",
      "outputs": [
        {
          "internalType": "string[]",
          "name": "",
          "type": "string[]"
        }
      ],
      "stateMutability": "view",
      "type": "function",
      "constant": true
    },
    {
      "inputs": [
        {
          "internalType": "string",
          "name": "_cnr",
          "type": "string"
        },
        {
          "internalType": "address[]",
          "name": "_adv_address",
          "type": "address[]"
        },
        {
          "internalType": "string[]",
          "name": "_name",
          "type": "string[]"
        },
        {
          "internalType": "string[]",
          "name": "_party",
          "type": "string[]"
        }
      ],
      "name": "addAdvocates",
      "outputs": [],
      "stateMutability": "nonpayable",
      "type": "function"
    }
  ],
  "bytecode": "0x608060405234801561001057600080fd5b50610e2f806100206000396000f3fe608060405234801561001057600080fd5b50600436106100415760003560e01c8063842c5966146100465780638f6c92961461005b578063fe43a3b114610084575b600080fd5b6100596100543660046108fb565b6100a4565b005b61006e610069366004610a03565b6103f1565b60405161007b9190610a90565b60405180910390f35b610097610092366004610b47565b61063a565b60405161007b9190610b69565b600080856040516100b59190610bcb565b90815260405190819003602001902054111561014e576000846040516100db9190610bcb565b90815260200160405180910390208054806100f8576100f8610be7565b60008281526020812060046000199093019283020180546001600160a01b031916815590610129600183018261071e565b61013760028301600061071e565b61014560038301600061071e565b505090556100a4565b60005b82518110156103ea5760008560405161016a9190610bcb565b9081526020016040518091039020604051806080016040528086848151811061019557610195610bfd565b60200260200101516001600160a01b031681526020018584815181106101bd576101bd610bfd565b602002602001015181526020018781526020018484815181106101e2576101e2610bfd565b602090810291909101810151909152825460018082018555600094855293829020835160049092020180546001600160a01b0319166001600160a01b0390921691909117815590820151919290919082019061023e9082610c9c565b50604082015160028201906102539082610c9c565b50606082015160038201906102689082610c9c565b5050506000805b6001600087858151811061028557610285610bfd565b60200260200101516001600160a01b03166001600160a01b031681526020019081526020016000208054905081101561037a57866040516020016102c99190610bcb565b60405160208183030381529060405280519060200120600160008886815181106102f5576102f5610bfd565b60200260200101516001600160a01b03166001600160a01b03168152602001908152602001600020828154811061032e5761032e610bfd565b906000526020600020016040516020016103489190610d5c565b604051602081830303815290604052805190602001200361036857600191505b8061037281610dd2565b91505061026f565b50806103d7576001600086848151811061039657610396610bfd565b6020908102919091018101516001600160a01b031682528181019290925260400160009081208054600181018255908252919020016103d58782610c9c565b505b50806103e281610dd2565b915050610151565b5050505050565b60606000826040516104039190610bcb565b9081526020016040518091039020805480602002602001604051908101604052809291908181526020016000905b8282101561062f57600084815260209081902060408051608081019091526004850290910180546001600160a01b03168252600181018054929391929184019161047a90610c13565b80601f01602080910402602001604051908101604052809291908181526020018280546104a690610c13565b80156104f35780601f106104c8576101008083540402835291602001916104f3565b820191906000526020600020905b8154815290600101906020018083116104d657829003601f168201915b5050505050815260200160028201805461050c90610c13565b80601f016020809104026020016040519081016040528092919081815260200182805461053890610c13565b80156105855780601f1061055a57610100808354040283529160200191610585565b820191906000526020600020905b81548152906001019060200180831161056857829003601f168201915b5050505050815260200160038201805461059e90610c13565b80601f01602080910402602001604051908101604052809291908181526020018280546105ca90610c13565b80156106175780601f106105ec57610100808354040283529160200191610617565b820191906000526020600020905b8154815290600101906020018083116105fa57829003601f168201915b50505050508152505081526020019060010190610431565b505050509050919050565b6001600160a01b0381166000908152600160209081526040808320805482518185028101850190935280835260609492939192909184015b8282101561062f57838290600052602060002001805461069190610c13565b80601f01602080910402602001604051908101604052809291908181526020018280546106bd90610c13565b801561070a5780601f106106df5761010080835404028352916020019161070a565b820191906000526020600020905b8154815290600101906020018083116106ed57829003601f168201915b505050505081526020019060010190610672565b50805461072a90610c13565b6000825580601f1061073a575050565b601f016020900490600052602060002090810190610758919061075b565b50565b5b80821115610770576000815560010161075c565b5090565b634e487b7160e01b600052604160045260246000fd5b604051601f8201601f1916810167ffffffffffffffff811182821017156107b3576107b3610774565b604052919050565b600082601f8301126107cc57600080fd5b813567ffffffffffffffff8111156107e6576107e6610774565b6107f9601f8201601f191660200161078a565b81815284602083860101111561080e57600080fd5b816020850160208301376000918101602001919091529392505050565b600067ffffffffffffffff82111561084557610845610774565b5060051b60200190565b80356001600160a01b038116811461086657600080fd5b919050565b600082601f83011261087c57600080fd5b8135602061089161088c8361082b565b61078a565b82815260059290921b840181019181810190868411156108b057600080fd5b8286015b848110156108f057803567ffffffffffffffff8111156108d45760008081fd5b6108e28986838b01016107bb565b8452509183019183016108b4565b509695505050505050565b6000806000806080858703121561091157600080fd5b843567ffffffffffffffff8082111561092957600080fd5b610935888389016107bb565b955060209150818701358181111561094c57600080fd5b8701601f8101891361095d57600080fd5b803561096b61088c8261082b565b81815260059190911b8201840190848101908b83111561098a57600080fd5b928501925b828410156109af576109a08461084f565b8252928501929085019061098f565b975050505060408701359150808211156109c857600080fd5b6109d48883890161086b565b935060608701359150808211156109ea57600080fd5b506109f78782880161086b565b91505092959194509250565b600060208284031215610a1557600080fd5b813567ffffffffffffffff811115610a2c57600080fd5b610a38848285016107bb565b949350505050565b60005b83811015610a5b578181015183820152602001610a43565b50506000910152565b60008151808452610a7c816020860160208601610a40565b601f01601f19169290920160200192915050565b60006020808301818452808551808352604092508286019150828160051b87010184880160005b83811015610b3957888303603f19018552815180516001600160a01b0316845287810151608089860181905290610af082870182610a64565b9150508782015185820389870152610b088282610a64565b91505060608083015192508582038187015250610b258183610a64565b968901969450505090860190600101610ab7565b509098975050505050505050565b600060208284031215610b5957600080fd5b610b628261084f565b9392505050565b6000602080830181845280855180835260408601915060408160051b870101925083870160005b82811015610bbe57603f19888603018452610bac858351610a64565b94509285019290850190600101610b90565b5092979650505050505050565b60008251610bdd818460208701610a40565b9190910192915050565b634e487b7160e01b600052603160045260246000fd5b634e487b7160e01b600052603260045260246000fd5b600181811c90821680610c2757607f821691505b602082108103610c4757634e487b7160e01b600052602260045260246000fd5b50919050565b601f821115610c9757600081815260208120601f850160051c81016020861015610c745750805b601f850160051c820191505b81811015610c9357828155600101610c80565b5050505b505050565b815167ffffffffffffffff811115610cb657610cb6610774565b610cca81610cc48454610c13565b84610c4d565b602080601f831160018114610cff5760008415610ce75750858301515b600019600386901b1c1916600185901b178555610c93565b600085815260208120601f198616915b82811015610d2e57888601518255948401946001909101908401610d0f565b5085821015610d4c5787850151600019600388901b60f8161c191681555b5050505050600190811b01905550565b6000808354610d6a81610c13565b60018281168015610d825760018114610d9757610dc6565b60ff1984168752821515830287019450610dc6565b8760005260208060002060005b85811015610dbd5781548a820152908401908201610da4565b50505082870194505b50929695505050505050565b600060018201610df257634e487b7160e01b600052601160045260246000fd5b506001019056fea26469706673582212200633bb14188de22f6dbff418b128c5542ad21908c0626b4e31f495532420441064736f6c63430008130033",
  "immutableReferences": {},
  "source": "// SPDX-License-Identifier: GPL-3.0\r\n\r\npragma solidity >=0.8.2 <0.9.0;\r\n\r\ncontract Advocates{\r\n  struct Advocate{\r\n    address adv_address;\r\n    string name;\r\n    string cnr;\r\n    string party;\r\n  }\r\n\r\n  mapping(string => Advocate[]) cnr_adv; //cnr -> Advocate\r\n  mapping(address => string[]) adv_cnr; //advocate address -> cnrs\r\n  \r\n\r\n  function getAdvocates (string memory _cnr) external view returns(Advocate[] memory){\r\n    return cnr_adv[_cnr];\r\n  }\r\n\r\n  function getAdvocateCases (address _adv_address) external view returns(string[] memory){\r\n    return adv_cnr[_adv_address];\r\n  }\r\n\r\n  function addAdvocates(\r\n    string memory _cnr,\r\n    address[] memory _adv_address,\r\n    string[] memory _name,\r\n    string[] memory _party\r\n  ) public {\r\n    while(cnr_adv[_cnr].length>0){\r\n      cnr_adv[_cnr].pop();\r\n    }\r\n\r\n    for(uint i=0;i<_name.length;i++){\r\n      cnr_adv[_cnr].push(Advocate(_adv_address[i], _name[i], _cnr, _party[i]));\r\n      bool exists=false;\r\n      for(uint j=0;j<adv_cnr[_adv_address[i]].length;j++){\r\n        if(keccak256(abi.encodePacked(adv_cnr[_adv_address[i]][j]))==keccak256(abi.encodePacked(_cnr))){\r\n          exists=true;\r\n        }\r\n      }\r\n      if(!exists){\r\n        adv_cnr[_adv_address[i]].push(_cnr);\r\n      }\r\n    }\r\n  }\r\n   \r\n}",
  "sourcePath": "C:\\Users\\Aprameya\\Desktop\\LawVertex\\web3\\contracts\\Advocates.sol",
  "compiler": {
    "name": "solc",
    "version": "0.8.19+commit.7dd6d404.Emscripten.clang"
  },
  "schemaVersion": "3.4.16",
  "updatedAt": "2024-07-06T03:44:19.728Z",
  "networkType": "ethereum",
  "devdoc": {
    "kind": "dev",
    "methods": {},
    "version": 1
  },
  "userdoc": {
    "kind": "user",
    "methods": {},
    "version": 1
  }
}