{
  "contractName": "Advocates",
  "abi": [
    {
      "inputs": [
        {
          "internalType": "string",
          "name": "_cnr",
          "type": "string"
        }
      ],
      "name": "getAdvocates",
      "outputs": [
        {
          "components": [
            {
              "internalType": "string",
              "name": "adv_address",
              "type": "string"
            },
            {
              "internalType": "string",
              "name": "name",
              "type": "string"
            },
            {
              "internalType": "string",
              "name": "cnr",
              "type": "string"
            },
            {
              "internalType": "string",
              "name": "party",
              "type": "string"
            }
          ],
          "internalType": "struct Advocates.Advocate[]",
          "name": "",
          "type": "tuple[]"
        }
      ],
      "stateMutability": "view",
      "type": "function",
      "constant": true
    },
    {
      "inputs": [
        {
          "internalType": "string",
          "name": "_adv_address",
          "type": "string"
        }
      ],
      "name": "getAdvocateCases",
      "outputs": [
        {
          "internalType": "string[]",
          "name": "",
          "type": "string[]"
        }
      ],
      "stateMutability": "view",
      "type": "function",
      "constant": true
    },
    {
      "inputs": [
        {
          "internalType": "string",
          "name": "_cnr",
          "type": "string"
        },
        {
          "internalType": "string[]",
          "name": "_adv_address",
          "type": "string[]"
        },
        {
          "internalType": "string[]",
          "name": "_name",
          "type": "string[]"
        },
        {
          "internalType": "string[]",
          "name": "_party",
          "type": "string[]"
        }
      ],
      "name": "addAdvocates",
      "outputs": [],
      "stateMutability": "nonpayable",
      "type": "function"
    }
  ],
  "bytecode": "0x608060405234801561001057600080fd5b50610dd9806100206000396000f3fe608060405234801561001057600080fd5b50600436106100415760003560e01c80638f6c929614610046578063aae0f8511461006f578063fab12ae814610084575b600080fd5b61005961005436600461087e565b6100a4565b604051610066919061090b565b60405180910390f35b61008261007d366004610a66565b610369565b005b61009761009236600461087e565b610685565b6040516100669190610b13565b60606000826040516100b69190610b75565b9081526020016040518091039020805480602002602001604051908101604052809291908181526020016000905b8282101561035e578382906000526020600020906004020160405180608001604052908160008201805461011790610b91565b80601f016020809104026020016040519081016040528092919081815260200182805461014390610b91565b80156101905780601f1061016557610100808354040283529160200191610190565b820191906000526020600020905b81548152906001019060200180831161017357829003601f168201915b505050505081526020016001820180546101a990610b91565b80601f01602080910402602001604051908101604052809291908181526020018280546101d590610b91565b80156102225780601f106101f757610100808354040283529160200191610222565b820191906000526020600020905b81548152906001019060200180831161020557829003601f168201915b5050505050815260200160028201805461023b90610b91565b80601f016020809104026020016040519081016040528092919081815260200182805461026790610b91565b80156102b45780601f10610289576101008083540402835291602001916102b4565b820191906000526020600020905b81548152906001019060200180831161029757829003601f168201915b505050505081526020016003820180546102cd90610b91565b80601f01602080910402602001604051908101604052809291908181526020018280546102f990610b91565b80156103465780601f1061031b57610100808354040283529160200191610346565b820191906000526020600020905b81548152906001019060200180831161032957829003601f168201915b505050505081525050815260200190600101906100e4565b505050509050919050565b6000808560405161037a9190610b75565b908152604051908190036020019020541115610410576000846040516103a09190610b75565b90815260200160405180910390208054806103bd576103bd610bcb565b600082815260208120600019909201916004830201906103dd8282610771565b6103eb600183016000610771565b6103f9600283016000610771565b610407600383016000610771565b50509055610369565b60005b825181101561067e5760008560405161042c9190610b75565b9081526020016040518091039020604051806080016040528086848151811061045757610457610be1565b6020026020010151815260200185848151811061047657610476610be1565b6020026020010151815260200187815260200184848151811061049b5761049b610be1565b60209081029190910181015190915282546001810184556000938452922081519192600402019081906104ce9082610c46565b50602082015160018201906104e39082610c46565b50604082015160028201906104f89082610c46565b506060820151600382019061050d9082610c46565b5050506000805b600186848151811061052857610528610be1565b602002602001015160405161053d9190610b75565b9081526040519081900360200190205481101561060f57866040516020016105659190610b75565b60405160208183030381529060405280519060200120600187858151811061058f5761058f610be1565b60200260200101516040516105a49190610b75565b908152602001604051809103902082815481106105c3576105c3610be1565b906000526020600020016040516020016105dd9190610d06565b60405160208183030381529060405280519060200120036105fd57600191505b8061060781610d7c565b915050610514565b508061066b57600185838151811061062957610629610be1565b602002602001015160405161063e9190610b75565b9081526040516020918190038201902080546001810182556000918252919020016106698782610c46565b505b508061067681610d7c565b915050610413565b5050505050565b60606001826040516106979190610b75565b9081526020016040518091039020805480602002602001604051908101604052809291908181526020016000905b8282101561035e5783829060005260206000200180546106e490610b91565b80601f016020809104026020016040519081016040528092919081815260200182805461071090610b91565b801561075d5780601f106107325761010080835404028352916020019161075d565b820191906000526020600020905b81548152906001019060200180831161074057829003601f168201915b5050505050815260200190600101906106c5565b50805461077d90610b91565b6000825580601f1061078d575050565b601f0160209004906000526020600020908101906107ab91906107ae565b50565b5b808211156107c357600081556001016107af565b5090565b634e487b7160e01b600052604160045260246000fd5b604051601f8201601f1916810167ffffffffffffffff81118282101715610806576108066107c7565b604052919050565b600082601f83011261081f57600080fd5b813567ffffffffffffffff811115610839576108396107c7565b61084c601f8201601f19166020016107dd565b81815284602083860101111561086157600080fd5b816020850160208301376000918101602001919091529392505050565b60006020828403121561089057600080fd5b813567ffffffffffffffff8111156108a757600080fd5b6108b38482850161080e565b949350505050565b60005b838110156108d65781810151838201526020016108be565b50506000910152565b600081518084526108f78160208601602086016108bb565b601f01601f19169290920160200192915050565b60006020808301818452808551808352604092508286019150828160051b87010184880160005b838110156109b957603f19898403018552815160808151818652610958828701826108df565b915050888201518582038a87015261097082826108df565b915050878201518582038987015261098882826108df565b915050606080830151925085820381870152506109a581836108df565b968901969450505090860190600101610932565b509098975050505050505050565b600082601f8301126109d857600080fd5b8135602067ffffffffffffffff808311156109f5576109f56107c7565b8260051b610a048382016107dd565b9384528581018301938381019088861115610a1e57600080fd5b84880192505b85831015610a5a57823584811115610a3c5760008081fd5b610a4a8a87838c010161080e565b8352509184019190840190610a24565b98975050505050505050565b60008060008060808587031215610a7c57600080fd5b843567ffffffffffffffff80821115610a9457600080fd5b610aa08883890161080e565b95506020870135915080821115610ab657600080fd5b610ac2888389016109c7565b94506040870135915080821115610ad857600080fd5b610ae4888389016109c7565b93506060870135915080821115610afa57600080fd5b50610b07878288016109c7565b91505092959194509250565b6000602080830181845280855180835260408601915060408160051b870101925083870160005b82811015610b6857603f19888603018452610b568583516108df565b94509285019290850190600101610b3a565b5092979650505050505050565b60008251610b878184602087016108bb565b9190910192915050565b600181811c90821680610ba557607f821691505b602082108103610bc557634e487b7160e01b600052602260045260246000fd5b50919050565b634e487b7160e01b600052603160045260246000fd5b634e487b7160e01b600052603260045260246000fd5b601f821115610c4157600081815260208120601f850160051c81016020861015610c1e5750805b601f850160051c820191505b81811015610c3d57828155600101610c2a565b5050505b505050565b815167ffffffffffffffff811115610c6057610c606107c7565b610c7481610c6e8454610b91565b84610bf7565b602080601f831160018114610ca95760008415610c915750858301515b600019600386901b1c1916600185901b178555610c3d565b600085815260208120601f198616915b82811015610cd857888601518255948401946001909101908401610cb9565b5085821015610cf65787850151600019600388901b60f8161c191681555b5050505050600190811b01905550565b6000808354610d1481610b91565b60018281168015610d2c5760018114610d4157610d70565b60ff1984168752821515830287019450610d70565b8760005260208060002060005b85811015610d675781548a820152908401908201610d4e565b50505082870194505b50929695505050505050565b600060018201610d9c57634e487b7160e01b600052601160045260246000fd5b506001019056fea2646970667358221220e1760aad522ed97a3562acf1f4cf3971ef8a269cd596652b13eb30f15f456f6264736f6c63430008130033",
  "immutableReferences": {},
  "source": "// SPDX-License-Identifier: GPL-3.0\r\n\r\npragma solidity >=0.8.2 <0.9.0;\r\n\r\ncontract Advocates{\r\n  struct Advocate{\r\n    string adv_address;\r\n    string name;\r\n    string cnr;\r\n    string party;\r\n  }\r\n\r\n  mapping(string => Advocate[]) cnr_adv; //cnr -> Advocate\r\n  mapping(string => string[]) adv_cnr; //advocate address -> cnrs\r\n  \r\n\r\n  function getAdvocates (string memory _cnr) external view returns(Advocate[] memory){\r\n    return cnr_adv[_cnr];\r\n  }\r\n\r\n  function getAdvocateCases (string memory _adv_address) external view returns(string[] memory){\r\n    return adv_cnr[_adv_address];\r\n  }\r\n\r\n  function addAdvocates(\r\n    string memory _cnr,\r\n    string[] memory _adv_address,\r\n    string[] memory _name,\r\n    string[] memory _party\r\n  ) public {\r\n    while(cnr_adv[_cnr].length>0){\r\n      cnr_adv[_cnr].pop();\r\n    }\r\n\r\n    for(uint i=0;i<_name.length;i++){\r\n      cnr_adv[_cnr].push(Advocate(_adv_address[i], _name[i], _cnr, _party[i]));\r\n      bool exists=false;\r\n      for(uint j=0;j<adv_cnr[_adv_address[i]].length;j++){\r\n        if(keccak256(abi.encodePacked(adv_cnr[_adv_address[i]][j]))==keccak256(abi.encodePacked(_cnr))){\r\n          exists=true;\r\n        }\r\n      }\r\n      if(!exists){\r\n        adv_cnr[_adv_address[i]].push(_cnr);\r\n      }\r\n    }\r\n  }\r\n   \r\n}",
  "sourcePath": "C:\\Users\\Aprameya\\Desktop\\LawVertex\\web3\\contracts\\Advocates.sol",
  "compiler": {
    "name": "solc",
    "version": "0.8.19+commit.7dd6d404.Emscripten.clang"
  },
  "schemaVersion": "3.4.16",
  "updatedAt": "2024-05-28T14:07:13.870Z",
  "networkType": "ethereum",
  "devdoc": {
    "kind": "dev",
    "methods": {},
    "version": 1
  },
  "userdoc": {
    "kind": "user",
    "methods": {},
    "version": 1
  }
}