{
  "contractName": "FileTransfer",
  "abi": [
    {
      "inputs": [],
      "stateMutability": "nonpayable",
      "type": "constructor"
    },
    {
      "inputs": [],
      "name": "contractOwner",
      "outputs": [
        {
          "internalType": "address",
          "name": "",
          "type": "address"
        }
      ],
      "stateMutability": "view",
      "type": "function"
    },
    {
      "inputs": [
        {
          "internalType": "string",
          "name": "_name",
          "type": "string"
        },
        {
          "internalType": "string",
          "name": "_desc",
          "type": "string"
        },
        {
          "internalType": "string",
          "name": "_format",
          "type": "string"
        },
        {
          "internalType": "string",
          "name": "_size",
          "type": "string"
        },
        {
          "internalType": "string",
          "name": "_createdAt",
          "type": "string"
        },
        {
          "internalType": "string",
          "name": "_publicid",
          "type": "string"
        },
        {
          "internalType": "string",
          "name": "_cid",
          "type": "string"
        },
        {
          "internalType": "bool",
          "name": "_encrypted",
          "type": "bool"
        },
        {
          "internalType": "bool",
          "name": "_canRequest",
          "type": "bool"
        },
        {
          "internalType": "string",
          "name": "_copyOf",
          "type": "string"
        }
      ],
      "name": "addFile",
      "outputs": [],
      "stateMutability": "nonpayable",
      "type": "function"
    },
    {
      "inputs": [],
      "name": "viewOwnedFiles",
      "outputs": [
        {
          "components": [
            {
              "internalType": "address",
              "name": "owner",
              "type": "address"
            },
            {
              "internalType": "string",
              "name": "name",
              "type": "string"
            },
            {
              "internalType": "string",
              "name": "desc",
              "type": "string"
            },
            {
              "internalType": "string",
              "name": "format",
              "type": "string"
            },
            {
              "internalType": "string",
              "name": "size",
              "type": "string"
            },
            {
              "internalType": "string",
              "name": "createdAt",
              "type": "string"
            },
            {
              "internalType": "string",
              "name": "publicid",
              "type": "string"
            },
            {
              "internalType": "string",
              "name": "cid",
              "type": "string"
            },
            {
              "internalType": "bool",
              "name": "encrypted",
              "type": "bool"
            },
            {
              "internalType": "bool",
              "name": "canRequest",
              "type": "bool"
            },
            {
              "internalType": "string",
              "name": "copyOf",
              "type": "string"
            }
          ],
          "internalType": "struct FileTransfer.PrivateFile[]",
          "name": "",
          "type": "tuple[]"
        }
      ],
      "stateMutability": "view",
      "type": "function"
    },
    {
      "inputs": [
        {
          "internalType": "string",
          "name": "_publicid",
          "type": "string"
        }
      ],
      "name": "viewOwnedFile",
      "outputs": [
        {
          "components": [
            {
              "internalType": "address",
              "name": "owner",
              "type": "address"
            },
            {
              "internalType": "string",
              "name": "name",
              "type": "string"
            },
            {
              "internalType": "string",
              "name": "desc",
              "type": "string"
            },
            {
              "internalType": "string",
              "name": "format",
              "type": "string"
            },
            {
              "internalType": "string",
              "name": "size",
              "type": "string"
            },
            {
              "internalType": "string",
              "name": "createdAt",
              "type": "string"
            },
            {
              "internalType": "string",
              "name": "publicid",
              "type": "string"
            },
            {
              "internalType": "string",
              "name": "cid",
              "type": "string"
            },
            {
              "internalType": "bool",
              "name": "encrypted",
              "type": "bool"
            },
            {
              "internalType": "bool",
              "name": "canRequest",
              "type": "bool"
            },
            {
              "internalType": "string",
              "name": "copyOf",
              "type": "string"
            }
          ],
          "internalType": "struct FileTransfer.PrivateFile",
          "name": "",
          "type": "tuple"
        }
      ],
      "stateMutability": "view",
      "type": "function"
    },
    {
      "inputs": [
        {
          "internalType": "string",
          "name": "_publicid",
          "type": "string"
        }
      ],
      "name": "deleteFile",
      "outputs": [],
      "stateMutability": "nonpayable",
      "type": "function"
    },
    {
      "inputs": [
        {
          "internalType": "string",
          "name": "_publicid",
          "type": "string"
        },
        {
          "internalType": "string",
          "name": "_cid",
          "type": "string"
        },
        {
          "internalType": "address",
          "name": "_receivingUserAddress",
          "type": "address"
        },
        {
          "internalType": "string",
          "name": "_ogpublicid",
          "type": "string"
        },
        {
          "internalType": "bool",
          "name": "_viewOnly",
          "type": "bool"
        }
      ],
      "name": "grantAccess",
      "outputs": [],
      "stateMutability": "nonpayable",
      "type": "function"
    },
    {
      "inputs": [
        {
          "internalType": "string",
          "name": "_publicid",
          "type": "string"
        },
        {
          "internalType": "address",
          "name": "_revokeUserAddress",
          "type": "address"
        }
      ],
      "name": "revokeAccess",
      "outputs": [],
      "stateMutability": "nonpayable",
      "type": "function"
    },
    {
      "inputs": [
        {
          "internalType": "string",
          "name": "_publicid",
          "type": "string"
        }
      ],
      "name": "viewAccessList",
      "outputs": [
        {
          "components": [
            {
              "internalType": "string",
              "name": "publicid",
              "type": "string"
            },
            {
              "internalType": "address",
              "name": "user",
              "type": "address"
            },
            {
              "internalType": "string",
              "name": "ogpublicid",
              "type": "string"
            },
            {
              "internalType": "bool",
              "name": "viewOnly",
              "type": "bool"
            },
            {
              "internalType": "bool",
              "name": "valid",
              "type": "bool"
            }
          ],
          "internalType": "struct FileTransfer.Access[]",
          "name": "",
          "type": "tuple[]"
        }
      ],
      "stateMutability": "view",
      "type": "function"
    },
    {
      "inputs": [],
      "name": "viewRecievedFiles",
      "outputs": [
        {
          "components": [
            {
              "internalType": "address",
              "name": "owner",
              "type": "address"
            },
            {
              "internalType": "string",
              "name": "name",
              "type": "string"
            },
            {
              "internalType": "string",
              "name": "desc",
              "type": "string"
            },
            {
              "internalType": "string",
              "name": "format",
              "type": "string"
            },
            {
              "internalType": "string",
              "name": "size",
              "type": "string"
            },
            {
              "internalType": "string",
              "name": "createdAt",
              "type": "string"
            },
            {
              "internalType": "string",
              "name": "publicid",
              "type": "string"
            },
            {
              "internalType": "string",
              "name": "cid",
              "type": "string"
            },
            {
              "internalType": "bool",
              "name": "encrypted",
              "type": "bool"
            },
            {
              "internalType": "bool",
              "name": "canRequest",
              "type": "bool"
            },
            {
              "internalType": "string",
              "name": "copyOf",
              "type": "string"
            }
          ],
          "internalType": "struct FileTransfer.PrivateFile[]",
          "name": "",
          "type": "tuple[]"
        }
      ],
      "stateMutability": "view",
      "type": "function"
    },
    {
      "inputs": [
        {
          "internalType": "address",
          "name": "_address",
          "type": "address"
        }
      ],
      "name": "viewRequestableFiles",
      "outputs": [
        {
          "internalType": "string[]",
          "name": "",
          "type": "string[]"
        }
      ],
      "stateMutability": "view",
      "type": "function"
    },
    {
      "inputs": [
        {
          "internalType": "string",
          "name": "_publicid",
          "type": "string"
        }
      ],
      "name": "viewFile",
      "outputs": [
        {
          "components": [
            {
              "internalType": "address",
              "name": "owner",
              "type": "address"
            },
            {
              "internalType": "string",
              "name": "name",
              "type": "string"
            },
            {
              "internalType": "string",
              "name": "desc",
              "type": "string"
            },
            {
              "internalType": "string",
              "name": "format",
              "type": "string"
            },
            {
              "internalType": "string",
              "name": "size",
              "type": "string"
            },
            {
              "internalType": "string",
              "name": "createdAt",
              "type": "string"
            },
            {
              "internalType": "string",
              "name": "publicid",
              "type": "string"
            },
            {
              "internalType": "string",
              "name": "cid",
              "type": "string"
            },
            {
              "internalType": "bool",
              "name": "encrypted",
              "type": "bool"
            },
            {
              "internalType": "bool",
              "name": "canRequest",
              "type": "bool"
            },
            {
              "internalType": "string",
              "name": "copyOf",
              "type": "string"
            }
          ],
          "internalType": "struct FileTransfer.PrivateFile",
          "name": "",
          "type": "tuple"
        }
      ],
      "stateMutability": "view",
      "type": "function"
    }
  ],
  "bytecode": "0x608060405234801561001057600080fd5b50600080546001600160a01b031916331790556143e9806100326000396000f3fe608060405234801561001057600080fd5b50600436106100a95760003560e01c8063b261e7d311610071578063b261e7d314610134578063ce606ee014610147578063cf226c2b14610172578063dfe0b5fe14610192578063e5aa12c4146101a5578063f2511e7e146101b857600080fd5b806330fbd80b146100ae5780638a09c914146100c35780639b2851ca146100ec5780639ce01e981461010c578063a991005414610121575b600080fd5b6100c16100bc366004613aef565b6101c0565b005b6100d66100d1366004613b99565b6109e7565b6040516100e39190613c26565b60405180910390f35b6100ff6100fa366004613b99565b611117565b6040516100e39190613de7565b610114611740565b6040516100e39190613e01565b6100c161012f366004613b99565b611d11565b6100c1610142366004613e63565b6125a8565b60005461015a906001600160a01b031681565b6040516001600160a01b0390911681526020016100e3565b610185610180366004613fc6565b6126a8565b6040516100e39190613fe1565b6100c16101a0366004614036565b6129a0565b6100ff6101b3366004613b99565b612da3565b6101146132dc565b60006001836040516101d29190614084565b908152604080519182900360209081018320610160840190925281546001600160a01b031683526001820180549184019161020c906140a0565b80601f0160208091040260200160405190810160405280929190818152602001828054610238906140a0565b80156102855780601f1061025a57610100808354040283529160200191610285565b820191906000526020600020905b81548152906001019060200180831161026857829003601f168201915b5050505050815260200160028201805461029e906140a0565b80601f01602080910402602001604051908101604052809291908181526020018280546102ca906140a0565b80156103175780601f106102ec57610100808354040283529160200191610317565b820191906000526020600020905b8154815290600101906020018083116102fa57829003601f168201915b50505050508152602001600382018054610330906140a0565b80601f016020809104026020016040519081016040528092919081815260200182805461035c906140a0565b80156103a95780601f1061037e576101008083540402835291602001916103a9565b820191906000526020600020905b81548152906001019060200180831161038c57829003601f168201915b505050505081526020016004820180546103c2906140a0565b80601f01602080910402602001604051908101604052809291908181526020018280546103ee906140a0565b801561043b5780601f106104105761010080835404028352916020019161043b565b820191906000526020600020905b81548152906001019060200180831161041e57829003601f168201915b50505050508152602001600582018054610454906140a0565b80601f0160208091040260200160405190810160405280929190818152602001828054610480906140a0565b80156104cd5780601f106104a2576101008083540402835291602001916104cd565b820191906000526020600020905b8154815290600101906020018083116104b057829003601f168201915b505050505081526020016006820180546104e6906140a0565b80601f0160208091040260200160405190810160405280929190818152602001828054610512906140a0565b801561055f5780601f106105345761010080835404028352916020019161055f565b820191906000526020600020905b81548152906001019060200180831161054257829003601f168201915b50505050508152602001600782018054610578906140a0565b80601f01602080910402602001604051908101604052809291908181526020018280546105a4906140a0565b80156105f15780601f106105c6576101008083540402835291602001916105f1565b820191906000526020600020905b8154815290600101906020018083116105d457829003601f168201915b5050509183525050600882015460ff80821615156020840152610100909104161515604082015260098201805460609092019161062d906140a0565b80601f0160208091040260200160405190810160405280929190818152602001828054610659906140a0565b80156106a65780601f1061067b576101008083540402835291602001916106a6565b820191906000526020600020905b81548152906001019060200180831161068957829003601f168201915b505050505081525050905080600001516001600160a01b0316336001600160a01b0316146107135760405162461bcd60e51b81526020600482015260156024820152742cb7ba9030b932903737ba103a34329037bbb732b960591b60448201526064015b60405180910390fd5b6040805160a0810182526001600160a01b0386166020808301829052851515606084015260016080840152898352828401879052600091825260038152838220805485518184028101840190965280865293949293849392849084015b8282101561081c57838290600052602060002001805461078f906140a0565b80601f01602080910402602001604051908101604052809291908181526020018280546107bb906140a0565b80156108085780601f106107dd57610100808354040283529160200191610808565b820191906000526020600020905b8154815290600101906020018083116107eb57829003601f168201915b505050505081526020019060010190610770565b50505050905060005b81518110156108b5578960405160200161083f9190614084565b60405160208183030381529060405280519060200120828281518110610867576108676140d4565b602002602001015160405160200161087f9190614084565b60405160208183030381529060405280519060200120036108a357600192506108b5565b806108ad81614100565b915050610825565b508115156000036109a8576001600160a01b0387166000908152600360209081526040822080546001810182559083529120016108f28a82614168565b506004866040516109039190614084565b90815260405160209181900382019020805460018101825560009182529190208451859260040290910190819061093a9082614168565b5060208201516001820180546001600160a01b0319166001600160a01b03909216919091179055604082015160028201906109759082614168565b5060608201516003909101805460809093015115156101000261ff00199215159290921661ffff19909316929092171790555b6109dc84602001518560400151866060015187608001518860a001518e8e8b61010001518c61012001518d60c001516125a8565b505050505050505050565b606060006001836040516109fb9190614084565b908152604080519182900360209081018320610160840190925281546001600160a01b0316835260018201805491840191610a35906140a0565b80601f0160208091040260200160405190810160405280929190818152602001828054610a61906140a0565b8015610aae5780601f10610a8357610100808354040283529160200191610aae565b820191906000526020600020905b815481529060010190602001808311610a9157829003601f168201915b50505050508152602001600282018054610ac7906140a0565b80601f0160208091040260200160405190810160405280929190818152602001828054610af3906140a0565b8015610b405780601f10610b1557610100808354040283529160200191610b40565b820191906000526020600020905b815481529060010190602001808311610b2357829003601f168201915b50505050508152602001600382018054610b59906140a0565b80601f0160208091040260200160405190810160405280929190818152602001828054610b85906140a0565b8015610bd25780601f10610ba757610100808354040283529160200191610bd2565b820191906000526020600020905b815481529060010190602001808311610bb557829003601f168201915b50505050508152602001600482018054610beb906140a0565b80601f0160208091040260200160405190810160405280929190818152602001828054610c17906140a0565b8015610c645780601f10610c3957610100808354040283529160200191610c64565b820191906000526020600020905b815481529060010190602001808311610c4757829003601f168201915b50505050508152602001600582018054610c7d906140a0565b80601f0160208091040260200160405190810160405280929190818152602001828054610ca9906140a0565b8015610cf65780601f10610ccb57610100808354040283529160200191610cf6565b820191906000526020600020905b815481529060010190602001808311610cd957829003601f168201915b50505050508152602001600682018054610d0f906140a0565b80601f0160208091040260200160405190810160405280929190818152602001828054610d3b906140a0565b8015610d885780601f10610d5d57610100808354040283529160200191610d88565b820191906000526020600020905b815481529060010190602001808311610d6b57829003601f168201915b50505050508152602001600782018054610da1906140a0565b80601f0160208091040260200160405190810160405280929190818152602001828054610dcd906140a0565b8015610e1a5780601f10610def57610100808354040283529160200191610e1a565b820191906000526020600020905b815481529060010190602001808311610dfd57829003601f168201915b5050509183525050600882015460ff808216151560208401526101009091041615156040820152600982018054606090920191610e56906140a0565b80601f0160208091040260200160405190810160405280929190818152602001828054610e82906140a0565b8015610ecf5780601f10610ea457610100808354040283529160200191610ecf565b820191906000526020600020905b815481529060010190602001808311610eb257829003601f168201915b505050505081525050905080600001516001600160a01b0316336001600160a01b031614610f375760405162461bcd60e51b81526020600482015260156024820152742cb7ba9030b932903737ba103a34329037bbb732b960591b604482015260640161070a565b600483604051610f479190614084565b9081526020016040518091039020805480602002602001604051908101604052809291908181526020016000905b8282101561110b57838290600052602060002090600402016040518060a0016040529081600082018054610fa8906140a0565b80601f0160208091040260200160405190810160405280929190818152602001828054610fd4906140a0565b80156110215780601f10610ff657610100808354040283529160200191611021565b820191906000526020600020905b81548152906001019060200180831161100457829003601f168201915b505050918352505060018201546001600160a01b03166020820152600282018054604090920191611051906140a0565b80601f016020809104026020016040519081016040528092919081815260200182805461107d906140a0565b80156110ca5780601f1061109f576101008083540402835291602001916110ca565b820191906000526020600020905b8154815290600101906020018083116110ad57829003601f168201915b50505091835250506003919091015460ff80821615156020808501919091526101009092041615156040909201919091529082526001929092019101610f75565b50505050915050919050565b61111f613963565b6000805b336000908152600360205260409020548110156111ce578360405160200161114b9190614084565b60408051601f19818403018152918152815160209283012033600090815260039093529120805483908110611182576111826140d4565b9060005260206000200160405160200161119c9190614228565b60405160208183030381529060405280519060200120036111bc57600191505b806111c681614100565b915050611123565b506001811515146112475760405162461bcd60e51b815260206004820152603b60248201527f596f752068617665206e6f7420726563656976656420746869732066696c652060448201527f6f7220746865206f776e6572206861732064656c657465642069740000000000606482015260840161070a565b60006001846040516112599190614084565b908152604080519182900360209081018320610160840190925281546001600160a01b0316835260018201805491840191611293906140a0565b80601f01602080910402602001604051908101604052809291908181526020018280546112bf906140a0565b801561130c5780601f106112e15761010080835404028352916020019161130c565b820191906000526020600020905b8154815290600101906020018083116112ef57829003601f168201915b50505050508152602001600282018054611325906140a0565b80601f0160208091040260200160405190810160405280929190818152602001828054611351906140a0565b801561139e5780601f106113735761010080835404028352916020019161139e565b820191906000526020600020905b81548152906001019060200180831161138157829003601f168201915b505050505081526020016003820180546113b7906140a0565b80601f01602080910402602001604051908101604052809291908181526020018280546113e3906140a0565b80156114305780601f1061140557610100808354040283529160200191611430565b820191906000526020600020905b81548152906001019060200180831161141357829003601f168201915b50505050508152602001600482018054611449906140a0565b80601f0160208091040260200160405190810160405280929190818152602001828054611475906140a0565b80156114c25780601f10611497576101008083540402835291602001916114c2565b820191906000526020600020905b8154815290600101906020018083116114a557829003601f168201915b505050505081526020016005820180546114db906140a0565b80601f0160208091040260200160405190810160405280929190818152602001828054611507906140a0565b80156115545780601f1061152957610100808354040283529160200191611554565b820191906000526020600020905b81548152906001019060200180831161153757829003601f168201915b5050505050815260200160068201805461156d906140a0565b80601f0160208091040260200160405190810160405280929190818152602001828054611599906140a0565b80156115e65780601f106115bb576101008083540402835291602001916115e6565b820191906000526020600020905b8154815290600101906020018083116115c957829003601f168201915b505050505081526020016007820180546115ff906140a0565b80601f016020809104026020016040519081016040528092919081815260200182805461162b906140a0565b80156116785780601f1061164d57610100808354040283529160200191611678565b820191906000526020600020905b81548152906001019060200180831161165b57829003601f168201915b5050509183525050600882015460ff8082161515602084015261010090910416151560408201526009820180546060909201916116b4906140a0565b80601f01602080910402602001604051908101604052809291908181526020018280546116e0906140a0565b801561172d5780601f106117025761010080835404028352916020019161172d565b820191906000526020600020905b81548152906001019060200180831161171057829003601f168201915b5050509190925250919695505050505050565b336000908152600260205260408120546060919067ffffffffffffffff81111561176c5761176c613a20565b6040519080825280602002602001820160405280156117a557816020015b611792613963565b81526020019060019003908161178a5790505b50905060005b33600090815260026020526040902054811015611d0b57336000908152600260205260409020805460019190839081106117e7576117e76140d4565b906000526020600020016040516117fe9190614228565b908152604080519182900360209081018320610160840190925281546001600160a01b0316835260018201805491840191611838906140a0565b80601f0160208091040260200160405190810160405280929190818152602001828054611864906140a0565b80156118b15780601f10611886576101008083540402835291602001916118b1565b820191906000526020600020905b81548152906001019060200180831161189457829003601f168201915b505050505081526020016002820180546118ca906140a0565b80601f01602080910402602001604051908101604052809291908181526020018280546118f6906140a0565b80156119435780601f1061191857610100808354040283529160200191611943565b820191906000526020600020905b81548152906001019060200180831161192657829003601f168201915b5050505050815260200160038201805461195c906140a0565b80601f0160208091040260200160405190810160405280929190818152602001828054611988906140a0565b80156119d55780601f106119aa576101008083540402835291602001916119d5565b820191906000526020600020905b8154815290600101906020018083116119b857829003601f168201915b505050505081526020016004820180546119ee906140a0565b80601f0160208091040260200160405190810160405280929190818152602001828054611a1a906140a0565b8015611a675780601f10611a3c57610100808354040283529160200191611a67565b820191906000526020600020905b815481529060010190602001808311611a4a57829003601f168201915b50505050508152602001600582018054611a80906140a0565b80601f0160208091040260200160405190810160405280929190818152602001828054611aac906140a0565b8015611af95780601f10611ace57610100808354040283529160200191611af9565b820191906000526020600020905b815481529060010190602001808311611adc57829003601f168201915b50505050508152602001600682018054611b12906140a0565b80601f0160208091040260200160405190810160405280929190818152602001828054611b3e906140a0565b8015611b8b5780601f10611b6057610100808354040283529160200191611b8b565b820191906000526020600020905b815481529060010190602001808311611b6e57829003601f168201915b50505050508152602001600782018054611ba4906140a0565b80601f0160208091040260200160405190810160405280929190818152602001828054611bd0906140a0565b8015611c1d5780601f10611bf257610100808354040283529160200191611c1d565b820191906000526020600020905b815481529060010190602001808311611c0057829003601f168201915b5050509183525050600882015460ff808216151560208401526101009091041615156040820152600982018054606090920191611c59906140a0565b80601f0160208091040260200160405190810160405280929190818152602001828054611c85906140a0565b8015611cd25780601f10611ca757610100808354040283529160200191611cd2565b820191906000526020600020905b815481529060010190602001808311611cb557829003601f168201915b505050505081525050828281518110611ced57611ced6140d4565b60200260200101819052508080611d0390614100565b9150506117ab565b50919050565b6000600182604051611d239190614084565b908152604080519182900360209081018320610160840190925281546001600160a01b0316835260018201805491840191611d5d906140a0565b80601f0160208091040260200160405190810160405280929190818152602001828054611d89906140a0565b8015611dd65780601f10611dab57610100808354040283529160200191611dd6565b820191906000526020600020905b815481529060010190602001808311611db957829003601f168201915b50505050508152602001600282018054611def906140a0565b80601f0160208091040260200160405190810160405280929190818152602001828054611e1b906140a0565b8015611e685780601f10611e3d57610100808354040283529160200191611e68565b820191906000526020600020905b815481529060010190602001808311611e4b57829003601f168201915b50505050508152602001600382018054611e81906140a0565b80601f0160208091040260200160405190810160405280929190818152602001828054611ead906140a0565b8015611efa5780601f10611ecf57610100808354040283529160200191611efa565b820191906000526020600020905b815481529060010190602001808311611edd57829003601f168201915b50505050508152602001600482018054611f13906140a0565b80601f0160208091040260200160405190810160405280929190818152602001828054611f3f906140a0565b8015611f8c5780601f10611f6157610100808354040283529160200191611f8c565b820191906000526020600020905b815481529060010190602001808311611f6f57829003601f168201915b50505050508152602001600582018054611fa5906140a0565b80601f0160208091040260200160405190810160405280929190818152602001828054611fd1906140a0565b801561201e5780601f10611ff35761010080835404028352916020019161201e565b820191906000526020600020905b81548152906001019060200180831161200157829003601f168201915b50505050508152602001600682018054612037906140a0565b80601f0160208091040260200160405190810160405280929190818152602001828054612063906140a0565b80156120b05780601f10612085576101008083540402835291602001916120b0565b820191906000526020600020905b81548152906001019060200180831161209357829003601f168201915b505050505081526020016007820180546120c9906140a0565b80601f01602080910402602001604051908101604052809291908181526020018280546120f5906140a0565b80156121425780601f1061211757610100808354040283529160200191612142565b820191906000526020600020905b81548152906001019060200180831161212557829003601f168201915b5050509183525050600882015460ff80821615156020840152610100909104161515604082015260098201805460609092019161217e906140a0565b80601f01602080910402602001604051908101604052809291908181526020018280546121aa906140a0565b80156121f75780601f106121cc576101008083540402835291602001916121f7565b820191906000526020600020905b8154815290600101906020018083116121da57829003601f168201915b50505091909252505081516001600160a01b038116600090815260026020526040812093945090929150805b8254811015612324578560405160200161223d9190614084565b60405160208183030381529060405280519060200120838281548110612265576122656140d4565b9060005260206000200160405160200161227f9190614228565b604051602081830303815290604052805190602001200361229f57600191505b60018215151480156122bd575082546122ba9060019061429e565b81105b1561231257826122ce8260016142b7565b815481106122de576122de6140d4565b906000526020600020018382815481106122fa576122fa6140d4565b90600052602060002001908161231091906142ca565b505b8061231c81614100565b915050612223565b50818054806123355761233561439d565b60019003818190600052602060002001600061235191906139ca565b90556001856040516123639190614084565b90815260405190819003602001902080546001600160a01b0319168155600061238f60018301826139ca565b61239d6002830160006139ca565b6123ab6003830160006139ca565b6123b96004830160006139ca565b6123c76005830160006139ca565b6123d56006830160006139ca565b6123e36007830160006139ca565b60088201805461ffff191690556123fe6009830160006139ca565b50505b60006004866040516124139190614084565b9081526040519081900360200190205411156125a15761259c60048660405161243c9190614084565b9081526020016040518091039020600160048860405161245c9190614084565b90815260405190819003602001902054612476919061429e565b81548110612486576124866140d4565b906000526020600020906004020160000180546124a2906140a0565b80601f01602080910402602001604051908101604052809291908181526020018280546124ce906140a0565b801561251b5780601f106124f05761010080835404028352916020019161251b565b820191906000526020600020905b8154815290600101906020018083116124fe57829003601f168201915b50505050506004876040516125309190614084565b908152602001604051809103902060016004896040516125509190614084565b9081526040519081900360200190205461256a919061429e565b8154811061257a5761257a6140d4565b60009182526020909120600160049092020101546001600160a01b03166129a0565b612401565b5050505050565b60006001866040516125ba9190614084565b90815260405190819003602001902080546001600160a01b031916331781559050600181016125e98c82614168565b50600281016125f88b82614168565b50600381016126078a82614168565b50600481016126168982614168565b50600581016126258882614168565b50600681016126348782614168565b50600781016126438682614168565b5060088101805461ffff191685151561ff0019161761010085151502179055600981016126708382614168565b503360009081526002602090815260408220805460018101825590835291200161269a8782614168565b505050505050505050505050565b6001600160a01b0381166000908152600260205260408120546060919067ffffffffffffffff8111156126dd576126dd613a20565b60405190808252806020026020018201604052801561271057816020015b60608152602001906001900390816126fb5790505b5090506000805b6001600160a01b038516600090815260026020526040902054811015612997576001600160a01b038516600090815260026020526040902080546001919083908110612765576127656140d4565b9060005260206000200160405161277c9190614228565b9081526040519081900360200190206008015460ff61010090910416151560011480156128355750604080516000808252602080830180855292519092206001600160a01b0389168252600290925291909120805460019190849081106127e5576127e56140d4565b906000526020600020016040516127fc9190614228565b908152602001604051809103902060090160405160200161281d9190614228565b60405160208183030381529060405280519060200120145b15612949576001600160a01b038516600090815260026020526040902080546001919083908110612868576128686140d4565b9060005260206000200160405161287f9190614228565b9081526020016040518091039020600101805461289b906140a0565b80601f01602080910402602001604051908101604052809291908181526020018280546128c7906140a0565b80156129145780601f106128e957610100808354040283529160200191612914565b820191906000526020600020905b8154815290600101906020018083116128f757829003601f168201915b505050505083838151811061292b5761292b6140d4565b6020026020010181905250818061294190614100565b925050612985565b6040518060200160405280600081525083838151811061296b5761296b6140d4565b6020026020010181905250818061298190614100565b9250505b8061298f81614100565b915050612717565b50909392505050565b6001600160a01b0381166000908152600360205260408120906060815b8354811015612b8557856040516020016129d79190614084565b604051602081830303815290604052805190602001208482815481106129ff576129ff6140d4565b90600052602060002001604051602001612a199190614228565b6040516020818303038152906040528051906020012003612b0057600192506001848281548110612a4c57612a4c6140d4565b90600052602060002001604051612a639190614228565b90815260200160405180910390206009018054612a7f906140a0565b80601f0160208091040260200160405190810160405280929190818152602001828054612aab906140a0565b8015612af85780601f10612acd57610100808354040283529160200191612af8565b820191906000526020600020905b815481529060010190602001808311612adb57829003601f168201915b505050505091505b6001831515148015612b1e57508354612b1b9060019061429e565b81105b15612b735783612b2f8260016142b7565b81548110612b3f57612b3f6140d4565b90600052602060002001848281548110612b5b57612b5b6140d4565b906000526020600020019081612b7191906142ca565b505b80612b7d81614100565b9150506129bd565b5082805480612b9657612b9661439d565b600190038181906000526020600020016000612bb291906139ca565b90556000600482604051612bc69190614084565b908152602001604051809103902090506000805b8254811015612d3157866001600160a01b0316838281548110612bff57612bff6140d4565b60009182526020909120600160049092020101546001600160a01b031603612c2657600191505b6001851515148015612c4457508254612c419060019061429e565b81105b15612d1f5782612c558260016142b7565b81548110612c6557612c656140d4565b9060005260206000209060040201838281548110612c8557612c856140d4565b6000918252602090912060049091020180612ca083826142ca565b5060018281015490820180546001600160a01b0319166001600160a01b03909216919091179055600280820190612cd9908401826142ca565b506003918201805491909201805460ff19811660ff93841615159081178355935461ffff1990911661ff0019909416939093176101009384900490921615159092021790555b80612d2981614100565b915050612bda565b5081805480612d4257612d4261439d565b60008281526020812060001990920191600483020190612d6282826139ca565b6001820180546001600160a01b0319169055612d826002830160006139ca565b50600301805461ffff191690559055612d9a87611d11565b50505050505050565b612dab613963565b336001600160a01b0316600183604051612dc59190614084565b908152604051908190036020019020546001600160a01b031614612de857600080fd5b600182604051612df89190614084565b908152604080519182900360209081018320610160840190925281546001600160a01b0316835260018201805491840191612e32906140a0565b80601f0160208091040260200160405190810160405280929190818152602001828054612e5e906140a0565b8015612eab5780601f10612e8057610100808354040283529160200191612eab565b820191906000526020600020905b815481529060010190602001808311612e8e57829003601f168201915b50505050508152602001600282018054612ec4906140a0565b80601f0160208091040260200160405190810160405280929190818152602001828054612ef0906140a0565b8015612f3d5780601f10612f1257610100808354040283529160200191612f3d565b820191906000526020600020905b815481529060010190602001808311612f2057829003601f168201915b50505050508152602001600382018054612f56906140a0565b80601f0160208091040260200160405190810160405280929190818152602001828054612f82906140a0565b8015612fcf5780601f10612fa457610100808354040283529160200191612fcf565b820191906000526020600020905b815481529060010190602001808311612fb257829003601f168201915b50505050508152602001600482018054612fe8906140a0565b80601f0160208091040260200160405190810160405280929190818152602001828054613014906140a0565b80156130615780601f1061303657610100808354040283529160200191613061565b820191906000526020600020905b81548152906001019060200180831161304457829003601f168201915b5050505050815260200160058201805461307a906140a0565b80601f01602080910402602001604051908101604052809291908181526020018280546130a6906140a0565b80156130f35780601f106130c8576101008083540402835291602001916130f3565b820191906000526020600020905b8154815290600101906020018083116130d657829003601f168201915b5050505050815260200160068201805461310c906140a0565b80601f0160208091040260200160405190810160405280929190818152602001828054613138906140a0565b80156131855780601f1061315a57610100808354040283529160200191613185565b820191906000526020600020905b81548152906001019060200180831161316857829003601f168201915b5050505050815260200160078201805461319e906140a0565b80601f01602080910402602001604051908101604052809291908181526020018280546131ca906140a0565b80156132175780601f106131ec57610100808354040283529160200191613217565b820191906000526020600020905b8154815290600101906020018083116131fa57829003601f168201915b5050509183525050600882015460ff808216151560208401526101009091041615156040820152600982018054606090920191613253906140a0565b80601f016020809104026020016040519081016040528092919081815260200182805461327f906140a0565b80156132cc5780601f106132a1576101008083540402835291602001916132cc565b820191906000526020600020905b8154815290600101906020018083116132af57829003601f168201915b5050505050815250509050919050565b336000908152600360209081526040808320805482518185028101850190935280835260609493849084015b828210156133b4578382906000526020600020018054613327906140a0565b80601f0160208091040260200160405190810160405280929190818152602001828054613353906140a0565b80156133a05780601f10613375576101008083540402835291602001916133a0565b820191906000526020600020905b81548152906001019060200180831161338357829003601f168201915b505050505081526020019060010190613308565b5050505090506000815167ffffffffffffffff8111156133d6576133d6613a20565b60405190808252806020026020018201604052801561340f57816020015b6133fc613963565b8152602001906001900390816133f45790505b50905060005b825181101561395c5760006001848381518110613434576134346140d4565b60200260200101516040516134499190614084565b908152604080519182900360209081018320610160840190925281546001600160a01b03168352600182018054929450849291840191613488906140a0565b80601f01602080910402602001604051908101604052809291908181526020018280546134b4906140a0565b80156135015780601f106134d657610100808354040283529160200191613501565b820191906000526020600020905b8154815290600101906020018083116134e457829003601f168201915b5050505050815260200160028201805461351a906140a0565b80601f0160208091040260200160405190810160405280929190818152602001828054613546906140a0565b80156135935780601f1061356857610100808354040283529160200191613593565b820191906000526020600020905b81548152906001019060200180831161357657829003601f168201915b505050505081526020016003820180546135ac906140a0565b80601f01602080910402602001604051908101604052809291908181526020018280546135d8906140a0565b80156136255780601f106135fa57610100808354040283529160200191613625565b820191906000526020600020905b81548152906001019060200180831161360857829003601f168201915b5050505050815260200160048201805461363e906140a0565b80601f016020809104026020016040519081016040528092919081815260200182805461366a906140a0565b80156136b75780601f1061368c576101008083540402835291602001916136b7565b820191906000526020600020905b81548152906001019060200180831161369a57829003601f168201915b505050505081526020016005820180546136d0906140a0565b80601f01602080910402602001604051908101604052809291908181526020018280546136fc906140a0565b80156137495780601f1061371e57610100808354040283529160200191613749565b820191906000526020600020905b81548152906001019060200180831161372c57829003601f168201915b50505050508152602001600682018054613762906140a0565b80601f016020809104026020016040519081016040528092919081815260200182805461378e906140a0565b80156137db5780601f106137b0576101008083540402835291602001916137db565b820191906000526020600020905b8154815290600101906020018083116137be57829003601f168201915b505050505081526020016007820180546137f4906140a0565b80601f0160208091040260200160405190810160405280929190818152602001828054613820906140a0565b801561386d5780601f106138425761010080835404028352916020019161386d565b820191906000526020600020905b81548152906001019060200180831161385057829003601f168201915b5050509183525050600882015460ff8082161515602084015261010090910416151560408201526009820180546060909201916138a9906140a0565b80601f01602080910402602001604051908101604052809291908181526020018280546138d5906140a0565b80156139225780601f106138f757610100808354040283529160200191613922565b820191906000526020600020905b81548152906001019060200180831161390557829003601f168201915b50505050508152505083838151811061393d5761393d6140d4565b602002602001018190525050808061395490614100565b915050613415565b5092915050565b60405180610160016040528060006001600160a01b0316815260200160608152602001606081526020016060815260200160608152602001606081526020016060815260200160608152602001600015158152602001600015158152602001606081525090565b5080546139d6906140a0565b6000825580601f106139e6575050565b601f016020900490600052602060002090810190613a049190613a07565b50565b5b80821115613a1c5760008155600101613a08565b5090565b634e487b7160e01b600052604160045260246000fd5b600082601f830112613a4757600080fd5b813567ffffffffffffffff80821115613a6257613a62613a20565b604051601f8301601f19908116603f01168101908282118183101715613a8a57613a8a613a20565b81604052838152866020858801011115613aa357600080fd5b836020870160208301376000602085830101528094505050505092915050565b80356001600160a01b0381168114613ada57600080fd5b919050565b80358015158114613ada57600080fd5b600080600080600060a08688031215613b0757600080fd5b853567ffffffffffffffff80821115613b1f57600080fd5b613b2b89838a01613a36565b96506020880135915080821115613b4157600080fd5b613b4d89838a01613a36565b9550613b5b60408901613ac3565b94506060880135915080821115613b7157600080fd5b50613b7e88828901613a36565b925050613b8d60808701613adf565b90509295509295909350565b600060208284031215613bab57600080fd5b813567ffffffffffffffff811115613bc257600080fd5b613bce84828501613a36565b949350505050565b60005b83811015613bf1578181015183820152602001613bd9565b50506000910152565b60008151808452613c12816020860160208601613bd6565b601f01601f19169290920160200192915050565b60006020808301818452808551808352604092508286019150828160051b87010184880160005b83811015613ccc57603f19898403018552815160a08151818652613c7382870182613bfa565b838b01516001600160a01b0316878c0152898401518782038b8901529092509050613c9e8282613bfa565b6060848101511515908801526080938401511515939096019290925250509386019390860190600101613c4d565b509098975050505050505050565b80516001600160a01b0316825260006101606020830151816020860152613d0382860182613bfa565b91505060408301518482036040860152613d1d8282613bfa565b91505060608301518482036060860152613d378282613bfa565b91505060808301518482036080860152613d518282613bfa565b91505060a083015184820360a0860152613d6b8282613bfa565b91505060c083015184820360c0860152613d858282613bfa565b91505060e083015184820360e0860152613d9f8282613bfa565b91505061010080840151613db68287018215159052565b5050610120838101511515908501526101408084015185830382870152613ddd8382613bfa565b9695505050505050565b602081526000613dfa6020830184613cda565b9392505050565b6000602080830181845280855180835260408601915060408160051b870101925083870160005b82811015613e5657603f19888603018452613e44858351613cda565b94509285019290850190600101613e28565b5092979650505050505050565b6000806000806000806000806000806101408b8d031215613e8357600080fd5b8a3567ffffffffffffffff80821115613e9b57600080fd5b613ea78e838f01613a36565b9b5060208d0135915080821115613ebd57600080fd5b613ec98e838f01613a36565b9a5060408d0135915080821115613edf57600080fd5b613eeb8e838f01613a36565b995060608d0135915080821115613f0157600080fd5b613f0d8e838f01613a36565b985060808d0135915080821115613f2357600080fd5b613f2f8e838f01613a36565b975060a08d0135915080821115613f4557600080fd5b613f518e838f01613a36565b965060c08d0135915080821115613f6757600080fd5b613f738e838f01613a36565b9550613f8160e08e01613adf565b9450613f906101008e01613adf565b93506101208d0135915080821115613fa757600080fd5b50613fb48d828e01613a36565b9150509295989b9194979a5092959850565b600060208284031215613fd857600080fd5b613dfa82613ac3565b6000602080830181845280855180835260408601915060408160051b870101925083870160005b82811015613e5657603f19888603018452614024858351613bfa565b94509285019290850190600101614008565b6000806040838503121561404957600080fd5b823567ffffffffffffffff81111561406057600080fd5b61406c85828601613a36565b92505061407b60208401613ac3565b90509250929050565b60008251614096818460208701613bd6565b9190910192915050565b600181811c908216806140b457607f821691505b602082108103611d0b57634e487b7160e01b600052602260045260246000fd5b634e487b7160e01b600052603260045260246000fd5b634e487b7160e01b600052601160045260246000fd5b600060018201614112576141126140ea565b5060010190565b601f82111561416357600081815260208120601f850160051c810160208610156141405750805b601f850160051c820191505b8181101561415f5782815560010161414c565b5050505b505050565b815167ffffffffffffffff81111561418257614182613a20565b6141968161419084546140a0565b84614119565b602080601f8311600181146141cb57600084156141b35750858301515b600019600386901b1c1916600185901b17855561415f565b600085815260208120601f198616915b828110156141fa578886015182559484019460019091019084016141db565b50858210156142185787850151600019600388901b60f8161c191681555b5050505050600190811b01905550565b6000808354614236816140a0565b6001828116801561424e576001811461426357614292565b60ff1984168752821515830287019450614292565b8760005260208060002060005b858110156142895781548a820152908401908201614270565b50505082870194505b50929695505050505050565b818103818111156142b1576142b16140ea565b92915050565b808201808211156142b1576142b16140ea565b8181036142d5575050565b6142df82546140a0565b67ffffffffffffffff8111156142f7576142f7613a20565b6143058161419084546140a0565b6000601f82116001811461433957600083156143215750848201545b600019600385901b1c1916600184901b1784556125a1565b600085815260209020601f19841690600086815260209020845b838110156143735782860154825560019586019590910190602001614353565b50858310156142185793015460001960f8600387901b161c19169092555050600190811b01905550565b634e487b7160e01b600052603160045260246000fdfea264697066735822122025d0c71adf4e89b90412bb9adf3bc735b1a61a83ac5f272241c65b0f2f796aa364736f6c63430008130033",
  "immutableReferences": {},
  "source": "// SPDX-License-Identifier: GPL-3.0\r\n\r\npragma solidity >=0.8.2 <0.9.0;\r\n\r\n/**\r\n * @title Storage\r\n * @dev Store & retrieve value in a variable\r\n * @custom:dev-run-script ./scripts/deploy_with_ethers.ts\r\n */\r\ncontract FileTransfer {\r\n    address public contractOwner;\r\n\r\n    constructor(){\r\n        contractOwner = msg.sender;\r\n    }\r\n\r\n    struct PrivateFile{\r\n        address owner;\r\n        string name;\r\n        string desc;\r\n        string format;\r\n        string size;\r\n        string createdAt;\r\n        string publicid;\r\n        string cid;\r\n        \r\n        bool encrypted;\r\n        bool canRequest;\r\n        string copyOf;\r\n    }\r\n\r\n    struct Access{\r\n        string publicid;\r\n        address user;\r\n        string ogpublicid;\r\n        bool viewOnly;\r\n        bool valid;\r\n    }\r\n\r\n    mapping(string => PrivateFile) privateFiles; //public key -> file\r\n    mapping(address => string[]) ownedFiles; //owner address -> public key\r\n    mapping(address => string[]) receivedFiles; //receiver address -> public key\r\n    mapping(string => Access[]) accesslist; //public key -> Access\r\n\r\n    function addFile(\r\n        string memory _name,\r\n        string memory _desc,\r\n        string memory _format,\r\n        string memory _size,\r\n        string memory _createdAt,\r\n        string memory _publicid,\r\n        string memory _cid,\r\n        bool _encrypted,\r\n        bool _canRequest,\r\n        string memory _copyOf\r\n    ) public {\r\n        // require(privateFiles[_publicid].exists!=true,\"An unexpected error occured. Please try again.\");\r\n        PrivateFile storage file = privateFiles[_publicid];\r\n        file.owner=msg.sender;\r\n        file.name=_name;\r\n        file.desc=_desc;\r\n        file.format=_format;\r\n        file.size=_size;\r\n        file.createdAt=_createdAt;\r\n        file.publicid=_publicid;\r\n        file.cid=_cid;\r\n        file.encrypted=_encrypted;\r\n        file.canRequest=_canRequest;\r\n        file.copyOf=_copyOf;\r\n\r\n        ownedFiles[msg.sender].push(_publicid);\r\n    }\r\n\r\n    function viewOwnedFiles()external view returns(PrivateFile[] memory){\r\n        PrivateFile[] memory retFiles=new PrivateFile[](ownedFiles[msg.sender].length);\r\n        for(uint i=0;i<ownedFiles[msg.sender].length;i++){\r\n            retFiles[i]=privateFiles[ownedFiles[msg.sender][i]];\r\n        }\r\n        return retFiles;\r\n    }\r\n\r\n    function viewOwnedFile(string memory _publicid)external view returns(PrivateFile memory){\r\n        require(privateFiles[_publicid].owner==msg.sender);\r\n        return privateFiles[_publicid];\r\n    }\r\n\r\n    function deleteFile(string memory _publicid)public{\r\n        PrivateFile memory file = privateFiles[_publicid];\r\n        // require(msg.sender==file.owner, \"You are not the owner\");\r\n        address owner = file.owner;\r\n        string[] storage oFiles = ownedFiles[owner];\r\n        bool flag = false;\r\n        for(uint i=0; i<oFiles.length;i++){\r\n            if(keccak256(abi.encodePacked(oFiles[i])) == keccak256(abi.encodePacked(_publicid))){\r\n                flag=true;\r\n            }\r\n            if(flag==true && i<oFiles.length-1){\r\n                oFiles[i]=oFiles[i+1];\r\n            }\r\n        }\r\n        oFiles.pop();\r\n\r\n        delete privateFiles[_publicid];\r\n\r\n        while(accesslist[_publicid].length>0){\r\n            revokeAccess(\r\n                accesslist[_publicid][accesslist[_publicid].length-1].publicid,\r\n                accesslist[_publicid][accesslist[_publicid].length-1].user\r\n            );\r\n        }\r\n    }\r\n\r\n    function grantAccess(\r\n        string memory _publicid,\r\n        string memory _cid,\r\n        address _receivingUserAddress,\r\n        string memory _ogpublicid,\r\n        bool _viewOnly)\r\n     external {\r\n        PrivateFile memory file = privateFiles[_ogpublicid];\r\n        require(msg.sender==file.owner, \"You are not the owner\");\r\n\r\n        Access memory access;\r\n        access.user = _receivingUserAddress;\r\n        \r\n        access.viewOnly = _viewOnly;\r\n        access.valid = true;\r\n        access.publicid = _publicid;\r\n        access.ogpublicid=_ogpublicid;\r\n\r\n        bool accessAlreadyGranted = false;\r\n        string[] memory recvFiles = receivedFiles[_receivingUserAddress];\r\n        for(uint i=0; i<recvFiles.length;i++){\r\n            if(keccak256(abi.encodePacked(recvFiles[i])) == keccak256(abi.encodePacked(_publicid))){\r\n                accessAlreadyGranted=true;\r\n                break;\r\n            }\r\n        }\r\n\r\n        if(accessAlreadyGranted==false){\r\n            receivedFiles[_receivingUserAddress].push(_publicid);\r\n            accesslist[_ogpublicid].push(access);\r\n        }\r\n\r\n        addFile(file.name, file.desc, file.format, file.size, file.createdAt, _publicid, _cid, file.encrypted, file.canRequest, file.publicid);\r\n\r\n    }\r\n\r\n    function revokeAccess(\r\n        string memory _publicid,\r\n        address _revokeUserAddress\r\n    ) public {\r\n        string[] storage recvFiles = receivedFiles[_revokeUserAddress];\r\n        bool flag = false;\r\n        string memory ogpublicid;\r\n        for(uint i=0; i<recvFiles.length;i++){\r\n            if(keccak256(abi.encodePacked(recvFiles[i])) == keccak256(abi.encodePacked(_publicid))){\r\n                flag=true;\r\n                ogpublicid=privateFiles[recvFiles[i]].copyOf;\r\n            }\r\n            if(flag==true && i<recvFiles.length-1){\r\n                recvFiles[i]=recvFiles[i+1];\r\n            }\r\n        }\r\n        recvFiles.pop();\r\n\r\n        // removing user address from accesslist\r\n        Access[] storage list = accesslist[ogpublicid];\r\n        bool flag2 = false;\r\n        for(uint i=0; i<list.length;i++){\r\n            if(list[i].user==_revokeUserAddress){\r\n                flag2=true;\r\n            }\r\n            if(flag==true && i<list.length-1){\r\n                list[i]=list[i+1];\r\n            }\r\n        }\r\n        list.pop();\r\n\r\n        deleteFile(_publicid);\r\n    }\r\n\r\n    function viewAccessList(string memory _publicid) external view returns(Access[] memory){\r\n        PrivateFile memory file = privateFiles[_publicid];\r\n        require(msg.sender==file.owner, \"You are not the owner\");\r\n        return accesslist[_publicid];\r\n    }\r\n\r\n    function viewRecievedFiles() external view returns(PrivateFile[] memory){\r\n        string[] memory publicids = receivedFiles[msg.sender];\r\n\r\n        PrivateFile[] memory infos = new PrivateFile[](publicids.length);\r\n        for(uint i=0;i<publicids.length;i++){\r\n            PrivateFile storage info = privateFiles[publicids[i]];\r\n            infos[i]=info;\r\n        }\r\n        return infos;\r\n    }\r\n    \r\n    \r\n    function viewRequestableFiles(address _address)external view returns(string[] memory){\r\n        string[] memory retFileNames=new string[](ownedFiles[_address].length);\r\n        uint j=0;\r\n        for(uint i=0;i<ownedFiles[_address].length;i++){\r\n            if(privateFiles[ownedFiles[_address][i]].canRequest==true && keccak256(abi.encodePacked(privateFiles[ownedFiles[_address][i]].copyOf)) == keccak256(abi.encodePacked(\"\"))){\r\n                retFileNames[j]=privateFiles[ownedFiles[_address][i]].name;\r\n                j++;\r\n            }\r\n            else{\r\n                retFileNames[j]=\"\";\r\n                j++;\r\n            }\r\n        }\r\n        return retFileNames;\r\n    }\r\n\r\n    function viewFile(string memory _publicid)external view returns(PrivateFile memory){\r\n        bool fileReceived = false;\r\n        for(uint i=0; i<receivedFiles[msg.sender].length;i++){\r\n            if(keccak256(abi.encodePacked(receivedFiles[msg.sender][i])) == keccak256(abi.encodePacked(_publicid))){\r\n                fileReceived=true;\r\n            }\r\n        }\r\n\r\n        require(fileReceived==true,\"You have not received this file or the owner has deleted it\");\r\n\r\n        PrivateFile memory retFile = privateFiles[_publicid];\r\n\r\n        return retFile;\r\n    }\r\n}",
  "sourcePath": "C:\\Users\\Aprameya\\Desktop\\LawVertex\\web3\\contracts\\FileTransfer.sol",
  "compiler": {
    "name": "solc",
    "version": "0.8.19+commit.7dd6d404.Emscripten.clang"
  },
  "schemaVersion": "3.4.16",
  "updatedAt": "2024-05-03T12:18:47.433Z",
  "devdoc": {
    "custom:dev-run-script": "./scripts/deploy_with_ethers.ts",
    "details": "Store & retrieve value in a variable",
    "kind": "dev",
    "methods": {},
    "title": "Storage",
    "version": 1
  },
  "userdoc": {
    "kind": "user",
    "methods": {},
    "version": 1
  }
}