{
  "contractName": "LawVertex",
  "abi": [
    {
      "inputs": [],
      "stateMutability": "nonpayable",
      "type": "constructor"
    },
    {
      "inputs": [],
      "name": "caseCount",
      "outputs": [
        {
          "internalType": "uint256",
          "name": "",
          "type": "uint256"
        }
      ],
      "stateMutability": "view",
      "type": "function"
    },
    {
      "inputs": [],
      "name": "contractOwner",
      "outputs": [
        {
          "internalType": "address",
          "name": "",
          "type": "address"
        }
      ],
      "stateMutability": "view",
      "type": "function"
    },
    {
      "inputs": [],
      "name": "getAllCourts",
      "outputs": [
        {
          "components": [
            {
              "internalType": "address",
              "name": "owner",
              "type": "address"
            },
            {
              "internalType": "uint256",
              "name": "slno",
              "type": "uint256"
            },
            {
              "internalType": "string",
              "name": "name",
              "type": "string"
            },
            {
              "internalType": "string",
              "name": "location",
              "type": "string"
            },
            {
              "internalType": "string",
              "name": "tel",
              "type": "string"
            }
          ],
          "internalType": "struct LawVertex.Court[]",
          "name": "",
          "type": "tuple[]"
        }
      ],
      "stateMutability": "view",
      "type": "function"
    },
    {
      "inputs": [
        {
          "internalType": "string",
          "name": "_cnr",
          "type": "string"
        }
      ],
      "name": "getActs",
      "outputs": [
        {
          "components": [
            {
              "internalType": "string",
              "name": "name",
              "type": "string"
            },
            {
              "internalType": "string",
              "name": "section",
              "type": "string"
            }
          ],
          "internalType": "struct LawVertex.ActStruct[]",
          "name": "",
          "type": "tuple[]"
        }
      ],
      "stateMutability": "view",
      "type": "function"
    },
    {
      "inputs": [
        {
          "internalType": "string",
          "name": "_cnr",
          "type": "string"
        },
        {
          "internalType": "string",
          "name": "_party",
          "type": "string"
        }
      ],
      "name": "getAdvocate",
      "outputs": [
        {
          "internalType": "address[]",
          "name": "",
          "type": "address[]"
        }
      ],
      "stateMutability": "view",
      "type": "function"
    },
    {
      "inputs": [
        {
          "internalType": "address",
          "name": "_advAddress",
          "type": "address"
        },
        {
          "internalType": "string",
          "name": "_cnr",
          "type": "string"
        }
      ],
      "name": "getAdocateRole",
      "outputs": [
        {
          "internalType": "string",
          "name": "",
          "type": "string"
        }
      ],
      "stateMutability": "view",
      "type": "function"
    },
    {
      "inputs": [],
      "name": "getAllParties",
      "outputs": [
        {
          "components": [
            {
              "internalType": "address",
              "name": "owner",
              "type": "address"
            },
            {
              "internalType": "address",
              "name": "lead_adv_add",
              "type": "address"
            },
            {
              "internalType": "uint256",
              "name": "slno",
              "type": "uint256"
            },
            {
              "internalType": "string",
              "name": "name",
              "type": "string"
            },
            {
              "internalType": "string",
              "name": "cnr",
              "type": "string"
            },
            {
              "internalType": "string",
              "name": "location",
              "type": "string"
            },
            {
              "internalType": "string",
              "name": "email",
              "type": "string"
            },
            {
              "internalType": "string",
              "name": "phone",
              "type": "string"
            },
            {
              "internalType": "string",
              "name": "lead_adv",
              "type": "string"
            }
          ],
          "internalType": "struct LawVertex.Party[]",
          "name": "",
          "type": "tuple[]"
        }
      ],
      "stateMutability": "view",
      "type": "function"
    },
    {
      "inputs": [],
      "name": "getAllCases",
      "outputs": [
        {
          "components": [
            {
              "internalType": "address",
              "name": "owner",
              "type": "address"
            },
            {
              "internalType": "string",
              "name": "case_type",
              "type": "string"
            },
            {
              "internalType": "uint256",
              "name": "filing_no",
              "type": "uint256"
            },
            {
              "internalType": "string",
              "name": "filing_date",
              "type": "string"
            },
            {
              "internalType": "uint256",
              "name": "reg_no",
              "type": "uint256"
            },
            {
              "internalType": "string",
              "name": "reg_date",
              "type": "string"
            },
            {
              "internalType": "string",
              "name": "cnr",
              "type": "string"
            },
            {
              "internalType": "string",
              "name": "first_hearing",
              "type": "string"
            },
            {
              "internalType": "string",
              "name": "next_hearing",
              "type": "string"
            },
            {
              "internalType": "string",
              "name": "stage",
              "type": "string"
            },
            {
              "internalType": "address",
              "name": "court_address",
              "type": "address"
            },
            {
              "internalType": "string",
              "name": "court_no",
              "type": "string"
            },
            {
              "internalType": "string",
              "name": "judge",
              "type": "string"
            }
          ],
          "internalType": "struct LawVertex.Case[]",
          "name": "",
          "type": "tuple[]"
        }
      ],
      "stateMutability": "view",
      "type": "function"
    },
    {
      "inputs": [
        {
          "internalType": "address",
          "name": "_owner",
          "type": "address"
        },
        {
          "internalType": "string",
          "name": "_name",
          "type": "string"
        },
        {
          "internalType": "string",
          "name": "_location",
          "type": "string"
        },
        {
          "internalType": "string",
          "name": "_tel",
          "type": "string"
        }
      ],
      "name": "addCourt",
      "outputs": [],
      "stateMutability": "nonpayable",
      "type": "function"
    },
    {
      "inputs": [
        {
          "internalType": "address",
          "name": "_owner",
          "type": "address"
        },
        {
          "internalType": "address",
          "name": "_lead_adv_add",
          "type": "address"
        },
        {
          "internalType": "string",
          "name": "_name",
          "type": "string"
        },
        {
          "internalType": "string",
          "name": "_cnr",
          "type": "string"
        },
        {
          "internalType": "string",
          "name": "_location",
          "type": "string"
        },
        {
          "internalType": "string",
          "name": "_email",
          "type": "string"
        },
        {
          "internalType": "string",
          "name": "_phone",
          "type": "string"
        },
        {
          "internalType": "string",
          "name": "_lead_adv",
          "type": "string"
        }
      ],
      "name": "addParty",
      "outputs": [],
      "stateMutability": "nonpayable",
      "type": "function"
    },
    {
      "inputs": [
        {
          "internalType": "string",
          "name": "_case_type",
          "type": "string"
        },
        {
          "internalType": "uint256",
          "name": "_filing_no",
          "type": "uint256"
        },
        {
          "internalType": "string",
          "name": "_filing_date",
          "type": "string"
        },
        {
          "internalType": "uint256",
          "name": "_reg_no",
          "type": "uint256"
        },
        {
          "internalType": "string",
          "name": "_reg_date",
          "type": "string"
        },
        {
          "internalType": "string",
          "name": "_cnr",
          "type": "string"
        },
        {
          "internalType": "string",
          "name": "_first_hearing",
          "type": "string"
        },
        {
          "internalType": "string",
          "name": "_next_hearing",
          "type": "string"
        },
        {
          "internalType": "string",
          "name": "_stage",
          "type": "string"
        },
        {
          "internalType": "string",
          "name": "_court_no",
          "type": "string"
        },
        {
          "internalType": "string",
          "name": "_judge",
          "type": "string"
        }
      ],
      "name": "addCase",
      "outputs": [],
      "stateMutability": "nonpayable",
      "type": "function"
    },
    {
      "inputs": [
        {
          "internalType": "string",
          "name": "_cnr",
          "type": "string"
        }
      ],
      "name": "viewCase",
      "outputs": [
        {
          "components": [
            {
              "internalType": "address",
              "name": "owner",
              "type": "address"
            },
            {
              "internalType": "string",
              "name": "case_type",
              "type": "string"
            },
            {
              "internalType": "uint256",
              "name": "filing_no",
              "type": "uint256"
            },
            {
              "internalType": "string",
              "name": "filing_date",
              "type": "string"
            },
            {
              "internalType": "uint256",
              "name": "reg_no",
              "type": "uint256"
            },
            {
              "internalType": "string",
              "name": "reg_date",
              "type": "string"
            },
            {
              "internalType": "string",
              "name": "cnr",
              "type": "string"
            },
            {
              "internalType": "string",
              "name": "first_hearing",
              "type": "string"
            },
            {
              "internalType": "string",
              "name": "next_hearing",
              "type": "string"
            },
            {
              "internalType": "string",
              "name": "stage",
              "type": "string"
            },
            {
              "internalType": "address",
              "name": "court_address",
              "type": "address"
            },
            {
              "internalType": "string",
              "name": "court_no",
              "type": "string"
            },
            {
              "internalType": "string",
              "name": "judge",
              "type": "string"
            }
          ],
          "internalType": "struct LawVertex.Case",
          "name": "",
          "type": "tuple"
        }
      ],
      "stateMutability": "view",
      "type": "function"
    },
    {
      "inputs": [
        {
          "internalType": "string",
          "name": "_cnr",
          "type": "string"
        },
        {
          "components": [
            {
              "internalType": "string",
              "name": "name",
              "type": "string"
            },
            {
              "internalType": "string",
              "name": "section",
              "type": "string"
            }
          ],
          "internalType": "struct LawVertex.ActStruct[]",
          "name": "_acts",
          "type": "tuple[]"
        }
      ],
      "name": "addAct",
      "outputs": [],
      "stateMutability": "nonpayable",
      "type": "function"
    },
    {
      "inputs": [
        {
          "internalType": "string",
          "name": "_cnr",
          "type": "string"
        },
        {
          "internalType": "address[]",
          "name": "_adv_addresses",
          "type": "address[]"
        },
        {
          "internalType": "string[]",
          "name": "_parties",
          "type": "string[]"
        },
        {
          "internalType": "string[]",
          "name": "_roles",
          "type": "string[]"
        }
      ],
      "name": "updateAdvocates",
      "outputs": [],
      "stateMutability": "nonpayable",
      "type": "function"
    },
    {
      "inputs": [
        {
          "internalType": "string",
          "name": "_cnr",
          "type": "string"
        },
        {
          "internalType": "string",
          "name": "_next_hearing",
          "type": "string"
        },
        {
          "internalType": "string",
          "name": "_stage",
          "type": "string"
        },
        {
          "internalType": "string",
          "name": "_court_no",
          "type": "string"
        },
        {
          "internalType": "string",
          "name": "_judge",
          "type": "string"
        }
      ],
      "name": "updateCase",
      "outputs": [],
      "stateMutability": "nonpayable",
      "type": "function"
    },
    {
      "inputs": [
        {
          "internalType": "string",
          "name": "_pet",
          "type": "string"
        },
        {
          "internalType": "string",
          "name": "_res",
          "type": "string"
        },
        {
          "internalType": "string",
          "name": "_status",
          "type": "string"
        },
        {
          "internalType": "string",
          "name": "_police_station",
          "type": "string"
        },
        {
          "internalType": "string",
          "name": "_fir_no",
          "type": "string"
        },
        {
          "internalType": "string",
          "name": "_year",
          "type": "string"
        },
        {
          "internalType": "string",
          "name": "_loc",
          "type": "string"
        }
      ],
      "name": "addCaseInfo",
      "outputs": [],
      "stateMutability": "nonpayable",
      "type": "function"
    },
    {
      "inputs": [
        {
          "internalType": "string",
          "name": "_cnr",
          "type": "string"
        },
        {
          "internalType": "string",
          "name": "_pet",
          "type": "string"
        },
        {
          "internalType": "string",
          "name": "_status",
          "type": "string"
        },
        {
          "internalType": "string",
          "name": "_res",
          "type": "string"
        }
      ],
      "name": "updateCaseInfo",
      "outputs": [],
      "stateMutability": "nonpayable",
      "type": "function"
    },
    {
      "inputs": [
        {
          "internalType": "string",
          "name": "_cnr",
          "type": "string"
        },
        {
          "internalType": "string",
          "name": "_url",
          "type": "string"
        }
      ],
      "name": "addPublicDocument",
      "outputs": [],
      "stateMutability": "nonpayable",
      "type": "function"
    },
    {
      "inputs": [
        {
          "internalType": "string",
          "name": "_cnr",
          "type": "string"
        }
      ],
      "name": "displayPublicDocuments",
      "outputs": [
        {
          "internalType": "string[]",
          "name": "",
          "type": "string[]"
        }
      ],
      "stateMutability": "view",
      "type": "function"
    }
  ],
  "bytecode": "0x608060405234801561001057600080fd5b50600080546001600160a01b031990811633908117835560018054909216179055600255613fc0806100436000396000f3fe608060405234801561001057600080fd5b50600436106101215760003560e01c806374e2e48d116100ad578063da2d7e9511610071578063da2d7e951461027c578063e3c5c3f514610293578063e569190f146102a8578063e8a2f607146102c8578063fb40c22a146102e857600080fd5b806374e2e48d146101e95780639491b64014610209578063b867bfcc1461021c578063cbdf562714610231578063ce606ee01461025157600080fd5b80632c9bd309116100f45780632c9bd3091461018a5780633ff4441c1461019d57806342a5275d146101b05780634b7601af146101c35780635ec0f985146101d657600080fd5b80630f4df901146101265780631401f7f91461014f5780631cce9d0d146101645780632a6d600c14610177575b600080fd5b610139610134366004612dea565b6102fd565b6040516101469190612e4d565b60405180910390f35b61016261015d366004612e9a565b610395565b005b61016261017236600461303a565b610633565b6101626101853660046130d2565b6107ad565b6101626101983660046131ec565b61099b565b6101626101ab366004612dea565b610cb9565b6101626101be3660046132bd565b610db0565b6101626101d13660046133d4565b611004565b6101626101e4366004613446565b61114e565b6101fc6101f7366004613579565b611317565b6040516101469190613605565b610162610217366004613714565b6114b8565b6102246118f8565b604051610146919061380f565b61024461023f36600461392a565b611cf2565b604051610146919061396d565b600054610264906001600160a01b031681565b6040516001600160a01b039091168152602001610146565b61028560025481565b604051908152602001610146565b61029b611db2565b6040516101469190613987565b6102bb6102b6366004613579565b611fde565b6040516101469190613b76565b6102db6102d6366004613579565b612611565b6040516101469190613b89565b6102f06126fd565b6040516101469190613beb565b6060600c8360405161030f9190613c40565b90815260200160405180910390208260405161032b9190613c40565b908152604080519182900360209081018320805480830285018301909352828452919083018282801561038757602002820191906000526020600020905b81546001600160a01b03168152600190910190602001808311610369575b505050505090505b92915050565b6040516020016103a490613c5c565b60408051601f198184030181528282528051602091820120336000908152600a83529290922091926103d7929101613ca7565b60405160208183030381529060405280519060200120146104135760405162461bcd60e51b815260040161040a90613d1d565b60405180910390fd5b604080516101a08101825233808252602082018e81529282018d9052606082018c9052608082018b905260a082018a905260c0820189905260e0820188905261010082018790526101208201869052610140820152610160810184905261018081018390526005805460018101825560009190915281517f036b6384b5eca791c62761152d0c79bb0604c104a5fb6f4eb0703f3154bb3db0600d90920291820180546001600160a01b0319166001600160a01b0390921691909117815592519192917f036b6384b5eca791c62761152d0c79bb0604c104a5fb6f4eb0703f3154bb3db1909101906105049082613d8b565b5060408201516002820155606082015160038201906105239082613d8b565b506080820151600482015560a082015160058201906105429082613d8b565b5060c082015160068201906105579082613d8b565b5060e0820151600782019061056c9082613d8b565b5061010082015160088201906105829082613d8b565b5061012082015160098201906105989082613d8b565b50610140820151600a820180546001600160a01b0319166001600160a01b03909216919091179055610160820151600b8201906105d59082613d8b565b50610180820151600c8201906105eb9082613d8b565b5050506002546006876040516106019190613c40565b908152604051908190036020019020556002805490600061062183613e60565b91905055505050505050505050505050565b6001546001600160a01b0316331461065d5760405162461bcd60e51b815260040161040a90613d1d565b6040805160a0810182526001600160a01b0386811682526003805460208401818152948401888152606085018890526080850187905260018201835560009290925283517fc2575a0e9e593c00f959f8c92f12db2869c3395a3b0502d05e2516446f71f85b600590920291820180546001600160a01b0319169190941617835593517fc2575a0e9e593c00f959f8c92f12db2869c3395a3b0502d05e2516446f71f85c85015551919290917fc2575a0e9e593c00f959f8c92f12db2869c3395a3b0502d05e2516446f71f85d909101906107379082613d8b565b506060820151600382019061074c9082613d8b565b50608082015160048201906107619082613d8b565b5050604080518082018252600581526418dbdd5c9d60da1b6020808301919091526001600160a01b0388166000908152600a9091529190912091506107a69082613d8b565b5050505050565b60006007600560016002546107c29190613e79565b815481106107d2576107d2613e8c565b90600052602060002090600d02016006016040516107f09190613ca7565b90815260200160405180910390209050336001600160a01b03166005600160025461081b9190613e79565b8154811061082b5761082b613e8c565b60009182526020909120600a600d9092020101546001600160a01b03161480156108aa575060405160200161085f90613c5c565b60408051601f198184030181528282528051602091820120336000908152600a8352929092209192610892929101613ca7565b60405160208183030381529060405280519060200120145b6108c65760405162461bcd60e51b815260040161040a90613d1d565b60016002546108d59190613e79565b815560025486906008906005906108ee90600190613e79565b815481106108fe576108fe613e8c565b90600052602060002090600d020160060160405161091c9190613ca7565b908152602001604051809103902090816109369190613d8b565b50600181016109458982613d8b565b50600281016109548882613d8b565b50600381016109638682613d8b565b50600481016109728582613d8b565b50600581016109818482613d8b565b50600681016109908382613d8b565b505050505050505050565b600060056006876040516109af9190613c40565b908152602001604051809103902054815481106109ce576109ce613e8c565b60009182526020909120600a600d90920201908101549091506001600160a01b031633148015610a535750604051602001610a0890613c5c565b60408051601f198184030181528282528051602091820120336000908152600a8352929092209192610a3b929101613ca7565b60405160208183030381529060405280519060200120145b610a6f5760405162461bcd60e51b815260040161040a90613d1d565b60088101610a7d8682613d8b565b5060098101610a8c8582613d8b565b50600b8101610a9b8482613d8b565b50600c8101610aaa8382613d8b565b5060088101610ab98682613d8b565b5060098101610ac88582613d8b565b50600b8101610ad78482613d8b565b50600c8101610ae68382613d8b565b5060005b600554811015610cb05786604051602001610b059190613c40565b6040516020818303038152906040528051906020012060058281548110610b2e57610b2e613e8c565b90600052602060002090600d0201600601604051602001610b4f9190613ca7565b6040516020818303038152906040528051906020012003610c9e578160058281548110610b7e57610b7e613e8c565b600091825260209091208254600d9092020180546001600160a01b0319166001600160a01b03909216919091178155600180820190610bbf90840182613ea2565b506002820154816002015560038201816003019081610bde9190613ea2565b506004820154816004015560058201816005019081610bfd9190613ea2565b50600681810190610c1090840182613ea2565b50600781810190610c2390840182613ea2565b50600881810190610c3690840182613ea2565b50600981810190610c4990840182613ea2565b50600a8281015490820180546001600160a01b0319166001600160a01b03909216919091179055600b80820190610c8290840182613ea2565b50600c81810190610c9590840182613ea2565b50905050610cb0565b80610ca881613e60565b915050610aea565b50505050505050565b6005600683604051610ccb9190613c40565b90815260200160405180910390205481548110610cea57610cea613e8c565b60009182526020909120600d90910201546001600160a01b03163314610d705760405162461bcd60e51b815260206004820152603560248201527f596f7520646f6e27742068617665207065726d697373696f6e20746f207075626044820152746c697368207075626c696320646f63756d656e747360581b606482015260840161040a565b600b82604051610d809190613c40565b908152604051602091819003820190208054600181018255600091825291902001610dab8282613d8b565b505050565b604051602001610dbf90613c5c565b60408051601f198184030181528282528051602091820120336000908152600a8352929092209192610df2929101613ca7565b6040516020818303038152906040528051906020012014610e255760405162461bcd60e51b815260040161040a90613d1d565b60408051610120810182526001600160a01b03808b1682528981166020830190815260048054948401858152606085018c8152608086018c905260a086018b905260c086018a905260e086018990526101008601889052600187018355600092909252845160099096027f8a35acfbc15ff81a39ae7d344fd709f28e8600b4aa8c65c6b64bfe7fe36bd19b810180549786166001600160a01b031998891617815593517f8a35acfbc15ff81a39ae7d344fd709f28e8600b4aa8c65c6b64bfe7fe36bd19c820180549190961697169690961790935591517f8a35acfbc15ff81a39ae7d344fd709f28e8600b4aa8c65c6b64bfe7fe36bd19d8501559051919290917f8a35acfbc15ff81a39ae7d344fd709f28e8600b4aa8c65c6b64bfe7fe36bd19e90910190610f559082613d8b565b5060808201516004820190610f6a9082613d8b565b5060a08201516005820190610f7f9082613d8b565b5060c08201516006820190610f949082613d8b565b5060e08201516007820190610fa99082613d8b565b506101008201516008820190610fbf9082613d8b565b50506040805180820182526005815264706172747960d81b6020808301919091526001600160a01b038c166000908152600a9091529190912091506109909082613d8b565b336001600160a01b031660056006866040516110209190613c40565b9081526020016040518091039020548154811061103f5761103f613e8c565b60009182526020909120600a600d9092020101546001600160a01b03161480156110be575060405160200161107390613c5c565b60408051601f198184030181528282528051602091820120336000908152600a83529290922091926110a6929101613ca7565b60405160208183030381529060405280519060200120145b6110da5760405162461bcd60e51b815260040161040a90613d1d565b60006007856040516110ec9190613c40565b90815260405190819003602001902090506001810161110b8582613d8b565b508260088660405161111d9190613c40565b908152602001604051809103902090816111379190613d8b565b50600281016111468382613d8b565b505050505050565b60405160200161115d90613c5c565b60408051601f198184030181528282528051602091820120336000908152600a8352929092209192611190929101613ca7565b60405160208183030381529060405280519060200120146111c35760405162461bcd60e51b815260040161040a90613d1d565b6009826040516111d39190613c40565b908152604051908190036020019020541561124c576009826040516111f89190613c40565b908152602001604051809103902080548061121557611215613f74565b600082815260208120600019909201916002830201906112358282612cb7565b611243600183016000612cb7565b505090556111c3565b60005b8151811015610dab576009836040516112689190613c40565b9081526020016040518091039020604051806040016040528084848151811061129357611293613e8c565b60200260200101516000015181526020018484815181106112b6576112b6613e8c565b60209081029190910181015181015190915282546001810184556000938452922081519192600202019081906112ec9082613d8b565b50602082015160018201906113019082613d8b565b505050808061130f90613e60565b91505061124f565b60606009826040516113299190613c40565b9081526020016040518091039020805480602002602001604051908101604052809291908181526020016000905b828210156114ad578382906000526020600020906002020160405180604001604052908160008201805461138a90613c6d565b80601f01602080910402602001604051908101604052809291908181526020018280546113b690613c6d565b80156114035780601f106113d857610100808354040283529160200191611403565b820191906000526020600020905b8154815290600101906020018083116113e657829003601f168201915b5050505050815260200160018201805461141c90613c6d565b80601f016020809104026020016040519081016040528092919081815260200182805461144890613c6d565b80156114955780601f1061146a57610100808354040283529160200191611495565b820191906000526020600020905b81548152906001019060200180831161147857829003601f168201915b50505050508152505081526020019060010190611357565b505050509050919050565b336001600160a01b031660056006866040516114d49190613c40565b908152602001604051809103902054815481106114f3576114f3613e8c565b60009182526020909120600a600d9092020101546001600160a01b0316148015611572575060405160200161152790613c5c565b60408051601f198184030181528282528051602091820120336000908152600a835292909220919261155a929101613ca7565b60405160208183030381529060405280519060200120145b61158e5760405162461bcd60e51b815260040161040a90613d1d565b80518351146115d85760405162461bcd60e51b8152602060048201526016602482015275125b98dbdc9c9958dd081a5b9c1d5d08199bdc9b585d60521b604482015260640161040a565b60005b600c856040516115eb9190613c40565b908152604051908190036020018120621c195d60ea1b8252906003019081526040519081900360200190205481101561169b57600c8560405161162e9190613c40565b908152604051908190036020018120621c195d60ea1b825290600301908152602001604051809103902080548061166757611667613f74565b600082815260209020810160001990810180546001600160a01b03191690550190558061169381613e60565b9150506115db565b5060005b600c856040516116af9190613c40565b9081526040519081900360200181206272657360e81b8252906003019081526040519081900360200190205481101561175f57600c856040516116f29190613c40565b9081526040519081900360200181206272657360e81b825290600301908152602001604051809103902080548061172b5761172b613f74565b600082815260209020810160001990810180546001600160a01b03191690550190558061175781613e60565b91505061169f565b5060005b81518110156107a657600c8560405161177c9190613c40565b908152602001604051809103902083828151811061179c5761179c613e8c565b60200260200101516040516117b19190613c40565b90815260200160405180910390208482815181106117d1576117d1613e8c565b6020908102919091018101518254600181018455600093845291832090910180546001600160a01b0319166001600160a01b039092169190911790558451600d919086908490811061182557611825613e8c565b6020908102919091018101516001600160a01b031682528181019290925260400160009081208054600181018255908252919020016118648682613d8b565b5081818151811061187757611877613e8c565b6020026020010151600e600086848151811061189557611895613e8c565b60200260200101516001600160a01b03166001600160a01b03168152602001908152602001600020866040516118cb9190613c40565b908152602001604051809103902090816118e59190613d8b565b50806118f081613e60565b915050611763565b60606004805480602002602001604051908101604052809291908181526020016000905b82821015611ce957600084815260209081902060408051610120810182526009860290920180546001600160a01b0390811684526001820154169383019390935260028301549082015260038201805491929160608401919061197e90613c6d565b80601f01602080910402602001604051908101604052809291908181526020018280546119aa90613c6d565b80156119f75780601f106119cc576101008083540402835291602001916119f7565b820191906000526020600020905b8154815290600101906020018083116119da57829003601f168201915b50505050508152602001600482018054611a1090613c6d565b80601f0160208091040260200160405190810160405280929190818152602001828054611a3c90613c6d565b8015611a895780601f10611a5e57610100808354040283529160200191611a89565b820191906000526020600020905b815481529060010190602001808311611a6c57829003601f168201915b50505050508152602001600582018054611aa290613c6d565b80601f0160208091040260200160405190810160405280929190818152602001828054611ace90613c6d565b8015611b1b5780601f10611af057610100808354040283529160200191611b1b565b820191906000526020600020905b815481529060010190602001808311611afe57829003601f168201915b50505050508152602001600682018054611b3490613c6d565b80601f0160208091040260200160405190810160405280929190818152602001828054611b6090613c6d565b8015611bad5780601f10611b8257610100808354040283529160200191611bad565b820191906000526020600020905b815481529060010190602001808311611b9057829003601f168201915b50505050508152602001600782018054611bc690613c6d565b80601f0160208091040260200160405190810160405280929190818152602001828054611bf290613c6d565b8015611c3f5780601f10611c1457610100808354040283529160200191611c3f565b820191906000526020600020905b815481529060010190602001808311611c2257829003601f168201915b50505050508152602001600882018054611c5890613c6d565b80601f0160208091040260200160405190810160405280929190818152602001828054611c8490613c6d565b8015611cd15780601f10611ca657610100808354040283529160200191611cd1565b820191906000526020600020905b815481529060010190602001808311611cb457829003601f168201915b5050505050815250508152602001906001019061191c565b50505050905090565b6001600160a01b0382166000908152600e602052604090819020905160609190611d1d908490613c40565b90815260200160405180910390208054611d3690613c6d565b80601f0160208091040260200160405190810160405280929190818152602001828054611d6290613c6d565b80156103875780601f10611d8457610100808354040283529160200191610387565b820191906000526020600020905b815481529060010190602001808311611d92575093979650505050505050565b60606003805480602002602001604051908101604052809291908181526020016000905b82821015611ce95760008481526020908190206040805160a0810182526005860290920180546001600160a01b0316835260018101549383019390935260028301805492939291840191611e2990613c6d565b80601f0160208091040260200160405190810160405280929190818152602001828054611e5590613c6d565b8015611ea25780601f10611e7757610100808354040283529160200191611ea2565b820191906000526020600020905b815481529060010190602001808311611e8557829003601f168201915b50505050508152602001600382018054611ebb90613c6d565b80601f0160208091040260200160405190810160405280929190818152602001828054611ee790613c6d565b8015611f345780601f10611f0957610100808354040283529160200191611f34565b820191906000526020600020905b815481529060010190602001808311611f1757829003601f168201915b50505050508152602001600482018054611f4d90613c6d565b80601f0160208091040260200160405190810160405280929190818152602001828054611f7990613c6d565b8015611fc65780601f10611f9b57610100808354040283529160200191611fc6565b820191906000526020600020905b815481529060010190602001808311611fa957829003601f168201915b50505050508152505081526020019060010190611dd6565b61205b604051806101a0016040528060006001600160a01b0316815260200160608152602001600081526020016060815260200160008152602001606081526020016060815260200160608152602001606081526020016060815260200160006001600160a01b0316815260200160608152602001606081525090565b600560068360405161206d9190613c40565b9081526020016040518091039020548154811061208c5761208c613e8c565b6000918252602091829020604080516101a08101909152600d9092020180546001600160a01b0316825260018101805492939192918401916120cd90613c6d565b80601f01602080910402602001604051908101604052809291908181526020018280546120f990613c6d565b80156121465780601f1061211b57610100808354040283529160200191612146565b820191906000526020600020905b81548152906001019060200180831161212957829003601f168201915b505050505081526020016002820154815260200160038201805461216990613c6d565b80601f016020809104026020016040519081016040528092919081815260200182805461219590613c6d565b80156121e25780601f106121b7576101008083540402835291602001916121e2565b820191906000526020600020905b8154815290600101906020018083116121c557829003601f168201915b505050505081526020016004820154815260200160058201805461220590613c6d565b80601f016020809104026020016040519081016040528092919081815260200182805461223190613c6d565b801561227e5780601f106122535761010080835404028352916020019161227e565b820191906000526020600020905b81548152906001019060200180831161226157829003601f168201915b5050505050815260200160068201805461229790613c6d565b80601f01602080910402602001604051908101604052809291908181526020018280546122c390613c6d565b80156123105780601f106122e557610100808354040283529160200191612310565b820191906000526020600020905b8154815290600101906020018083116122f357829003601f168201915b5050505050815260200160078201805461232990613c6d565b80601f016020809104026020016040519081016040528092919081815260200182805461235590613c6d565b80156123a25780601f10612377576101008083540402835291602001916123a2565b820191906000526020600020905b81548152906001019060200180831161238557829003601f168201915b505050505081526020016008820180546123bb90613c6d565b80601f01602080910402602001604051908101604052809291908181526020018280546123e790613c6d565b80156124345780601f1061240957610100808354040283529160200191612434565b820191906000526020600020905b81548152906001019060200180831161241757829003601f168201915b5050505050815260200160098201805461244d90613c6d565b80601f016020809104026020016040519081016040528092919081815260200182805461247990613c6d565b80156124c65780601f1061249b576101008083540402835291602001916124c6565b820191906000526020600020905b8154815290600101906020018083116124a957829003601f168201915b5050509183525050600a8201546001600160a01b03166020820152600b820180546040909201916124f690613c6d565b80601f016020809104026020016040519081016040528092919081815260200182805461252290613c6d565b801561256f5780601f106125445761010080835404028352916020019161256f565b820191906000526020600020905b81548152906001019060200180831161255257829003601f168201915b50505050508152602001600c8201805461258890613c6d565b80601f01602080910402602001604051908101604052809291908181526020018280546125b490613c6d565b80156126015780601f106125d657610100808354040283529160200191612601565b820191906000526020600020905b8154815290600101906020018083116125e457829003601f168201915b5050505050815250509050919050565b6060600b826040516126239190613c40565b9081526020016040518091039020805480602002602001604051908101604052809291908181526020016000905b828210156114ad57838290600052602060002001805461267090613c6d565b80601f016020809104026020016040519081016040528092919081815260200182805461269c90613c6d565b80156126e95780601f106126be576101008083540402835291602001916126e9565b820191906000526020600020905b8154815290600101906020018083116126cc57829003601f168201915b505050505081526020019060010190612651565b60606005805480602002602001604051908101604052809291908181526020016000905b82821015611ce9576000848152602090819020604080516101a08101909152600d850290910180546001600160a01b03168252600181018054929391929184019161276b90613c6d565b80601f016020809104026020016040519081016040528092919081815260200182805461279790613c6d565b80156127e45780601f106127b9576101008083540402835291602001916127e4565b820191906000526020600020905b8154815290600101906020018083116127c757829003601f168201915b505050505081526020016002820154815260200160038201805461280790613c6d565b80601f016020809104026020016040519081016040528092919081815260200182805461283390613c6d565b80156128805780601f1061285557610100808354040283529160200191612880565b820191906000526020600020905b81548152906001019060200180831161286357829003601f168201915b50505050508152602001600482015481526020016005820180546128a390613c6d565b80601f01602080910402602001604051908101604052809291908181526020018280546128cf90613c6d565b801561291c5780601f106128f15761010080835404028352916020019161291c565b820191906000526020600020905b8154815290600101906020018083116128ff57829003601f168201915b5050505050815260200160068201805461293590613c6d565b80601f016020809104026020016040519081016040528092919081815260200182805461296190613c6d565b80156129ae5780601f10612983576101008083540402835291602001916129ae565b820191906000526020600020905b81548152906001019060200180831161299157829003601f168201915b505050505081526020016007820180546129c790613c6d565b80601f01602080910402602001604051908101604052809291908181526020018280546129f390613c6d565b8015612a405780601f10612a1557610100808354040283529160200191612a40565b820191906000526020600020905b815481529060010190602001808311612a2357829003601f168201915b50505050508152602001600882018054612a5990613c6d565b80601f0160208091040260200160405190810160405280929190818152602001828054612a8590613c6d565b8015612ad25780601f10612aa757610100808354040283529160200191612ad2565b820191906000526020600020905b815481529060010190602001808311612ab557829003601f168201915b50505050508152602001600982018054612aeb90613c6d565b80601f0160208091040260200160405190810160405280929190818152602001828054612b1790613c6d565b8015612b645780601f10612b3957610100808354040283529160200191612b64565b820191906000526020600020905b815481529060010190602001808311612b4757829003601f168201915b5050509183525050600a8201546001600160a01b03166020820152600b82018054604090920191612b9490613c6d565b80601f0160208091040260200160405190810160405280929190818152602001828054612bc090613c6d565b8015612c0d5780601f10612be257610100808354040283529160200191612c0d565b820191906000526020600020905b815481529060010190602001808311612bf057829003601f168201915b50505050508152602001600c82018054612c2690613c6d565b80601f0160208091040260200160405190810160405280929190818152602001828054612c5290613c6d565b8015612c9f5780601f10612c7457610100808354040283529160200191612c9f565b820191906000526020600020905b815481529060010190602001808311612c8257829003601f168201915b50505050508152505081526020019060010190612721565b508054612cc390613c6d565b6000825580601f10612cd3575050565b601f016020900490600052602060002090810190612cf19190612cf4565b50565b5b80821115612d095760008155600101612cf5565b5090565b634e487b7160e01b600052604160045260246000fd5b604080519081016001600160401b0381118282101715612d4557612d45612d0d565b60405290565b604051601f8201601f191681016001600160401b0381118282101715612d7357612d73612d0d565b604052919050565b600082601f830112612d8c57600080fd5b81356001600160401b03811115612da557612da5612d0d565b612db8601f8201601f1916602001612d4b565b818152846020838601011115612dcd57600080fd5b816020850160208301376000918101602001919091529392505050565b60008060408385031215612dfd57600080fd5b82356001600160401b0380821115612e1457600080fd5b612e2086838701612d7b565b93506020850135915080821115612e3657600080fd5b50612e4385828601612d7b565b9150509250929050565b6020808252825182820181905260009190848201906040850190845b81811015612e8e5783516001600160a01b031683529284019291840191600101612e69565b50909695505050505050565b60008060008060008060008060008060006101608c8e031215612ebc57600080fd5b6001600160401b03808d351115612ed257600080fd5b612edf8e8e358f01612d7b565b9b5060208d01359a508060408e01351115612ef957600080fd5b612f098e60408f01358f01612d7b565b995060608d013598508060808e01351115612f2357600080fd5b612f338e60808f01358f01612d7b565b97508060a08e01351115612f4657600080fd5b612f568e60a08f01358f01612d7b565b96508060c08e01351115612f6957600080fd5b612f798e60c08f01358f01612d7b565b95508060e08e01351115612f8c57600080fd5b612f9c8e60e08f01358f01612d7b565b9450806101008e01351115612fb057600080fd5b612fc18e6101008f01358f01612d7b565b9350806101208e01351115612fd557600080fd5b612fe68e6101208f01358f01612d7b565b9250806101408e01351115612ffa57600080fd5b5061300c8d6101408e01358e01612d7b565b90509295989b509295989b9093969950565b80356001600160a01b038116811461303557600080fd5b919050565b6000806000806080858703121561305057600080fd5b6130598561301e565b935060208501356001600160401b038082111561307557600080fd5b61308188838901612d7b565b9450604087013591508082111561309757600080fd5b6130a388838901612d7b565b935060608701359150808211156130b957600080fd5b506130c687828801612d7b565b91505092959194509250565b600080600080600080600060e0888a0312156130ed57600080fd5b87356001600160401b038082111561310457600080fd5b6131108b838c01612d7b565b985060208a013591508082111561312657600080fd5b6131328b838c01612d7b565b975060408a013591508082111561314857600080fd5b6131548b838c01612d7b565b965060608a013591508082111561316a57600080fd5b6131768b838c01612d7b565b955060808a013591508082111561318c57600080fd5b6131988b838c01612d7b565b945060a08a01359150808211156131ae57600080fd5b6131ba8b838c01612d7b565b935060c08a01359150808211156131d057600080fd5b506131dd8a828b01612d7b565b91505092959891949750929550565b600080600080600060a0868803121561320457600080fd5b85356001600160401b038082111561321b57600080fd5b61322789838a01612d7b565b9650602088013591508082111561323d57600080fd5b61324989838a01612d7b565b9550604088013591508082111561325f57600080fd5b61326b89838a01612d7b565b9450606088013591508082111561328157600080fd5b61328d89838a01612d7b565b935060808801359150808211156132a357600080fd5b506132b088828901612d7b565b9150509295509295909350565b600080600080600080600080610100898b0312156132da57600080fd5b6132e38961301e565b97506132f160208a0161301e565b965060408901356001600160401b038082111561330d57600080fd5b6133198c838d01612d7b565b975060608b013591508082111561332f57600080fd5b61333b8c838d01612d7b565b965060808b013591508082111561335157600080fd5b61335d8c838d01612d7b565b955060a08b013591508082111561337357600080fd5b61337f8c838d01612d7b565b945060c08b013591508082111561339557600080fd5b6133a18c838d01612d7b565b935060e08b01359150808211156133b757600080fd5b506133c48b828c01612d7b565b9150509295985092959890939650565b600080600080608085870312156133ea57600080fd5b84356001600160401b038082111561340157600080fd5b61340d88838901612d7b565b9550602087013591508082111561307557600080fd5b60006001600160401b0382111561343c5761343c612d0d565b5060051b60200190565b600080604080848603121561345a57600080fd5b83356001600160401b038082111561347157600080fd5b61347d87838801612d7b565b945060209150818601358181111561349457600080fd5b8601601f810188136134a557600080fd5b80356134b86134b382613423565b612d4b565b81815260059190911b8201840190848101908a8311156134d757600080fd5b8584015b83811015613567578035868111156134f35760008081fd5b8501808d03601f19018913156135095760008081fd5b613511612d23565b88820135888111156135235760008081fd5b6135318f8b83860101612d7b565b82525089820135888111156135465760008081fd5b6135548f8b83860101612d7b565b828b0152508452509186019186016134db565b50809750505050505050509250929050565b60006020828403121561358b57600080fd5b81356001600160401b038111156135a157600080fd5b6135ad84828501612d7b565b949350505050565b60005b838110156135d05781810151838201526020016135b8565b50506000910152565b600081518084526135f18160208601602086016135b5565b601f01601f19169290920160200192915050565b60006020808301818452808551808352604092508286019150828160051b87010184880160005b8381101561367c57888303603f1901855281518051878552613650888601826135d9565b91890151858303868b015291905061366881836135d9565b96890196945050509086019060010161362c565b509098975050505050505050565b600082601f83011261369b57600080fd5b813560206136ab6134b383613423565b82815260059290921b840181019181810190868411156136ca57600080fd5b8286015b848110156137095780356001600160401b038111156136ed5760008081fd5b6136fb8986838b0101612d7b565b8452509183019183016136ce565b509695505050505050565b6000806000806080858703121561372a57600080fd5b84356001600160401b038082111561374157600080fd5b61374d88838901612d7b565b955060209150818701358181111561376457600080fd5b8701601f8101891361377557600080fd5b80356137836134b382613423565b81815260059190911b8201840190848101908b8311156137a257600080fd5b928501925b828410156137c7576137b88461301e565b825292850192908501906137a7565b975050505060408701359150808211156137e057600080fd5b6137ec8883890161368a565b9350606087013591508082111561380257600080fd5b506130c68782880161368a565b60006020808301818452808551808352604092508286019150828160051b87010184880160005b8381101561367c57888303603f19018552815180516001600160a01b03168452610120818901516001600160a01b038116868b0152508782015188860152606080830151828288015261388b838801826135d9565b92505050608080830151868303828801526138a683826135d9565b9250505060a080830151868303828801526138c183826135d9565b9250505060c080830151868303828801526138dc83826135d9565b9250505060e080830151868303828801526138f783826135d9565b92505050610100808301519250858203818701525061391681836135d9565b968901969450505090860190600101613836565b6000806040838503121561393d57600080fd5b6139468361301e565b915060208301356001600160401b0381111561396157600080fd5b612e4385828601612d7b565b60208152600061398060208301846135d9565b9392505050565b60006020808301818452808551808352604092508286019150828160051b87010184880160005b8381101561367c57888303603f19018552815180516001600160a01b0316845287810151888501528681015160a0888601819052906139ef828701826135d9565b91505060608083015186830382880152613a0983826135d9565b9250505060808083015192508582038187015250613a2781836135d9565b9689019694505050908601906001016139ae565b80516001600160a01b0316825260006101a06020830151816020860152613a64828601826135d9565b9150506040830151604085015260608301518482036060860152613a8882826135d9565b9150506080830151608085015260a083015184820360a0860152613aac82826135d9565b91505060c083015184820360c0860152613ac682826135d9565b91505060e083015184820360e0860152613ae082826135d9565b9150506101008084015185830382870152613afb83826135d9565b925050506101208084015185830382870152613b1783826135d9565b9250505061014080840151613b36828701826001600160a01b03169052565b50506101608084015185830382870152613b5083826135d9565b925050506101808084015185830382870152613b6c83826135d9565b9695505050505050565b6020815260006139806020830184613a3b565b6000602080830181845280855180835260408601915060408160051b870101925083870160005b82811015613bde57603f19888603018452613bcc8583516135d9565b94509285019290850190600101613bb0565b5092979650505050505050565b6000602080830181845280855180835260408601915060408160051b870101925083870160005b82811015613bde57603f19888603018452613c2e858351613a3b565b94509285019290850190600101613c12565b60008251613c528184602087016135b5565b9190910192915050565b6418dbdd5c9d60da1b815260050190565b600181811c90821680613c8157607f821691505b602082108103613ca157634e487b7160e01b600052602260045260246000fd5b50919050565b6000808354613cb581613c6d565b60018281168015613ccd5760018114613ce257613d11565b60ff1984168752821515830287019450613d11565b8760005260208060002060005b85811015613d085781548a820152908401908201613cef565b50505082870194505b50929695505050505050565b6020808252600e908201526d139bdd08185d5d1a1bdc9a5e995960921b604082015260600190565b601f821115610dab57600081815260208120601f850160051c81016020861015613d6c5750805b601f850160051c820191505b8181101561114657828155600101613d78565b81516001600160401b03811115613da457613da4612d0d565b613db881613db28454613c6d565b84613d45565b602080601f831160018114613ded5760008415613dd55750858301515b600019600386901b1c1916600185901b178555611146565b600085815260208120601f198616915b82811015613e1c57888601518255948401946001909101908401613dfd565b5085821015613e3a5787850151600019600388901b60f8161c191681555b5050505050600190811b01905550565b634e487b7160e01b600052601160045260246000fd5b600060018201613e7257613e72613e4a565b5060010190565b8181038181111561038f5761038f613e4a565b634e487b7160e01b600052603260045260246000fd5b818103613ead575050565b613eb78254613c6d565b6001600160401b03811115613ece57613ece612d0d565b613edc81613db28454613c6d565b6000601f821160018114613f105760008315613ef85750848201545b600019600385901b1c1916600184901b1784556107a6565b600085815260209020601f19841690600086815260209020845b83811015613f4a5782860154825560019586019590910190602001613f2a565b5085831015613e3a5793015460001960f8600387901b161c19169092555050600190811b01905550565b634e487b7160e01b600052603160045260246000fdfea264697066735822122066b6fbe6e97890026e3fd31866ab32587bbfbf36b3c638cc46103b7aeee5425e64736f6c63430008130033",
  "immutableReferences": {},
  "source": "// SPDX-License-Identifier: GPL-3.0\r\n\r\npragma solidity >=0.8.2 <0.9.0;\r\n\r\n/**\r\n * @title Storage\r\n * @dev Store & retrieve value in a variable\r\n * @custom:dev-run-script ./scripts/deploy_with_ethers.ts\r\n */\r\ncontract LawVertex {\r\n\r\n  // constructor() payable {}\r\n  // receive() external payable {}\r\n\r\n  address public contractOwner;\r\n  address private admin;\r\n  uint public caseCount;\r\n\r\n  constructor() {\r\n    contractOwner = msg.sender;\r\n    admin = msg.sender;\r\n    caseCount = 0;\r\n  }\r\n\r\n  struct ActStruct{\r\n    string name;\r\n    string section;\r\n  } \r\n\r\n  struct CaseInfo {\r\n    uint _id;\r\n    string pet;\r\n    string res;\r\n\r\n    //FIR Details\r\n    string police_station;\r\n    string fir_no;\r\n    string year;\r\n    string loc;\r\n  }\r\n\r\n  struct Case {\r\n    //Case Details\r\n    address owner;\r\n    string case_type;\r\n    uint filing_no;\r\n    string filing_date;\r\n    uint reg_no;\r\n    string reg_date;\r\n    string cnr;\r\n\r\n    //Case Status\r\n    string first_hearing;\r\n    string next_hearing;\r\n    string stage;\r\n    address court_address;\r\n    string court_no;\r\n    string judge;\r\n  }\r\n  \r\n  struct Court {\r\n    address owner;\r\n    uint slno;\r\n    string name;\r\n    string location;\r\n    string tel;\r\n  }\r\n\r\n  struct Party {\r\n    address owner;\r\n    address lead_adv_add;\r\n    uint slno;\r\n    string name;\r\n    string cnr;\r\n    string location;\r\n    string email;\r\n    string phone;\r\n    string lead_adv;\r\n  }\r\n\r\n  Court[] courts;\r\n  Party[] parties;\r\n  Case[] cases;\r\n  \r\n\r\n  mapping(string => uint256) cnr_cases; //cnr->case\r\n  mapping(string => CaseInfo) infos; //cnr->case_info\r\n  mapping(string => string) status; //cnr->status\r\n  mapping(string => ActStruct[]) acts;\r\n  mapping(address => string) roles;\r\n  mapping(string => string[]) docs; //cnr -> documents\r\n  \r\n  mapping(string => mapping(string => address[])) adv; //cnr -> party -> advocate addresses\r\n  mapping(address => string[]) adv_cases;  //advAddress -> cnrs\r\n  mapping(address => mapping(string => string)) adv_role; //advAddress -> cnr -> role\r\n\r\n\r\n  function getAllCourts () external view returns (Court[] memory){\r\n    return courts;\r\n  } \r\n\r\n  function getActs (string memory _cnr) external view returns(ActStruct[] memory){\r\n    return acts[_cnr];\r\n  }\r\n\r\n  function getAdvocate (string memory _cnr, string memory _party) external view returns(address[] memory){\r\n    return adv[_cnr][_party];\r\n  }\r\n\r\n  function getAdocateRole (address _advAddress, string memory _cnr) external view returns(string memory){\r\n    return adv_role[_advAddress][_cnr];\r\n  }\r\n  \r\n  function getAllParties () external view returns (Party[] memory){\r\n    return parties;\r\n  }\r\n\r\n  function getAllCases () external view returns (Case[] memory){\r\n    return cases;\r\n  }\r\n\r\n  function addCourt(\r\n    address _owner,\r\n    string memory _name,\r\n    string memory _location,\r\n    string memory _tel\r\n  ) external {\r\n    require(msg.sender==admin, \"Not authorized\");\r\n    courts.push(Court(_owner,courts.length,_name,_location,_tel));\r\n    roles[_owner] = \"court\";\r\n  }\r\n\r\n  function addParty(\r\n    address _owner,\r\n    address _lead_adv_add,\r\n    string memory _name,\r\n    string memory _cnr,\r\n    string memory _location,\r\n    string memory _email,\r\n    string memory _phone,\r\n    string memory _lead_adv\r\n  ) external {\r\n    require(keccak256(abi.encodePacked(roles[msg.sender])) == keccak256(abi.encodePacked(\"court\")), \"Not authorized\");\r\n    parties.push(Party(_owner,_lead_adv_add,parties.length,_name,_cnr,_location,_email,_phone,_lead_adv));\r\n    roles[_owner] = \"party\";\r\n  }\r\n\r\n  function addCase(\r\n    //Case Details\r\n    string memory _case_type,\r\n    uint _filing_no,\r\n    string memory _filing_date,\r\n    uint _reg_no,\r\n    string memory _reg_date,\r\n    string memory _cnr,\r\n\r\n    //  Case Status\r\n    string memory _first_hearing,\r\n    string memory _next_hearing,\r\n    string memory _stage,\r\n    string memory _court_no,\r\n    string memory _judge\r\n  ) external {\r\n\r\n    require(keccak256(abi.encodePacked(roles[msg.sender])) == keccak256(abi.encodePacked(\"court\")), \"Not authorized\");\r\n    cases.push(Case(msg.sender,_case_type,_filing_no,_filing_date,_reg_no,_reg_date,_cnr,_first_hearing,_next_hearing,_stage,\r\n      msg.sender,\r\n      _court_no,\r\n      _judge\r\n    ));\r\n\r\n    cnr_cases[_cnr]=caseCount;\r\n    \r\n    caseCount++;\r\n  }\r\n\r\n  function viewCase(string memory _cnr) external view returns (Case memory){\r\n    return cases[cnr_cases[_cnr]];\r\n  }\r\n\r\n  function addAct(\r\n    string memory _cnr,\r\n    ActStruct[] memory _acts\r\n  )external{\r\n    require(keccak256(abi.encodePacked(roles[msg.sender])) == keccak256(abi.encodePacked(\"court\")), \"Not authorized\");\r\n\r\n    while(acts[_cnr].length!=0){\r\n      acts[_cnr].pop();\r\n    }\r\n\r\n    for(uint i=0;i<_acts.length;i++){\r\n      acts[_cnr].push(ActStruct(_acts[i].name,_acts[i].section));\r\n    }\r\n  }\r\n\r\n\r\n\r\n  function updateAdvocates(\r\n    string memory _cnr,\r\n    address[] memory _adv_addresses,\r\n    string[] memory _parties,\r\n    string[] memory _roles\r\n  )external{\r\n    require(cases[cnr_cases[_cnr]].court_address==msg.sender && keccak256(abi.encodePacked(roles[msg.sender])) == keccak256(abi.encodePacked(\"court\")), \"Not authorized\");\r\n    require(_adv_addresses.length==_roles.length, \"Incorrect input format\");\r\n\r\n    for(uint i=0;i<adv[_cnr][\"pet\"].length;i++){\r\n      adv[_cnr][\"pet\"].pop();\r\n    }\r\n    for(uint i=0;i<adv[_cnr][\"res\"].length;i++){\r\n      adv[_cnr][\"res\"].pop();\r\n    }\r\n\r\n    for(uint i=0;i<_roles.length;i++){\r\n      adv[_cnr][_parties[i]].push(_adv_addresses[i]);\r\n      adv_cases[_adv_addresses[i]].push(_cnr);\r\n      adv_role[_adv_addresses[i]][_cnr]=_roles[i];\r\n    }\r\n\r\n  }\r\n\r\n  function updateCase(\r\n    //  Case Status\r\n    string memory _cnr,\r\n    string memory _next_hearing,\r\n    string memory _stage,\r\n    string memory _court_no,\r\n    string memory _judge\r\n  ) external {\r\n\r\n    Case storage newCase = cases[cnr_cases[_cnr]];\r\n\r\n    require(newCase.court_address==msg.sender && keccak256(abi.encodePacked(roles[msg.sender])) == keccak256(abi.encodePacked(\"court\")), \"Not authorized\");\r\n\r\n    newCase.next_hearing = _next_hearing;\r\n    newCase.stage = _stage;\r\n    newCase.court_no = _court_no;\r\n    newCase.judge = _judge;\r\n\r\n    newCase.next_hearing = _next_hearing;\r\n    newCase.stage = _stage;\r\n    newCase.court_no = _court_no;\r\n    newCase.judge = _judge;\r\n\r\n    for (uint j = 0; j < cases.length; j++) {\r\n        if(keccak256(abi.encodePacked(cases[j].cnr)) == keccak256(abi.encodePacked(_cnr))){\r\n            cases[j] = newCase;\r\n            break;\r\n        }\r\n    }\r\n  }\r\n\r\n  function addCaseInfo(\r\n    string memory _pet,\r\n    string memory _res,\r\n    string memory _status,\r\n    string memory _police_station,\r\n    string memory _fir_no,\r\n    string memory _year,\r\n    string memory _loc\r\n  ) external {\r\n    \r\n    CaseInfo storage newCaseInfo = infos[cases[caseCount-1].cnr];\r\n    require(cases[caseCount-1].court_address==msg.sender && keccak256(abi.encodePacked(roles[msg.sender])) == keccak256(abi.encodePacked(\"court\")), \"Not authorized\");\r\n\r\n    newCaseInfo._id = caseCount-1;\r\n    status[cases[caseCount-1].cnr]=_status;\r\n    newCaseInfo.pet =_pet;\r\n    newCaseInfo.res =_res;\r\n    newCaseInfo.police_station =_police_station;\r\n    newCaseInfo.fir_no =_fir_no;\r\n    newCaseInfo.year =_year;\r\n    newCaseInfo.loc =_loc;\r\n  }\r\n\r\n  function updateCaseInfo(\r\n    string memory _cnr,\r\n    string memory _pet,\r\n    string memory _status,\r\n    string memory _res\r\n  ) external {\r\n    require(cases[cnr_cases[_cnr]].court_address==msg.sender && keccak256(abi.encodePacked(roles[msg.sender])) == keccak256(abi.encodePacked(\"court\")), \"Not authorized\");\r\n\r\n    CaseInfo storage newCaseInfo = infos[_cnr];\r\n\r\n    newCaseInfo.pet =_pet;\r\n    status[_cnr]=_status;\r\n    newCaseInfo.res =_res;\r\n  }\r\n\r\n\r\n  function addPublicDocument(string memory _cnr,string memory _url) external {\r\n      require(msg.sender==cases[cnr_cases[_cnr]].owner, \"You don't have permission to publish public documents\");\r\n      docs[_cnr].push(_url);\r\n  }\r\n\r\n  function displayPublicDocuments(string memory _cnr) external view returns(string[] memory){\r\n      return docs[_cnr];\r\n  }\r\n}",
  "sourcePath": "C:\\Users\\Aprameya\\Desktop\\LawVertex\\web3\\contracts\\LawVertex.sol",
  "compiler": {
    "name": "solc",
    "version": "0.8.19+commit.7dd6d404.Emscripten.clang"
  },
  "schemaVersion": "3.4.16",
  "updatedAt": "2024-04-24T08:54:18.228Z",
  "devdoc": {
    "custom:dev-run-script": "./scripts/deploy_with_ethers.ts",
    "details": "Store & retrieve value in a variable",
    "kind": "dev",
    "methods": {},
    "title": "Storage",
    "version": 1
  },
  "userdoc": {
    "kind": "user",
    "methods": {},
    "version": 1
  }
}