{
  "contractName": "LawVertex",
  "abi": [
    {
      "inputs": [],
      "stateMutability": "nonpayable",
      "type": "constructor"
    },
    {
      "inputs": [],
      "name": "caseCount",
      "outputs": [
        {
          "internalType": "uint256",
          "name": "",
          "type": "uint256"
        }
      ],
      "stateMutability": "view",
      "type": "function",
      "constant": true
    },
    {
      "inputs": [],
      "name": "contractOwner",
      "outputs": [
        {
          "internalType": "address",
          "name": "",
          "type": "address"
        }
      ],
      "stateMutability": "view",
      "type": "function",
      "constant": true
    },
    {
      "inputs": [
        {
          "internalType": "string",
          "name": "",
          "type": "string"
        }
      ],
      "name": "infos",
      "outputs": [
        {
          "internalType": "uint256",
          "name": "_id",
          "type": "uint256"
        },
        {
          "internalType": "string",
          "name": "pet",
          "type": "string"
        },
        {
          "internalType": "string",
          "name": "res",
          "type": "string"
        },
        {
          "internalType": "string",
          "name": "police_station",
          "type": "string"
        },
        {
          "internalType": "string",
          "name": "fir_no",
          "type": "string"
        },
        {
          "internalType": "string",
          "name": "year",
          "type": "string"
        }
      ],
      "stateMutability": "view",
      "type": "function",
      "constant": true
    },
    {
      "inputs": [
        {
          "internalType": "address",
          "name": "",
          "type": "address"
        }
      ],
      "name": "roles",
      "outputs": [
        {
          "internalType": "string",
          "name": "",
          "type": "string"
        }
      ],
      "stateMutability": "view",
      "type": "function",
      "constant": true
    },
    {
      "inputs": [],
      "name": "getAllCourts",
      "outputs": [
        {
          "components": [
            {
              "internalType": "address",
              "name": "owner",
              "type": "address"
            },
            {
              "internalType": "string",
              "name": "court_type",
              "type": "string"
            },
            {
              "internalType": "uint256",
              "name": "slno",
              "type": "uint256"
            },
            {
              "internalType": "string",
              "name": "name",
              "type": "string"
            },
            {
              "internalType": "string",
              "name": "location",
              "type": "string"
            },
            {
              "internalType": "string",
              "name": "tel",
              "type": "string"
            }
          ],
          "internalType": "struct LawVertex.Court[]",
          "name": "",
          "type": "tuple[]"
        }
      ],
      "stateMutability": "view",
      "type": "function",
      "constant": true
    },
    {
      "inputs": [
        {
          "internalType": "string",
          "name": "_cnr",
          "type": "string"
        }
      ],
      "name": "getActs",
      "outputs": [
        {
          "components": [
            {
              "internalType": "string",
              "name": "name",
              "type": "string"
            },
            {
              "internalType": "string",
              "name": "section",
              "type": "string"
            }
          ],
          "internalType": "struct LawVertex.ActStruct[]",
          "name": "",
          "type": "tuple[]"
        }
      ],
      "stateMutability": "view",
      "type": "function",
      "constant": true
    },
    {
      "inputs": [
        {
          "internalType": "string",
          "name": "_cnr",
          "type": "string"
        }
      ],
      "name": "getHistory",
      "outputs": [
        {
          "components": [
            {
              "internalType": "string",
              "name": "judge",
              "type": "string"
            },
            {
              "internalType": "string",
              "name": "date",
              "type": "string"
            },
            {
              "internalType": "string",
              "name": "next_hearing_date",
              "type": "string"
            },
            {
              "internalType": "string",
              "name": "next_hearing_purpose",
              "type": "string"
            },
            {
              "internalType": "string",
              "name": "business",
              "type": "string"
            },
            {
              "internalType": "string",
              "name": "presentee",
              "type": "string"
            }
          ],
          "internalType": "struct LawVertex.History[]",
          "name": "",
          "type": "tuple[]"
        }
      ],
      "stateMutability": "view",
      "type": "function",
      "constant": true
    },
    {
      "inputs": [],
      "name": "getAllCases",
      "outputs": [
        {
          "components": [
            {
              "internalType": "address",
              "name": "owner",
              "type": "address"
            },
            {
              "internalType": "string",
              "name": "case_type",
              "type": "string"
            },
            {
              "internalType": "uint256",
              "name": "filing_no",
              "type": "uint256"
            },
            {
              "internalType": "string",
              "name": "filing_date",
              "type": "string"
            },
            {
              "internalType": "uint256",
              "name": "reg_no",
              "type": "uint256"
            },
            {
              "internalType": "string",
              "name": "reg_date",
              "type": "string"
            },
            {
              "internalType": "string",
              "name": "cnr",
              "type": "string"
            },
            {
              "internalType": "string",
              "name": "first_hearing",
              "type": "string"
            },
            {
              "internalType": "string",
              "name": "next_hearing",
              "type": "string"
            },
            {
              "internalType": "string",
              "name": "stage",
              "type": "string"
            },
            {
              "internalType": "string",
              "name": "court_no",
              "type": "string"
            },
            {
              "internalType": "string",
              "name": "judge",
              "type": "string"
            }
          ],
          "internalType": "struct LawVertex.Case[]",
          "name": "",
          "type": "tuple[]"
        }
      ],
      "stateMutability": "view",
      "type": "function",
      "constant": true
    },
    {
      "inputs": [
        {
          "internalType": "address",
          "name": "_owner",
          "type": "address"
        },
        {
          "internalType": "string",
          "name": "_court_type",
          "type": "string"
        },
        {
          "internalType": "string",
          "name": "_name",
          "type": "string"
        },
        {
          "internalType": "string",
          "name": "_location",
          "type": "string"
        },
        {
          "internalType": "string",
          "name": "_tel",
          "type": "string"
        }
      ],
      "name": "addCourt",
      "outputs": [],
      "stateMutability": "nonpayable",
      "type": "function"
    },
    {
      "inputs": [
        {
          "internalType": "string",
          "name": "_cnr",
          "type": "string"
        },
        {
          "internalType": "string",
          "name": "_party",
          "type": "string"
        },
        {
          "internalType": "string",
          "name": "_name",
          "type": "string"
        },
        {
          "internalType": "string",
          "name": "_lead_adv",
          "type": "string"
        },
        {
          "internalType": "string",
          "name": "_location",
          "type": "string"
        }
      ],
      "name": "addParty",
      "outputs": [],
      "stateMutability": "nonpayable",
      "type": "function"
    },
    {
      "inputs": [
        {
          "internalType": "string",
          "name": "_case_type",
          "type": "string"
        },
        {
          "internalType": "uint256",
          "name": "_filing_no",
          "type": "uint256"
        },
        {
          "internalType": "string",
          "name": "_filing_date",
          "type": "string"
        },
        {
          "internalType": "uint256",
          "name": "_reg_no",
          "type": "uint256"
        },
        {
          "internalType": "string",
          "name": "_reg_date",
          "type": "string"
        },
        {
          "internalType": "string",
          "name": "_cnr",
          "type": "string"
        },
        {
          "internalType": "string",
          "name": "_first_hearing",
          "type": "string"
        },
        {
          "internalType": "string",
          "name": "_next_hearing",
          "type": "string"
        },
        {
          "internalType": "string",
          "name": "_stage",
          "type": "string"
        },
        {
          "internalType": "string",
          "name": "_court_no",
          "type": "string"
        },
        {
          "internalType": "string",
          "name": "_judge",
          "type": "string"
        }
      ],
      "name": "addCase",
      "outputs": [],
      "stateMutability": "nonpayable",
      "type": "function"
    },
    {
      "inputs": [
        {
          "internalType": "string",
          "name": "_cnr",
          "type": "string"
        }
      ],
      "name": "viewCase",
      "outputs": [
        {
          "components": [
            {
              "internalType": "address",
              "name": "owner",
              "type": "address"
            },
            {
              "internalType": "string",
              "name": "case_type",
              "type": "string"
            },
            {
              "internalType": "uint256",
              "name": "filing_no",
              "type": "uint256"
            },
            {
              "internalType": "string",
              "name": "filing_date",
              "type": "string"
            },
            {
              "internalType": "uint256",
              "name": "reg_no",
              "type": "uint256"
            },
            {
              "internalType": "string",
              "name": "reg_date",
              "type": "string"
            },
            {
              "internalType": "string",
              "name": "cnr",
              "type": "string"
            },
            {
              "internalType": "string",
              "name": "first_hearing",
              "type": "string"
            },
            {
              "internalType": "string",
              "name": "next_hearing",
              "type": "string"
            },
            {
              "internalType": "string",
              "name": "stage",
              "type": "string"
            },
            {
              "internalType": "string",
              "name": "court_no",
              "type": "string"
            },
            {
              "internalType": "string",
              "name": "judge",
              "type": "string"
            }
          ],
          "internalType": "struct LawVertex.Case",
          "name": "",
          "type": "tuple"
        }
      ],
      "stateMutability": "view",
      "type": "function",
      "constant": true
    },
    {
      "inputs": [
        {
          "internalType": "string",
          "name": "_cnr",
          "type": "string"
        },
        {
          "components": [
            {
              "internalType": "string",
              "name": "name",
              "type": "string"
            },
            {
              "internalType": "string",
              "name": "section",
              "type": "string"
            }
          ],
          "internalType": "struct LawVertex.ActStruct[]",
          "name": "_acts",
          "type": "tuple[]"
        }
      ],
      "name": "addAct",
      "outputs": [],
      "stateMutability": "nonpayable",
      "type": "function"
    },
    {
      "inputs": [
        {
          "internalType": "string",
          "name": "_cnr",
          "type": "string"
        },
        {
          "components": [
            {
              "internalType": "string",
              "name": "judge",
              "type": "string"
            },
            {
              "internalType": "string",
              "name": "date",
              "type": "string"
            },
            {
              "internalType": "string",
              "name": "next_hearing_date",
              "type": "string"
            },
            {
              "internalType": "string",
              "name": "next_hearing_purpose",
              "type": "string"
            },
            {
              "internalType": "string",
              "name": "business",
              "type": "string"
            },
            {
              "internalType": "string",
              "name": "presentee",
              "type": "string"
            }
          ],
          "internalType": "struct LawVertex.History[]",
          "name": "_histories",
          "type": "tuple[]"
        }
      ],
      "name": "addHistory",
      "outputs": [],
      "stateMutability": "nonpayable",
      "type": "function"
    },
    {
      "inputs": [
        {
          "internalType": "string",
          "name": "_cnr",
          "type": "string"
        },
        {
          "internalType": "string",
          "name": "_next_hearing",
          "type": "string"
        },
        {
          "internalType": "string",
          "name": "_stage",
          "type": "string"
        },
        {
          "internalType": "string",
          "name": "_court_no",
          "type": "string"
        },
        {
          "internalType": "string",
          "name": "_judge",
          "type": "string"
        }
      ],
      "name": "updateCase",
      "outputs": [],
      "stateMutability": "nonpayable",
      "type": "function"
    },
    {
      "inputs": [
        {
          "internalType": "string",
          "name": "_cnr",
          "type": "string"
        },
        {
          "internalType": "string",
          "name": "_pet",
          "type": "string"
        },
        {
          "internalType": "string",
          "name": "_res",
          "type": "string"
        },
        {
          "internalType": "string",
          "name": "_status",
          "type": "string"
        },
        {
          "internalType": "string",
          "name": "_police_station",
          "type": "string"
        },
        {
          "internalType": "string",
          "name": "_fir_no",
          "type": "string"
        },
        {
          "internalType": "string",
          "name": "_year",
          "type": "string"
        }
      ],
      "name": "addCaseInfo",
      "outputs": [],
      "stateMutability": "nonpayable",
      "type": "function"
    },
    {
      "inputs": [
        {
          "internalType": "string",
          "name": "_cnr",
          "type": "string"
        }
      ],
      "name": "getParties",
      "outputs": [
        {
          "components": [
            {
              "internalType": "string",
              "name": "party",
              "type": "string"
            },
            {
              "internalType": "string",
              "name": "name",
              "type": "string"
            },
            {
              "internalType": "string",
              "name": "lead_adv",
              "type": "string"
            },
            {
              "internalType": "string",
              "name": "location",
              "type": "string"
            }
          ],
          "internalType": "struct LawVertex.Party[]",
          "name": "",
          "type": "tuple[]"
        }
      ],
      "stateMutability": "view",
      "type": "function",
      "constant": true
    },
    {
      "inputs": [
        {
          "internalType": "string",
          "name": "_cnr",
          "type": "string"
        },
        {
          "internalType": "string",
          "name": "_name",
          "type": "string"
        },
        {
          "internalType": "string",
          "name": "_uploadedAt",
          "type": "string"
        },
        {
          "internalType": "string",
          "name": "_cid",
          "type": "string"
        },
        {
          "internalType": "string",
          "name": "_class",
          "type": "string"
        }
      ],
      "name": "addPublicDocument",
      "outputs": [],
      "stateMutability": "nonpayable",
      "type": "function"
    },
    {
      "inputs": [
        {
          "internalType": "string",
          "name": "_cnr",
          "type": "string"
        }
      ],
      "name": "viewPublicDocuments",
      "outputs": [
        {
          "components": [
            {
              "internalType": "string",
              "name": "name",
              "type": "string"
            },
            {
              "internalType": "string",
              "name": "uploadedAt",
              "type": "string"
            },
            {
              "internalType": "string",
              "name": "cid",
              "type": "string"
            },
            {
              "internalType": "string",
              "name": "class",
              "type": "string"
            }
          ],
          "internalType": "struct LawVertex.Document[]",
          "name": "",
          "type": "tuple[]"
        }
      ],
      "stateMutability": "view",
      "type": "function",
      "constant": true
    }
  ],
  "bytecode": "0x60806040523480156200001157600080fd5b5060008054336001600160a01b031991821681178355600180549092168117909155604080518082018252600581526430b236b4b760d91b602080830191909152928452600b909252909120906200006a908262000333565b506001600281905560408051610180810182523381528151602080820184526000808352818401928352838501819052845180830186528181526060850152608084018190528451808301865281815260a08501528451808601865260078152661a5b9d985b1a5960ca1b8184015260c08501528451808301865281815260e0850152845180830186528181526101008501528451808301865281815261012085015284518083018652818152610140850152845191820190945283815261016083015260048054948501815590925280517f8a35acfbc15ff81a39ae7d344fd709f28e8600b4aa8c65c6b64bfe7fe36bd19b600c90940293840180546001600160a01b0319166001600160a01b03909216919091178155915190927f8a35acfbc15ff81a39ae7d344fd709f28e8600b4aa8c65c6b64bfe7fe36bd19c0190620001b5908262000333565b506040820151600282015560608201516003820190620001d6908262000333565b506080820151600482015560a08201516005820190620001f7908262000333565b5060c082015160068201906200020e908262000333565b5060e0820151600782019062000225908262000333565b5061010082015160088201906200023d908262000333565b50610120820151600982019062000255908262000333565b50610140820151600a8201906200026d908262000333565b50610160820151600b82019062000285908262000333565b505050620003ff565b634e487b7160e01b600052604160045260246000fd5b600181811c90821680620002b957607f821691505b602082108103620002da57634e487b7160e01b600052602260045260246000fd5b50919050565b601f8211156200032e57600081815260208120601f850160051c81016020861015620003095750805b601f850160051c820191505b818110156200032a5782815560010162000315565b5050505b505050565b81516001600160401b038111156200034f576200034f6200028e565b6200036781620003608454620002a4565b84620002e0565b602080601f8311600181146200039f5760008415620003865750858301515b600019600386901b1c1916600185901b1785556200032a565b600085815260208120601f198616915b82811015620003d057888601518255948401946001909101908401620003af565b5085821015620003ef5787850151600019600388901b60f8161c191681555b5050505050600190811b01905550565b6140fa806200040f6000396000f3fe608060405234801561001057600080fd5b50600436106101215760003560e01c8063be14a977116100ad578063e360736e11610071578063e360736e14610290578063e3c5c3f5146102b0578063e569190f146102c5578063fa918c75146102e5578063fb40c22a1461030557600080fd5b8063be14a97714610215578063c392054514610228578063cd0ade351461023b578063ce606ee01461024e578063da2d7e951461027957600080fd5b806374e2e48d116100f457806374e2e48d146101745780637b973bd01461019d57806399374642146101c25780639ecbc8fc146101e2578063acc84cde1461020257600080fd5b80631401f7f9146101265780632a6d600c1461013b5780632c9bd3091461014e5780635ec0f98514610161575b600080fd5b610139610134366004613071565b61031a565b005b6101396101493660046131f5565b61058a565b61013961015c36600461330f565b610703565b61013961016f366004613403565b6109f7565b610187610182366004613536565b610bc5565b60405161019491906135c2565b60405180910390f35b6101b06101ab366004613536565b610d66565b60405161019496959493929190613647565b6101d56101d03660046136d7565b61104e565b60405161019491906136f9565b6101f56101f0366004613536565b6110e8565b6040516101949190613777565b61013961021036600461330f565b6113a2565b6101396102233660046137d9565b6114c2565b61013961023636600461330f565b61176c565b6101396102493660046139a1565b611833565b600054610261906001600160a01b031681565b6040516001600160a01b039091168152602001610194565b61028260025481565b604051908152602001610194565b6102a361029e366004613536565b6119ab565b60405161019491906139de565b6102b8611d89565b6040516101949190613ac2565b6102d86102d3366004613536565b612050565b6040516101949190613caf565b6102f86102f3366004613536565b6126bf565b6040516101949190613cc2565b61030d612979565b6040516101949190613d17565b60405160200161032990613d6c565b60408051601f198184030181528282528051602091820120336000908152600b835292909220919261035c929101613db7565b60405160208183030381529060405280519060200120146103985760405162461bcd60e51b815260040161038f90613e2d565b60405180910390fd5b6040805161018081018252338152602081018d81529181018c9052606081018b9052608081018a905260a0810189905260c0810188905260e0810187905261010081018690526101208101859052610140810184905261016081018390526004805460018101825560009190915281517f8a35acfbc15ff81a39ae7d344fd709f28e8600b4aa8c65c6b64bfe7fe36bd19b600c90920291820180546001600160a01b0319166001600160a01b0390921691909117815592519192917f8a35acfbc15ff81a39ae7d344fd709f28e8600b4aa8c65c6b64bfe7fe36bd19c909101906104829082613e9b565b5060408201516002820155606082015160038201906104a19082613e9b565b506080820151600482015560a082015160058201906104c09082613e9b565b5060c082015160068201906104d59082613e9b565b5060e082015160078201906104ea9082613e9b565b5061010082015160088201906105009082613e9b565b5061012082015160098201906105169082613e9b565b50610140820151600a82019061052c9082613e9b565b50610160820151600b8201906105429082613e9b565b5050506002546005876040516105589190613f5a565b908152604051908190036020019020556002805490600061057883613f8c565b91905055505050505050505050505050565b600060068860405161059c9190613f5a565b90815260200160405180910390209050336001600160a01b0316600460016002546105c79190613fa5565b815481106105d7576105d7613fbe565b60009182526020909120600c90910201546001600160a01b0316148015610653575060405160200161060890613d6c565b60408051601f198184030181528282528051602091820120336000908152600b835292909220919261063b929101613db7565b60405160208183030381529060405280519060200120145b61066f5760405162461bcd60e51b815260040161038f90613e2d565b600160025461067e9190613fa5565b81556040518590600790610693908b90613f5a565b908152602001604051809103902090816106ad9190613e9b565b50600181016106bc8882613e9b565b50600281016106cb8782613e9b565b50600381016106da8582613e9b565b50600481016106e98482613e9b565b50600581016106f88382613e9b565b505050505050505050565b600060046005876040516107179190613f5a565b9081526020016040518091039020548154811061073657610736613fbe565b60009182526020909120600c9091020180549091506001600160a01b0316331480156107b7575060405160200161076c90613d6c565b60408051601f198184030181528282528051602091820120336000908152600b835292909220919261079f929101613db7565b60405160208183030381529060405280519060200120145b6107d35760405162461bcd60e51b815260040161038f90613e2d565b600881016107e18682613e9b565b50600981016107f08582613e9b565b50600a81016107ff8482613e9b565b50600b810161080e8382613e9b565b506008810161081d8682613e9b565b506009810161082c8582613e9b565b50600a810161083b8482613e9b565b50600b810161084a8382613e9b565b5060005b6004548110156109ee57866040516020016108699190613f5a565b604051602081830303815290604052805190602001206004828154811061089257610892613fbe565b90600052602060002090600c02016006016040516020016108b39190613db7565b60405160208183030381529060405280519060200120036109dc5781600482815481106108e2576108e2613fbe565b600091825260209091208254600c9092020180546001600160a01b0319166001600160a01b0390921691909117815560018082019061092390840182613fd4565b5060028201548160020155600382018160030190816109429190613fd4565b5060048201548160040155600582018160050190816109619190613fd4565b5060068181019061097490840182613fd4565b5060078181019061098790840182613fd4565b5060088181019061099a90840182613fd4565b506009818101906109ad90840182613fd4565b50600a818101906109c090840182613fd4565b50600b818101906109d390840182613fd4565b509050506109ee565b806109e681613f8c565b91505061084e565b50505050505050565b604051602001610a0690613d6c565b60408051601f198184030181528282528051602091820120336000908152600b8352929092209192610a39929101613db7565b6040516020818303038152906040528051906020012014610a6c5760405162461bcd60e51b815260040161038f90613e2d565b600882604051610a7c9190613f5a565b9081526040519081900360200190205415610af557600882604051610aa19190613f5a565b9081526020016040518091039020805480610abe57610abe6140ae565b60008281526020812060001990920191600283020190610ade8282612f1c565b610aec600183016000612f1c565b50509055610a6c565b60005b8151811015610bc057600883604051610b119190613f5a565b90815260200160405180910390206040518060400160405280848481518110610b3c57610b3c613fbe565b6020026020010151600001518152602001848481518110610b5f57610b5f613fbe565b6020908102919091018101518101519091528254600181018455600093845292208151919260020201908190610b959082613e9b565b5060208201516001820190610baa9082613e9b565b5050508080610bb890613f8c565b915050610af8565b505050565b6060600882604051610bd79190613f5a565b9081526020016040518091039020805480602002602001604051908101604052809291908181526020016000905b82821015610d5b5783829060005260206000209060020201604051806040016040529081600082018054610c3890613d7d565b80601f0160208091040260200160405190810160405280929190818152602001828054610c6490613d7d565b8015610cb15780601f10610c8657610100808354040283529160200191610cb1565b820191906000526020600020905b815481529060010190602001808311610c9457829003601f168201915b50505050508152602001600182018054610cca90613d7d565b80601f0160208091040260200160405190810160405280929190818152602001828054610cf690613d7d565b8015610d435780601f10610d1857610100808354040283529160200191610d43565b820191906000526020600020905b815481529060010190602001808311610d2657829003601f168201915b50505050508152505081526020019060010190610c05565b505050509050919050565b805160208183018101805160068252928201919093012091528054600182018054919291610d9390613d7d565b80601f0160208091040260200160405190810160405280929190818152602001828054610dbf90613d7d565b8015610e0c5780601f10610de157610100808354040283529160200191610e0c565b820191906000526020600020905b815481529060010190602001808311610def57829003601f168201915b505050505090806002018054610e2190613d7d565b80601f0160208091040260200160405190810160405280929190818152602001828054610e4d90613d7d565b8015610e9a5780601f10610e6f57610100808354040283529160200191610e9a565b820191906000526020600020905b815481529060010190602001808311610e7d57829003601f168201915b505050505090806003018054610eaf90613d7d565b80601f0160208091040260200160405190810160405280929190818152602001828054610edb90613d7d565b8015610f285780601f10610efd57610100808354040283529160200191610f28565b820191906000526020600020905b815481529060010190602001808311610f0b57829003601f168201915b505050505090806004018054610f3d90613d7d565b80601f0160208091040260200160405190810160405280929190818152602001828054610f6990613d7d565b8015610fb65780601f10610f8b57610100808354040283529160200191610fb6565b820191906000526020600020905b815481529060010190602001808311610f9957829003601f168201915b505050505090806005018054610fcb90613d7d565b80601f0160208091040260200160405190810160405280929190818152602001828054610ff790613d7d565b80156110445780601f1061101957610100808354040283529160200191611044565b820191906000526020600020905b81548152906001019060200180831161102757829003601f168201915b5050505050905086565b600b602052600090815260409020805461106790613d7d565b80601f016020809104026020016040519081016040528092919081815260200182805461109390613d7d565b80156110e05780601f106110b5576101008083540402835291602001916110e0565b820191906000526020600020905b8154815290600101906020018083116110c357829003601f168201915b505050505081565b6060600a826040516110fa9190613f5a565b9081526020016040518091039020805480602002602001604051908101604052809291908181526020016000905b82821015610d5b578382906000526020600020906004020160405180608001604052908160008201805461115b90613d7d565b80601f016020809104026020016040519081016040528092919081815260200182805461118790613d7d565b80156111d45780601f106111a9576101008083540402835291602001916111d4565b820191906000526020600020905b8154815290600101906020018083116111b757829003601f168201915b505050505081526020016001820180546111ed90613d7d565b80601f016020809104026020016040519081016040528092919081815260200182805461121990613d7d565b80156112665780601f1061123b57610100808354040283529160200191611266565b820191906000526020600020905b81548152906001019060200180831161124957829003601f168201915b5050505050815260200160028201805461127f90613d7d565b80601f01602080910402602001604051908101604052809291908181526020018280546112ab90613d7d565b80156112f85780601f106112cd576101008083540402835291602001916112f8565b820191906000526020600020905b8154815290600101906020018083116112db57829003601f168201915b5050505050815260200160038201805461131190613d7d565b80601f016020809104026020016040519081016040528092919081815260200182805461133d90613d7d565b801561138a5780601f1061135f5761010080835404028352916020019161138a565b820191906000526020600020905b81548152906001019060200180831161136d57829003601f168201915b50505050508152505081526020019060010190611128565b6040516020016113b190613d6c565b60408051601f198184030181528282528051602091820120336000908152600b83529290922091926113e4929101613db7565b60405160208183030381529060405280519060200120146114175760405162461bcd60e51b815260040161038f90613e2d565b600a856040516114279190613f5a565b9081526040805191829003602090810183206080840183528784528382018790529183018590526060830184905281546001810183556000928352912082516004909202019081906114799082613e9b565b506020820151600182019061148e9082613e9b565b50604082015160028201906114a39082613e9b565b50606082015160038201906114b89082613e9b565b5050505050505050565b6040516020016114d190613d6c565b60408051601f198184030181528282528051602091820120336000908152600b8352929092209192611504929101613db7565b60405160208183030381529060405280519060200120146115375760405162461bcd60e51b815260040161038f90613e2d565b6008826040516115479190613f5a565b90815260405190819003602001902054156115c05760088260405161156c9190613f5a565b9081526020016040518091039020805480611589576115896140ae565b600082815260208120600019909201916002830201906115a98282612f1c565b6115b7600183016000612f1c565b50509055611537565b60005b8151811015610bc0576009836040516115dc9190613f5a565b90815260200160405180910390206040518060c0016040528084848151811061160757611607613fbe565b602002602001015160000151815260200184848151811061162a5761162a613fbe565b602002602001015160200151815260200184848151811061164d5761164d613fbe565b602002602001015160400151815260200184848151811061167057611670613fbe565b602002602001015160600151815260200184848151811061169357611693613fbe565b60200260200101516080015181526020018484815181106116b6576116b6613fbe565b60209081029190910181015160a0015190915282546001810184556000938452922081519192600602019081906116ed9082613e9b565b50602082015160018201906117029082613e9b565b50604082015160028201906117179082613e9b565b506060820151600382019061172c9082613e9b565b50608082015160048201906117419082613e9b565b5060a082015160058201906117569082613e9b565b505050808061176490613f8c565b9150506115c3565b600460058660405161177e9190613f5a565b9081526020016040518091039020548154811061179d5761179d613fbe565b60009182526020909120600c90910201546001600160a01b031633146118235760405162461bcd60e51b815260206004820152603560248201527f596f7520646f6e27742068617665207065726d697373696f6e20746f207075626044820152746c697368207075626c696320646f63756d656e747360581b606482015260840161038f565b600c856040516114279190613f5a565b6001546001600160a01b0316331461185d5760405162461bcd60e51b815260040161038f90613e2d565b6040805160c0810182526001600160a01b0387811682526020820187815260038054948401859052606084018890526080840187905260a0840186905260018501815560005282517fc2575a0e9e593c00f959f8c92f12db2869c3395a3b0502d05e2516446f71f85b600690950294850180546001600160a01b0319169190931617825551919290917fc2575a0e9e593c00f959f8c92f12db2869c3395a3b0502d05e2516446f71f85c909101906119159082613e9b565b5060408201516002820155606082015160038201906119349082613e9b565b50608082015160048201906119499082613e9b565b5060a0820151600582019061195e9082613e9b565b5050604080518082018252600581526418dbdd5c9d60da1b6020808301919091526001600160a01b0389166000908152600b9091529190912091506119a39082613e9b565b505050505050565b60606009826040516119bd9190613f5a565b9081526020016040518091039020805480602002602001604051908101604052809291908181526020016000905b82821015610d5b57838290600052602060002090600602016040518060c0016040529081600082018054611a1e90613d7d565b80601f0160208091040260200160405190810160405280929190818152602001828054611a4a90613d7d565b8015611a975780601f10611a6c57610100808354040283529160200191611a97565b820191906000526020600020905b815481529060010190602001808311611a7a57829003601f168201915b50505050508152602001600182018054611ab090613d7d565b80601f0160208091040260200160405190810160405280929190818152602001828054611adc90613d7d565b8015611b295780601f10611afe57610100808354040283529160200191611b29565b820191906000526020600020905b815481529060010190602001808311611b0c57829003601f168201915b50505050508152602001600282018054611b4290613d7d565b80601f0160208091040260200160405190810160405280929190818152602001828054611b6e90613d7d565b8015611bbb5780601f10611b9057610100808354040283529160200191611bbb565b820191906000526020600020905b815481529060010190602001808311611b9e57829003601f168201915b50505050508152602001600382018054611bd490613d7d565b80601f0160208091040260200160405190810160405280929190818152602001828054611c0090613d7d565b8015611c4d5780601f10611c2257610100808354040283529160200191611c4d565b820191906000526020600020905b815481529060010190602001808311611c3057829003601f168201915b50505050508152602001600482018054611c6690613d7d565b80601f0160208091040260200160405190810160405280929190818152602001828054611c9290613d7d565b8015611cdf5780601f10611cb457610100808354040283529160200191611cdf565b820191906000526020600020905b815481529060010190602001808311611cc257829003601f168201915b50505050508152602001600582018054611cf890613d7d565b80601f0160208091040260200160405190810160405280929190818152602001828054611d2490613d7d565b8015611d715780601f10611d4657610100808354040283529160200191611d71565b820191906000526020600020905b815481529060010190602001808311611d5457829003601f168201915b505050505081525050815260200190600101906119eb565b60606003805480602002602001604051908101604052809291908181526020016000905b828210156120475760008481526020908190206040805160c081019091526006850290910180546001600160a01b031682526001810180549293919291840191611df690613d7d565b80601f0160208091040260200160405190810160405280929190818152602001828054611e2290613d7d565b8015611e6f5780601f10611e4457610100808354040283529160200191611e6f565b820191906000526020600020905b815481529060010190602001808311611e5257829003601f168201915b5050505050815260200160028201548152602001600382018054611e9290613d7d565b80601f0160208091040260200160405190810160405280929190818152602001828054611ebe90613d7d565b8015611f0b5780601f10611ee057610100808354040283529160200191611f0b565b820191906000526020600020905b815481529060010190602001808311611eee57829003601f168201915b50505050508152602001600482018054611f2490613d7d565b80601f0160208091040260200160405190810160405280929190818152602001828054611f5090613d7d565b8015611f9d5780601f10611f7257610100808354040283529160200191611f9d565b820191906000526020600020905b815481529060010190602001808311611f8057829003601f168201915b50505050508152602001600582018054611fb690613d7d565b80601f0160208091040260200160405190810160405280929190818152602001828054611fe290613d7d565b801561202f5780601f106120045761010080835404028352916020019161202f565b820191906000526020600020905b81548152906001019060200180831161201257829003601f168201915b50505050508152505081526020019060010190611dad565b50505050905090565b6120bd60405180610180016040528060006001600160a01b0316815260200160608152602001600081526020016060815260200160008152602001606081526020016060815260200160608152602001606081526020016060815260200160608152602001606081525090565b6005826040516120cd9190613f5a565b9081526020016040518091039020546000036121205760405162461bcd60e51b815260206004820152601260248201527110d39488191bd95cc81b9bdd08195e1a5cdd60721b604482015260640161038f565b60046005836040516121329190613f5a565b9081526020016040518091039020548154811061215157612151613fbe565b6000918252602091829020604080516101808101909152600c9092020180546001600160a01b03168252600181018054929391929184019161219290613d7d565b80601f01602080910402602001604051908101604052809291908181526020018280546121be90613d7d565b801561220b5780601f106121e05761010080835404028352916020019161220b565b820191906000526020600020905b8154815290600101906020018083116121ee57829003601f168201915b505050505081526020016002820154815260200160038201805461222e90613d7d565b80601f016020809104026020016040519081016040528092919081815260200182805461225a90613d7d565b80156122a75780601f1061227c576101008083540402835291602001916122a7565b820191906000526020600020905b81548152906001019060200180831161228a57829003601f168201915b50505050508152602001600482015481526020016005820180546122ca90613d7d565b80601f01602080910402602001604051908101604052809291908181526020018280546122f690613d7d565b80156123435780601f1061231857610100808354040283529160200191612343565b820191906000526020600020905b81548152906001019060200180831161232657829003601f168201915b5050505050815260200160068201805461235c90613d7d565b80601f016020809104026020016040519081016040528092919081815260200182805461238890613d7d565b80156123d55780601f106123aa576101008083540402835291602001916123d5565b820191906000526020600020905b8154815290600101906020018083116123b857829003601f168201915b505050505081526020016007820180546123ee90613d7d565b80601f016020809104026020016040519081016040528092919081815260200182805461241a90613d7d565b80156124675780601f1061243c57610100808354040283529160200191612467565b820191906000526020600020905b81548152906001019060200180831161244a57829003601f168201915b5050505050815260200160088201805461248090613d7d565b80601f01602080910402602001604051908101604052809291908181526020018280546124ac90613d7d565b80156124f95780601f106124ce576101008083540402835291602001916124f9565b820191906000526020600020905b8154815290600101906020018083116124dc57829003601f168201915b5050505050815260200160098201805461251290613d7d565b80601f016020809104026020016040519081016040528092919081815260200182805461253e90613d7d565b801561258b5780601f106125605761010080835404028352916020019161258b565b820191906000526020600020905b81548152906001019060200180831161256e57829003601f168201915b50505050508152602001600a820180546125a490613d7d565b80601f01602080910402602001604051908101604052809291908181526020018280546125d090613d7d565b801561261d5780601f106125f25761010080835404028352916020019161261d565b820191906000526020600020905b81548152906001019060200180831161260057829003601f168201915b50505050508152602001600b8201805461263690613d7d565b80601f016020809104026020016040519081016040528092919081815260200182805461266290613d7d565b80156126af5780601f10612684576101008083540402835291602001916126af565b820191906000526020600020905b81548152906001019060200180831161269257829003601f168201915b5050505050815250509050919050565b6060600c826040516126d19190613f5a565b9081526020016040518091039020805480602002602001604051908101604052809291908181526020016000905b82821015610d5b578382906000526020600020906004020160405180608001604052908160008201805461273290613d7d565b80601f016020809104026020016040519081016040528092919081815260200182805461275e90613d7d565b80156127ab5780601f10612780576101008083540402835291602001916127ab565b820191906000526020600020905b81548152906001019060200180831161278e57829003601f168201915b505050505081526020016001820180546127c490613d7d565b80601f01602080910402602001604051908101604052809291908181526020018280546127f090613d7d565b801561283d5780601f106128125761010080835404028352916020019161283d565b820191906000526020600020905b81548152906001019060200180831161282057829003601f168201915b5050505050815260200160028201805461285690613d7d565b80601f016020809104026020016040519081016040528092919081815260200182805461288290613d7d565b80156128cf5780601f106128a4576101008083540402835291602001916128cf565b820191906000526020600020905b8154815290600101906020018083116128b257829003601f168201915b505050505081526020016003820180546128e890613d7d565b80601f016020809104026020016040519081016040528092919081815260200182805461291490613d7d565b80156129615780601f1061293657610100808354040283529160200191612961565b820191906000526020600020905b81548152906001019060200180831161294457829003601f168201915b505050505081525050815260200190600101906126ff565b60606004805480602002602001604051908101604052809291908181526020016000905b82821015612047576000848152602090819020604080516101808101909152600c850290910180546001600160a01b0316825260018101805492939192918401916129e790613d7d565b80601f0160208091040260200160405190810160405280929190818152602001828054612a1390613d7d565b8015612a605780601f10612a3557610100808354040283529160200191612a60565b820191906000526020600020905b815481529060010190602001808311612a4357829003601f168201915b5050505050815260200160028201548152602001600382018054612a8390613d7d565b80601f0160208091040260200160405190810160405280929190818152602001828054612aaf90613d7d565b8015612afc5780601f10612ad157610100808354040283529160200191612afc565b820191906000526020600020905b815481529060010190602001808311612adf57829003601f168201915b5050505050815260200160048201548152602001600582018054612b1f90613d7d565b80601f0160208091040260200160405190810160405280929190818152602001828054612b4b90613d7d565b8015612b985780601f10612b6d57610100808354040283529160200191612b98565b820191906000526020600020905b815481529060010190602001808311612b7b57829003601f168201915b50505050508152602001600682018054612bb190613d7d565b80601f0160208091040260200160405190810160405280929190818152602001828054612bdd90613d7d565b8015612c2a5780601f10612bff57610100808354040283529160200191612c2a565b820191906000526020600020905b815481529060010190602001808311612c0d57829003601f168201915b50505050508152602001600782018054612c4390613d7d565b80601f0160208091040260200160405190810160405280929190818152602001828054612c6f90613d7d565b8015612cbc5780601f10612c9157610100808354040283529160200191612cbc565b820191906000526020600020905b815481529060010190602001808311612c9f57829003601f168201915b50505050508152602001600882018054612cd590613d7d565b80601f0160208091040260200160405190810160405280929190818152602001828054612d0190613d7d565b8015612d4e5780601f10612d2357610100808354040283529160200191612d4e565b820191906000526020600020905b815481529060010190602001808311612d3157829003601f168201915b50505050508152602001600982018054612d6790613d7d565b80601f0160208091040260200160405190810160405280929190818152602001828054612d9390613d7d565b8015612de05780601f10612db557610100808354040283529160200191612de0565b820191906000526020600020905b815481529060010190602001808311612dc357829003601f168201915b50505050508152602001600a82018054612df990613d7d565b80601f0160208091040260200160405190810160405280929190818152602001828054612e2590613d7d565b8015612e725780601f10612e4757610100808354040283529160200191612e72565b820191906000526020600020905b815481529060010190602001808311612e5557829003601f168201915b50505050508152602001600b82018054612e8b90613d7d565b80601f0160208091040260200160405190810160405280929190818152602001828054612eb790613d7d565b8015612f045780601f10612ed957610100808354040283529160200191612f04565b820191906000526020600020905b815481529060010190602001808311612ee757829003601f168201915b5050505050815250508152602001906001019061299d565b508054612f2890613d7d565b6000825580601f10612f38575050565b601f016020900490600052602060002090810190612f569190612f59565b50565b5b80821115612f6e5760008155600101612f5a565b5090565b634e487b7160e01b600052604160045260246000fd5b604080519081016001600160401b0381118282101715612faa57612faa612f72565b60405290565b60405160c081016001600160401b0381118282101715612faa57612faa612f72565b604051601f8201601f191681016001600160401b0381118282101715612ffa57612ffa612f72565b604052919050565b600082601f83011261301357600080fd5b81356001600160401b0381111561302c5761302c612f72565b61303f601f8201601f1916602001612fd2565b81815284602083860101111561305457600080fd5b816020850160208301376000918101602001919091529392505050565b60008060008060008060008060008060006101608c8e03121561309357600080fd5b6001600160401b03808d3511156130a957600080fd5b6130b68e8e358f01613002565b9b5060208d01359a508060408e013511156130d057600080fd5b6130e08e60408f01358f01613002565b995060608d013598508060808e013511156130fa57600080fd5b61310a8e60808f01358f01613002565b97508060a08e0135111561311d57600080fd5b61312d8e60a08f01358f01613002565b96508060c08e0135111561314057600080fd5b6131508e60c08f01358f01613002565b95508060e08e0135111561316357600080fd5b6131738e60e08f01358f01613002565b9450806101008e0135111561318757600080fd5b6131988e6101008f01358f01613002565b9350806101208e013511156131ac57600080fd5b6131bd8e6101208f01358f01613002565b9250806101408e013511156131d157600080fd5b506131e38d6101408e01358e01613002565b90509295989b509295989b9093969950565b600080600080600080600060e0888a03121561321057600080fd5b87356001600160401b038082111561322757600080fd5b6132338b838c01613002565b985060208a013591508082111561324957600080fd5b6132558b838c01613002565b975060408a013591508082111561326b57600080fd5b6132778b838c01613002565b965060608a013591508082111561328d57600080fd5b6132998b838c01613002565b955060808a01359150808211156132af57600080fd5b6132bb8b838c01613002565b945060a08a01359150808211156132d157600080fd5b6132dd8b838c01613002565b935060c08a01359150808211156132f357600080fd5b506133008a828b01613002565b91505092959891949750929550565b600080600080600060a0868803121561332757600080fd5b85356001600160401b038082111561333e57600080fd5b61334a89838a01613002565b9650602088013591508082111561336057600080fd5b61336c89838a01613002565b9550604088013591508082111561338257600080fd5b61338e89838a01613002565b945060608801359150808211156133a457600080fd5b6133b089838a01613002565b935060808801359150808211156133c657600080fd5b506133d388828901613002565b9150509295509295909350565b60006001600160401b038211156133f9576133f9612f72565b5060051b60200190565b600080604080848603121561341757600080fd5b83356001600160401b038082111561342e57600080fd5b61343a87838801613002565b945060209150818601358181111561345157600080fd5b8601601f8101881361346257600080fd5b8035613475613470826133e0565b612fd2565b81815260059190911b8201840190848101908a83111561349457600080fd5b8584015b83811015613524578035868111156134b05760008081fd5b8501808d03601f19018913156134c65760008081fd5b6134ce612f88565b88820135888111156134e05760008081fd5b6134ee8f8b83860101613002565b82525089820135888111156135035760008081fd5b6135118f8b83860101613002565b828b015250845250918601918601613498565b50809750505050505050509250929050565b60006020828403121561354857600080fd5b81356001600160401b0381111561355e57600080fd5b61356a84828501613002565b949350505050565b60005b8381101561358d578181015183820152602001613575565b50506000910152565b600081518084526135ae816020860160208601613572565b601f01601f19169290920160200192915050565b60006020808301818452808551808352604092508286019150828160051b87010184880160005b8381101561363957888303603f190185528151805187855261360d88860182613596565b91890151858303868b01529190506136258183613596565b9689019694505050908601906001016135e9565b509098975050505050505050565b86815260c06020820152600061366060c0830188613596565b82810360408401526136728188613596565b905082810360608401526136868187613596565b9050828103608084015261369a8186613596565b905082810360a08401526136ae8185613596565b9998505050505050505050565b80356001600160a01b03811681146136d257600080fd5b919050565b6000602082840312156136e957600080fd5b6136f2826136bb565b9392505050565b6020815260006136f26020830184613596565b60008151608084526137216080850182613596565b90506020830151848203602086015261373a8282613596565b915050604083015184820360408601526137548282613596565b9150506060830151848203606086015261376e8282613596565b95945050505050565b6000602080830181845280855180835260408601915060408160051b870101925083870160005b828110156137cc57603f198886030184526137ba85835161370c565b9450928501929085019060010161379e565b5092979650505050505050565b600080604083850312156137ec57600080fd5b82356001600160401b038082111561380357600080fd5b61380f86838701613002565b935060209150818501358181111561382657600080fd5b8501601f8101871361383757600080fd5b8035613845613470826133e0565b81815260059190911b8201840190848101908983111561386457600080fd5b8584015b838110156139905780358681111561387f57600080fd5b850160c0818d03601f1901121561389557600080fd5b61389d612fb0565b88820135888111156138ae57600080fd5b6138bc8e8b83860101613002565b8252506040820135888111156138d157600080fd5b6138df8e8b83860101613002565b8a830152506060820135888111156138f657600080fd5b6139048e8b83860101613002565b60408301525060808201358881111561391d5760008081fd5b61392b8e8b83860101613002565b60608301525060a080830135898111156139455760008081fd5b6139538f8c83870101613002565b60808401525060c08301358981111561396c5760008081fd5b61397a8f8c83870101613002565b9183019190915250845250918601918601613868565b508096505050505050509250929050565b600080600080600060a086880312156139b957600080fd5b6139c2866136bb565b945060208601356001600160401b038082111561336057600080fd5b60006020808301818452808551808352604092508286019150828160051b87010184880160005b8381101561363957603f19898403018552815160c08151818652613a2b82870182613596565b915050888201518582038a870152613a438282613596565b9150508782015185820389870152613a5b8282613596565b91505060608083015186830382880152613a758382613596565b9250505060808083015186830382880152613a908382613596565b9250505060a08083015192508582038187015250613aae8183613596565b968901969450505090860190600101613a05565b60006020808301818452808551808352604092508286019150828160051b87010184880160005b8381101561363957888303603f19018552815180516001600160a01b031684528781015160c089860181905290613b2282870182613596565b915050878201518886015260608083015186830382880152613b448382613596565b9250505060808083015186830382880152613b5f8382613596565b9250505060a08083015192508582038187015250613b7d8183613596565b968901969450505090860190600101613ae9565b80516001600160a01b0316825260006101806020830151816020860152613bba82860182613596565b9150506040830151604085015260608301518482036060860152613bde8282613596565b9150506080830151608085015260a083015184820360a0860152613c028282613596565b91505060c083015184820360c0860152613c1c8282613596565b91505060e083015184820360e0860152613c368282613596565b9150506101008084015185830382870152613c518382613596565b925050506101208084015185830382870152613c6d8382613596565b925050506101408084015185830382870152613c898382613596565b925050506101608084015185830382870152613ca58382613596565b9695505050505050565b6020815260006136f26020830184613b91565b6000602080830181845280855180835260408601915060408160051b870101925083870160005b828110156137cc57603f19888603018452613d0585835161370c565b94509285019290850190600101613ce9565b6000602080830181845280855180835260408601915060408160051b870101925083870160005b828110156137cc57603f19888603018452613d5a858351613b91565b94509285019290850190600101613d3e565b6418dbdd5c9d60da1b815260050190565b600181811c90821680613d9157607f821691505b602082108103613db157634e487b7160e01b600052602260045260246000fd5b50919050565b6000808354613dc581613d7d565b60018281168015613ddd5760018114613df257613e21565b60ff1984168752821515830287019450613e21565b8760005260208060002060005b85811015613e185781548a820152908401908201613dff565b50505082870194505b50929695505050505050565b6020808252600e908201526d139bdd08185d5d1a1bdc9a5e995960921b604082015260600190565b601f821115610bc057600081815260208120601f850160051c81016020861015613e7c5750805b601f850160051c820191505b818110156119a357828155600101613e88565b81516001600160401b03811115613eb457613eb4612f72565b613ec881613ec28454613d7d565b84613e55565b602080601f831160018114613efd5760008415613ee55750858301515b600019600386901b1c1916600185901b1785556119a3565b600085815260208120601f198616915b82811015613f2c57888601518255948401946001909101908401613f0d565b5085821015613f4a5787850151600019600388901b60f8161c191681555b5050505050600190811b01905550565b60008251613f6c818460208701613572565b9190910192915050565b634e487b7160e01b600052601160045260246000fd5b600060018201613f9e57613f9e613f76565b5060010190565b81810381811115613fb857613fb8613f76565b92915050565b634e487b7160e01b600052603260045260246000fd5b818103613fdf575050565b613fe98254613d7d565b6001600160401b0381111561400057614000612f72565b61400e81613ec28454613d7d565b6000601f821160018114614042576000831561402a5750848201545b600019600385901b1c1916600184901b1784556140a7565b600085815260209020601f19841690600086815260209020845b8381101561407c578286015482556001958601959091019060200161405c565b508583101561409a5781850154600019600388901b60f8161c191681555b50505060018360011b0184555b5050505050565b634e487b7160e01b600052603160045260246000fdfea2646970667358221220614e65e416f7cd1712c571a865cc3968507979cec9933391dbf1158f802c900664736f6c63430008130033",
  "immutableReferences": {},
  "source": "// SPDX-License-Identifier: GPL-3.0\r\n\r\npragma solidity >=0.8.2 <0.9.0;\r\n\r\n/**\r\n * @title Storage\r\n * @dev Store & retrieve value in a variable\r\n * @custom:dev-run-script ./scripts/deploy_with_ethers.ts\r\n */\r\ncontract LawVertex {\r\n\r\n  // constructor() payable {}\r\n  // receive() external payable {}\r\n\r\n  address public contractOwner;\r\n  address private admin;\r\n  uint public caseCount;\r\n  \r\n\r\n  struct ActStruct{\r\n    string name;\r\n    string section;\r\n  } \r\n\r\n  struct History{\r\n    string judge;\r\n    string date;\r\n    string next_hearing_date;\r\n    string next_hearing_purpose;\r\n    string business;\r\n    string presentee;\r\n  }\r\n\r\n  struct CaseInfo {\r\n    uint _id;\r\n    string pet;\r\n    string res;\r\n\r\n    //FIR Details\r\n    string police_station;\r\n    string fir_no;\r\n    string year;\r\n  }\r\n\r\n  struct Case {\r\n    //Case Details\r\n    address owner;\r\n    string case_type;\r\n    uint filing_no;\r\n    string filing_date;\r\n    uint reg_no;\r\n    string reg_date;\r\n    string cnr;\r\n\r\n    //Case Status\r\n    string first_hearing;\r\n    string next_hearing;\r\n    string stage;\r\n    string court_no;\r\n    string judge;\r\n  }\r\n  \r\n  struct Court {\r\n    address owner;\r\n    string court_type;\r\n    uint slno;\r\n    string name;\r\n    string location;\r\n    string tel;\r\n  }\r\n\r\n  struct Party {\r\n    string party;\r\n    string name;\r\n    string lead_adv;\r\n    string location;\r\n  }\r\n\r\n  struct Document {\r\n    string name;\r\n    string uploadedAt;\r\n    string cid;\r\n    string class;\r\n  }\r\n\r\n  Court[] courts;\r\n  Case[] cases;\r\n\r\n  mapping(string => uint256) cnr_cases; //cnr->case\r\n  mapping(string => CaseInfo) public infos; //cnr->case_info\r\n  mapping(string => string) status; //cnr->status\r\n  mapping(string => ActStruct[]) acts;\r\n  mapping(string => History[]) histories;\r\n  mapping(string => Party[]) parties;\r\n  mapping(address => string) public roles;\r\n  mapping(string => Document[]) docs; //cnr -> documents\r\n\r\n    \r\n  constructor() {\r\n    contractOwner = msg.sender;\r\n    admin = msg.sender;\r\n    roles[msg.sender]=\"admin\";\r\n    caseCount = 1;\r\n    cases.push(Case(msg.sender,\"\",0,\"\",0,\"\",\"invalid\",\"\",\"\",\"\",\"\",\"\"));\r\n  }\r\n\r\n  function getAllCourts () external view returns (Court[] memory){\r\n    return courts;\r\n  }\r\n\r\n  function getActs (string memory _cnr) external view returns(ActStruct[] memory){\r\n    return acts[_cnr];\r\n  }\r\n\r\n  function getHistory (string memory _cnr) external view returns(History[] memory){\r\n    return histories[_cnr];\r\n  }\r\n\r\n  function getAllCases () external view returns (Case[] memory){\r\n    return cases;\r\n  }\r\n\r\n  function addCourt(\r\n    address _owner,\r\n    string memory _court_type,\r\n    string memory _name,\r\n    string memory _location,\r\n    string memory _tel\r\n  ) external {\r\n    require(msg.sender==admin, \"Not authorized\");\r\n    courts.push(Court(_owner,_court_type,courts.length,_name,_location,_tel));\r\n    roles[_owner] = \"court\";\r\n  }\r\n\r\n  function addParty(\r\n    string memory _cnr,\r\n    string memory _party,\r\n    string memory _name,\r\n    string memory _lead_adv,\r\n    string memory _location\r\n  ) external {\r\n    require(keccak256(abi.encodePacked(roles[msg.sender])) == keccak256(abi.encodePacked(\"court\")), \"Not authorized\");\r\n    parties[_cnr].push(Party(_party,_name,_lead_adv,_location));\r\n  }\r\n\r\n  function addCase(\r\n    //Case Details\r\n    string memory _case_type,\r\n    uint _filing_no,\r\n    string memory _filing_date,\r\n    uint _reg_no,\r\n    string memory _reg_date,\r\n    string memory _cnr,\r\n\r\n    //  Case Status\r\n    string memory _first_hearing,\r\n    string memory _next_hearing,\r\n    string memory _stage,\r\n    string memory _court_no,\r\n    string memory _judge\r\n  ) external {\r\n    require(keccak256(abi.encodePacked(roles[msg.sender])) == keccak256(abi.encodePacked(\"court\")), \"Not authorized\");\r\n    cases.push(Case(msg.sender,_case_type,_filing_no,_filing_date,_reg_no,_reg_date,_cnr,_first_hearing,_next_hearing,_stage,\r\n      _court_no,\r\n      _judge\r\n    ));\r\n\r\n    cnr_cases[_cnr]=caseCount;\r\n    \r\n    caseCount++;\r\n  }\r\n\r\n  function viewCase(string memory _cnr) external view returns (Case memory){\r\n    require(cnr_cases[_cnr]!=0,\"CNR does not exist\");\r\n    return cases[cnr_cases[_cnr]];\r\n  }\r\n\r\n  function addAct(\r\n    string memory _cnr,\r\n    ActStruct[] memory _acts\r\n  )external{\r\n    require(keccak256(abi.encodePacked(roles[msg.sender])) == keccak256(abi.encodePacked(\"court\")), \"Not authorized\");\r\n\r\n    while(acts[_cnr].length!=0){\r\n      acts[_cnr].pop();\r\n    }\r\n\r\n    for(uint i=0;i<_acts.length;i++){\r\n      acts[_cnr].push(ActStruct(_acts[i].name,_acts[i].section));\r\n    }\r\n  }\r\n\r\n  function addHistory(\r\n    string memory _cnr,\r\n    History[] memory _histories\r\n  )external{\r\n    require(keccak256(abi.encodePacked(roles[msg.sender])) == keccak256(abi.encodePacked(\"court\")), \"Not authorized\");\r\n\r\n    while(acts[_cnr].length!=0){\r\n      acts[_cnr].pop();\r\n    }\r\n\r\n    for(uint i=0;i<_histories.length;i++){\r\n      histories[_cnr].push(History(\r\n        _histories[i].judge,\r\n        _histories[i].date,\r\n        _histories[i].next_hearing_date,\r\n        _histories[i].next_hearing_purpose,\r\n        _histories[i].business,\r\n        _histories[i].presentee\r\n      ));\r\n    }\r\n  }\r\n\r\n  function updateCase(\r\n    //  Case Status\r\n    string memory _cnr,\r\n    string memory _next_hearing,\r\n    string memory _stage,\r\n    string memory _court_no,\r\n    string memory _judge\r\n  ) external {\r\n\r\n    Case storage newCase = cases[cnr_cases[_cnr]];\r\n\r\n    require(newCase.owner==msg.sender && keccak256(abi.encodePacked(roles[msg.sender])) == keccak256(abi.encodePacked(\"court\")), \"Not authorized\");\r\n\r\n    newCase.next_hearing = _next_hearing;\r\n    newCase.stage = _stage;\r\n    newCase.court_no = _court_no;\r\n    newCase.judge = _judge;\r\n\r\n    newCase.next_hearing = _next_hearing;\r\n    newCase.stage = _stage;\r\n    newCase.court_no = _court_no;\r\n    newCase.judge = _judge;\r\n\r\n    for (uint j = 0; j < cases.length; j++) {\r\n        if(keccak256(abi.encodePacked(cases[j].cnr)) == keccak256(abi.encodePacked(_cnr))){\r\n            cases[j] = newCase;\r\n            break;\r\n        }\r\n    }\r\n  }\r\n\r\n  // Use for both creating and updateing\r\n  function addCaseInfo(\r\n    string memory _cnr,\r\n    string memory _pet,\r\n    string memory _res,\r\n    string memory _status,\r\n    string memory _police_station,\r\n    string memory _fir_no,\r\n    string memory _year\r\n  ) external {\r\n    \r\n    CaseInfo storage newCaseInfo = infos[_cnr];\r\n    require(cases[caseCount-1].owner==msg.sender && keccak256(abi.encodePacked(roles[msg.sender])) == keccak256(abi.encodePacked(\"court\")), \"Not authorized\");\r\n\r\n    newCaseInfo._id = caseCount-1;\r\n    status[_cnr]=_status;\r\n    newCaseInfo.pet =_pet;\r\n    newCaseInfo.res =_res;\r\n    newCaseInfo.police_station =_police_station;\r\n    newCaseInfo.fir_no =_fir_no;\r\n    newCaseInfo.year =_year;\r\n  }\r\n\r\n  function getParties(string memory _cnr)external view returns(Party[] memory){\r\n    return parties[_cnr];\r\n  }\r\n\r\n  function addPublicDocument(string memory _cnr, string memory _name, string memory _uploadedAt, string memory _cid,string memory _class) external {\r\n      require(msg.sender==cases[cnr_cases[_cnr]].owner, \"You don't have permission to publish public documents\");\r\n      docs[_cnr].push(Document(_name,_uploadedAt,_cid,_class));\r\n  }\r\n\r\n  function viewPublicDocuments(string memory _cnr)external view returns(Document[] memory){\r\n    return docs[_cnr];\r\n  }\r\n}\r\n\r\n",
  "sourcePath": "C:\\Users\\Aprameya\\Desktop\\LawVertex\\web3\\contracts\\LawVertex.sol",
  "compiler": {
    "name": "solc",
    "version": "0.8.19+commit.7dd6d404.Emscripten.clang"
  },
  "schemaVersion": "3.4.16",
  "updatedAt": "2024-05-03T12:18:53.432Z",
  "networkType": "ethereum",
  "devdoc": {
    "custom:dev-run-script": "./scripts/deploy_with_ethers.ts",
    "details": "Store & retrieve value in a variable",
    "kind": "dev",
    "methods": {},
    "title": "Storage",
    "version": 1
  },
  "userdoc": {
    "kind": "user",
    "methods": {},
    "version": 1
  }
}