{
  "contractName": "LawVertex",
  "abi": [
    {
      "inputs": [],
      "stateMutability": "nonpayable",
      "type": "constructor"
    },
    {
      "inputs": [],
      "name": "caseCount",
      "outputs": [
        {
          "internalType": "uint256",
          "name": "",
          "type": "uint256"
        }
      ],
      "stateMutability": "view",
      "type": "function",
      "constant": true
    },
    {
      "inputs": [],
      "name": "contractOwner",
      "outputs": [
        {
          "internalType": "address",
          "name": "",
          "type": "address"
        }
      ],
      "stateMutability": "view",
      "type": "function",
      "constant": true
    },
    {
      "inputs": [
        {
          "internalType": "string",
          "name": "",
          "type": "string"
        }
      ],
      "name": "infos",
      "outputs": [
        {
          "internalType": "uint256",
          "name": "_id",
          "type": "uint256"
        },
        {
          "internalType": "string",
          "name": "pet",
          "type": "string"
        },
        {
          "internalType": "string",
          "name": "res",
          "type": "string"
        },
        {
          "internalType": "string",
          "name": "police_station",
          "type": "string"
        },
        {
          "internalType": "string",
          "name": "fir_no",
          "type": "string"
        },
        {
          "internalType": "string",
          "name": "year",
          "type": "string"
        }
      ],
      "stateMutability": "view",
      "type": "function",
      "constant": true
    },
    {
      "inputs": [],
      "name": "getAllCourts",
      "outputs": [
        {
          "components": [
            {
              "internalType": "address",
              "name": "owner",
              "type": "address"
            },
            {
              "internalType": "string",
              "name": "court_type",
              "type": "string"
            },
            {
              "internalType": "uint256",
              "name": "slno",
              "type": "uint256"
            },
            {
              "internalType": "string",
              "name": "name",
              "type": "string"
            },
            {
              "internalType": "string",
              "name": "location",
              "type": "string"
            },
            {
              "internalType": "string",
              "name": "tel",
              "type": "string"
            }
          ],
          "internalType": "struct LawVertex.Court[]",
          "name": "",
          "type": "tuple[]"
        }
      ],
      "stateMutability": "view",
      "type": "function",
      "constant": true
    },
    {
      "inputs": [
        {
          "internalType": "string",
          "name": "_cnr",
          "type": "string"
        }
      ],
      "name": "getActs",
      "outputs": [
        {
          "components": [
            {
              "internalType": "string",
              "name": "name",
              "type": "string"
            },
            {
              "internalType": "string",
              "name": "section",
              "type": "string"
            }
          ],
          "internalType": "struct LawVertex.ActStruct[]",
          "name": "",
          "type": "tuple[]"
        }
      ],
      "stateMutability": "view",
      "type": "function",
      "constant": true
    },
    {
      "inputs": [
        {
          "internalType": "string",
          "name": "_cnr",
          "type": "string"
        }
      ],
      "name": "getHistory",
      "outputs": [
        {
          "components": [
            {
              "internalType": "string",
              "name": "judge",
              "type": "string"
            },
            {
              "internalType": "string",
              "name": "date",
              "type": "string"
            },
            {
              "internalType": "string",
              "name": "next_hearing_date",
              "type": "string"
            },
            {
              "internalType": "string",
              "name": "next_hearing_purpose",
              "type": "string"
            },
            {
              "internalType": "string",
              "name": "business",
              "type": "string"
            },
            {
              "internalType": "string",
              "name": "presentee",
              "type": "string"
            }
          ],
          "internalType": "struct LawVertex.History[]",
          "name": "",
          "type": "tuple[]"
        }
      ],
      "stateMutability": "view",
      "type": "function",
      "constant": true
    },
    {
      "inputs": [],
      "name": "getAllCases",
      "outputs": [
        {
          "components": [
            {
              "internalType": "address",
              "name": "owner",
              "type": "address"
            },
            {
              "internalType": "string",
              "name": "case_type",
              "type": "string"
            },
            {
              "internalType": "uint256",
              "name": "filing_no",
              "type": "uint256"
            },
            {
              "internalType": "string",
              "name": "filing_date",
              "type": "string"
            },
            {
              "internalType": "uint256",
              "name": "reg_no",
              "type": "uint256"
            },
            {
              "internalType": "string",
              "name": "reg_date",
              "type": "string"
            },
            {
              "internalType": "string",
              "name": "cnr",
              "type": "string"
            },
            {
              "internalType": "string",
              "name": "first_hearing",
              "type": "string"
            },
            {
              "internalType": "string",
              "name": "next_hearing",
              "type": "string"
            },
            {
              "internalType": "string",
              "name": "stage",
              "type": "string"
            },
            {
              "internalType": "string",
              "name": "court_no",
              "type": "string"
            },
            {
              "internalType": "string",
              "name": "judge",
              "type": "string"
            }
          ],
          "internalType": "struct LawVertex.Case[]",
          "name": "",
          "type": "tuple[]"
        }
      ],
      "stateMutability": "view",
      "type": "function",
      "constant": true
    },
    {
      "inputs": [
        {
          "internalType": "address",
          "name": "_owner",
          "type": "address"
        },
        {
          "internalType": "string",
          "name": "_court_type",
          "type": "string"
        },
        {
          "internalType": "string",
          "name": "_name",
          "type": "string"
        },
        {
          "internalType": "string",
          "name": "_location",
          "type": "string"
        },
        {
          "internalType": "string",
          "name": "_tel",
          "type": "string"
        }
      ],
      "name": "addCourt",
      "outputs": [],
      "stateMutability": "nonpayable",
      "type": "function"
    },
    {
      "inputs": [
        {
          "internalType": "string",
          "name": "_cnr",
          "type": "string"
        },
        {
          "internalType": "string",
          "name": "_party",
          "type": "string"
        },
        {
          "internalType": "string",
          "name": "_name",
          "type": "string"
        },
        {
          "internalType": "string",
          "name": "_lead_adv",
          "type": "string"
        },
        {
          "internalType": "string",
          "name": "_location",
          "type": "string"
        }
      ],
      "name": "addParty",
      "outputs": [],
      "stateMutability": "nonpayable",
      "type": "function"
    },
    {
      "inputs": [
        {
          "internalType": "string",
          "name": "_case_type",
          "type": "string"
        },
        {
          "internalType": "uint256",
          "name": "_filing_no",
          "type": "uint256"
        },
        {
          "internalType": "string",
          "name": "_filing_date",
          "type": "string"
        },
        {
          "internalType": "uint256",
          "name": "_reg_no",
          "type": "uint256"
        },
        {
          "internalType": "string",
          "name": "_reg_date",
          "type": "string"
        },
        {
          "internalType": "string",
          "name": "_cnr",
          "type": "string"
        },
        {
          "internalType": "string",
          "name": "_first_hearing",
          "type": "string"
        },
        {
          "internalType": "string",
          "name": "_next_hearing",
          "type": "string"
        },
        {
          "internalType": "string",
          "name": "_stage",
          "type": "string"
        },
        {
          "internalType": "string",
          "name": "_court_no",
          "type": "string"
        },
        {
          "internalType": "string",
          "name": "_judge",
          "type": "string"
        }
      ],
      "name": "addCase",
      "outputs": [],
      "stateMutability": "nonpayable",
      "type": "function"
    },
    {
      "inputs": [
        {
          "internalType": "string",
          "name": "_cnr",
          "type": "string"
        }
      ],
      "name": "viewCase",
      "outputs": [
        {
          "components": [
            {
              "internalType": "address",
              "name": "owner",
              "type": "address"
            },
            {
              "internalType": "string",
              "name": "case_type",
              "type": "string"
            },
            {
              "internalType": "uint256",
              "name": "filing_no",
              "type": "uint256"
            },
            {
              "internalType": "string",
              "name": "filing_date",
              "type": "string"
            },
            {
              "internalType": "uint256",
              "name": "reg_no",
              "type": "uint256"
            },
            {
              "internalType": "string",
              "name": "reg_date",
              "type": "string"
            },
            {
              "internalType": "string",
              "name": "cnr",
              "type": "string"
            },
            {
              "internalType": "string",
              "name": "first_hearing",
              "type": "string"
            },
            {
              "internalType": "string",
              "name": "next_hearing",
              "type": "string"
            },
            {
              "internalType": "string",
              "name": "stage",
              "type": "string"
            },
            {
              "internalType": "string",
              "name": "court_no",
              "type": "string"
            },
            {
              "internalType": "string",
              "name": "judge",
              "type": "string"
            }
          ],
          "internalType": "struct LawVertex.Case",
          "name": "",
          "type": "tuple"
        }
      ],
      "stateMutability": "view",
      "type": "function",
      "constant": true
    },
    {
      "inputs": [
        {
          "internalType": "string",
          "name": "_cnr",
          "type": "string"
        },
        {
          "components": [
            {
              "internalType": "string",
              "name": "name",
              "type": "string"
            },
            {
              "internalType": "string",
              "name": "section",
              "type": "string"
            }
          ],
          "internalType": "struct LawVertex.ActStruct[]",
          "name": "_acts",
          "type": "tuple[]"
        }
      ],
      "name": "addAct",
      "outputs": [],
      "stateMutability": "nonpayable",
      "type": "function"
    },
    {
      "inputs": [
        {
          "internalType": "string",
          "name": "_cnr",
          "type": "string"
        },
        {
          "components": [
            {
              "internalType": "string",
              "name": "judge",
              "type": "string"
            },
            {
              "internalType": "string",
              "name": "date",
              "type": "string"
            },
            {
              "internalType": "string",
              "name": "next_hearing_date",
              "type": "string"
            },
            {
              "internalType": "string",
              "name": "next_hearing_purpose",
              "type": "string"
            },
            {
              "internalType": "string",
              "name": "business",
              "type": "string"
            },
            {
              "internalType": "string",
              "name": "presentee",
              "type": "string"
            }
          ],
          "internalType": "struct LawVertex.History[]",
          "name": "_histories",
          "type": "tuple[]"
        }
      ],
      "name": "addHistory",
      "outputs": [],
      "stateMutability": "nonpayable",
      "type": "function"
    },
    {
      "inputs": [
        {
          "internalType": "string",
          "name": "_cnr",
          "type": "string"
        },
        {
          "internalType": "string",
          "name": "_next_hearing",
          "type": "string"
        },
        {
          "internalType": "string",
          "name": "_stage",
          "type": "string"
        },
        {
          "internalType": "string",
          "name": "_court_no",
          "type": "string"
        },
        {
          "internalType": "string",
          "name": "_judge",
          "type": "string"
        }
      ],
      "name": "updateCase",
      "outputs": [],
      "stateMutability": "nonpayable",
      "type": "function"
    },
    {
      "inputs": [
        {
          "internalType": "string",
          "name": "_cnr",
          "type": "string"
        },
        {
          "internalType": "string",
          "name": "_pet",
          "type": "string"
        },
        {
          "internalType": "string",
          "name": "_res",
          "type": "string"
        },
        {
          "internalType": "string",
          "name": "_status",
          "type": "string"
        },
        {
          "internalType": "string",
          "name": "_police_station",
          "type": "string"
        },
        {
          "internalType": "string",
          "name": "_fir_no",
          "type": "string"
        },
        {
          "internalType": "string",
          "name": "_year",
          "type": "string"
        }
      ],
      "name": "addCaseInfo",
      "outputs": [],
      "stateMutability": "nonpayable",
      "type": "function"
    },
    {
      "inputs": [
        {
          "internalType": "string",
          "name": "_cnr",
          "type": "string"
        }
      ],
      "name": "getParties",
      "outputs": [
        {
          "components": [
            {
              "internalType": "string",
              "name": "party",
              "type": "string"
            },
            {
              "internalType": "string",
              "name": "name",
              "type": "string"
            },
            {
              "internalType": "string",
              "name": "lead_adv",
              "type": "string"
            },
            {
              "internalType": "string",
              "name": "location",
              "type": "string"
            }
          ],
          "internalType": "struct LawVertex.Party[]",
          "name": "",
          "type": "tuple[]"
        }
      ],
      "stateMutability": "view",
      "type": "function",
      "constant": true
    },
    {
      "inputs": [
        {
          "internalType": "string",
          "name": "_cnr",
          "type": "string"
        },
        {
          "internalType": "string",
          "name": "_url",
          "type": "string"
        }
      ],
      "name": "addPublicDocument",
      "outputs": [],
      "stateMutability": "nonpayable",
      "type": "function"
    },
    {
      "inputs": [
        {
          "internalType": "string",
          "name": "_cnr",
          "type": "string"
        }
      ],
      "name": "viewPublicDocuments",
      "outputs": [
        {
          "internalType": "string[]",
          "name": "",
          "type": "string[]"
        }
      ],
      "stateMutability": "view",
      "type": "function",
      "constant": true
    }
  ],
  "bytecode": "0x60806040523480156200001157600080fd5b5060008054336001600160a01b0319918216811783556001805483168217815560028190556040805161018081018252928352805160208082018352868252808501918252848301879052825180820184528781526060860152608085018790528251808201845287815260a08601528251808401845260078152661a5b9d985b1a5960ca1b8183015260c08601528251808201845287815260e0860152825180820184528781526101008601528251808201845287815261012086015282518082018452878152610140860152825190810190925285825261016084019190915260048054928301815590945281517f8a35acfbc15ff81a39ae7d344fd709f28e8600b4aa8c65c6b64bfe7fe36bd19b600c90920291820180549094166001600160a01b03909116178355925190927f8a35acfbc15ff81a39ae7d344fd709f28e8600b4aa8c65c6b64bfe7fe36bd19c0190620001709082620002ee565b506040820151600282015560608201516003820190620001919082620002ee565b506080820151600482015560a08201516005820190620001b29082620002ee565b5060c08201516006820190620001c99082620002ee565b5060e08201516007820190620001e09082620002ee565b506101008201516008820190620001f89082620002ee565b506101208201516009820190620002109082620002ee565b50610140820151600a820190620002289082620002ee565b50610160820151600b820190620002409082620002ee565b505050620003ba565b634e487b7160e01b600052604160045260246000fd5b600181811c908216806200027457607f821691505b6020821081036200029557634e487b7160e01b600052602260045260246000fd5b50919050565b601f821115620002e957600081815260208120601f850160051c81016020861015620002c45750805b601f850160051c820191505b81811015620002e557828155600101620002d0565b5050505b505050565b81516001600160401b038111156200030a576200030a62000249565b62000322816200031b84546200025f565b846200029b565b602080601f8311600181146200035a5760008415620003415750858301515b600019600386901b1c1916600185901b178555620002e5565b600085815260208120601f198616915b828110156200038b578886015182559484019460019091019084016200036a565b5085821015620003aa5787850151600019600388901b60f8161c191681555b5050505050600190811b01905550565b613ea780620003ca6000396000f3fe608060405234801561001057600080fd5b50600436106101165760003560e01c8063be14a977116100a2578063e360736e11610071578063e360736e14610265578063e3c5c3f514610285578063e569190f1461029a578063fa918c75146102ba578063fb40c22a146102da57600080fd5b8063be14a977146101fd578063cd0ade3514610210578063ce606ee014610223578063da2d7e951461024e57600080fd5b80635ec0f985116100e95780635ec0f9851461016957806374e2e48d1461017c5780637b973bd0146101a55780639ecbc8fc146101ca578063acc84cde146101ea57600080fd5b80631401f7f91461011b5780632a6d600c146101305780632c9bd309146101435780633ff4441c14610156575b600080fd5b61012e610129366004612e09565b6102ef565b005b61012e61013e366004612f8d565b61055f565b61012e6101513660046130a7565b6106d8565b61012e610164366004613178565b6109cc565b61012e6101773660046131fe565b610ac3565b61018f61018a366004613331565b610c8c565b60405161019c91906133bd565b60405180910390f35b6101b86101b3366004613331565b610e2d565b60405161019c96959493929190613442565b6101dd6101d8366004613331565b611115565b60405161019c91906134b6565b61012e6101f83660046130a7565b6113cf565b61012e61020b366004613564565b6114ef565b61012e61021e36600461372c565b611799565b600054610236906001600160a01b031681565b6040516001600160a01b03909116815260200161019c565b61025760025481565b60405190815260200161019c565b610278610273366004613331565b611911565b60405161019c9190613777565b61028d611cef565b60405161019c919061385b565b6102ad6102a8366004613331565b611fb6565b60405161019c9190613a48565b6102cd6102c8366004613331565b612625565b60405161019c9190613a62565b6102e2612711565b60405161019c9190613ac4565b6040516020016102fe90613b19565b60408051601f198184030181528282528051602091820120336000908152600b8352929092209192610331929101613b64565b604051602081830303815290604052805190602001201461036d5760405162461bcd60e51b815260040161036490613bda565b60405180910390fd5b6040805161018081018252338152602081018d81529181018c9052606081018b9052608081018a905260a0810189905260c0810188905260e0810187905261010081018690526101208101859052610140810184905261016081018390526004805460018101825560009190915281517f8a35acfbc15ff81a39ae7d344fd709f28e8600b4aa8c65c6b64bfe7fe36bd19b600c90920291820180546001600160a01b0319166001600160a01b0390921691909117815592519192917f8a35acfbc15ff81a39ae7d344fd709f28e8600b4aa8c65c6b64bfe7fe36bd19c909101906104579082613c48565b5060408201516002820155606082015160038201906104769082613c48565b506080820151600482015560a082015160058201906104959082613c48565b5060c082015160068201906104aa9082613c48565b5060e082015160078201906104bf9082613c48565b5061010082015160088201906104d59082613c48565b5061012082015160098201906104eb9082613c48565b50610140820151600a8201906105019082613c48565b50610160820151600b8201906105179082613c48565b50505060025460058760405161052d9190613d07565b908152604051908190036020019020556002805490600061054d83613d39565b91905055505050505050505050505050565b60006006886040516105719190613d07565b90815260200160405180910390209050336001600160a01b03166004600160025461059c9190613d52565b815481106105ac576105ac613d6b565b60009182526020909120600c90910201546001600160a01b031614801561062857506040516020016105dd90613b19565b60408051601f198184030181528282528051602091820120336000908152600b8352929092209192610610929101613b64565b60405160208183030381529060405280519060200120145b6106445760405162461bcd60e51b815260040161036490613bda565b60016002546106539190613d52565b81556040518590600790610668908b90613d07565b908152602001604051809103902090816106829190613c48565b50600181016106918882613c48565b50600281016106a08782613c48565b50600381016106af8582613c48565b50600481016106be8482613c48565b50600581016106cd8382613c48565b505050505050505050565b600060046005876040516106ec9190613d07565b9081526020016040518091039020548154811061070b5761070b613d6b565b60009182526020909120600c9091020180549091506001600160a01b03163314801561078c575060405160200161074190613b19565b60408051601f198184030181528282528051602091820120336000908152600b8352929092209192610774929101613b64565b60405160208183030381529060405280519060200120145b6107a85760405162461bcd60e51b815260040161036490613bda565b600881016107b68682613c48565b50600981016107c58582613c48565b50600a81016107d48482613c48565b50600b81016107e38382613c48565b50600881016107f28682613c48565b50600981016108018582613c48565b50600a81016108108482613c48565b50600b810161081f8382613c48565b5060005b6004548110156109c3578660405160200161083e9190613d07565b604051602081830303815290604052805190602001206004828154811061086757610867613d6b565b90600052602060002090600c02016006016040516020016108889190613b64565b60405160208183030381529060405280519060200120036109b15781600482815481106108b7576108b7613d6b565b600091825260209091208254600c9092020180546001600160a01b0319166001600160a01b039092169190911781556001808201906108f890840182613d81565b5060028201548160020155600382018160030190816109179190613d81565b5060048201548160040155600582018160050190816109369190613d81565b5060068181019061094990840182613d81565b5060078181019061095c90840182613d81565b5060088181019061096f90840182613d81565b5060098181019061098290840182613d81565b50600a8181019061099590840182613d81565b50600b818101906109a890840182613d81565b509050506109c3565b806109bb81613d39565b915050610823565b50505050505050565b60046005836040516109de9190613d07565b908152602001604051809103902054815481106109fd576109fd613d6b565b60009182526020909120600c90910201546001600160a01b03163314610a835760405162461bcd60e51b815260206004820152603560248201527f596f7520646f6e27742068617665207065726d697373696f6e20746f207075626044820152746c697368207075626c696320646f63756d656e747360581b6064820152608401610364565b600c82604051610a939190613d07565b908152604051602091819003820190208054600181018255600091825291902001610abe8282613c48565b505050565b604051602001610ad290613b19565b60408051601f198184030181528282528051602091820120336000908152600b8352929092209192610b05929101613b64565b6040516020818303038152906040528051906020012014610b385760405162461bcd60e51b815260040161036490613bda565b600882604051610b489190613d07565b9081526040519081900360200190205415610bc157600882604051610b6d9190613d07565b9081526020016040518091039020805480610b8a57610b8a613e5b565b60008281526020812060001990920191600283020190610baa8282612cb4565b610bb8600183016000612cb4565b50509055610b38565b60005b8151811015610abe57600883604051610bdd9190613d07565b90815260200160405180910390206040518060400160405280848481518110610c0857610c08613d6b565b6020026020010151600001518152602001848481518110610c2b57610c2b613d6b565b6020908102919091018101518101519091528254600181018455600093845292208151919260020201908190610c619082613c48565b5060208201516001820190610c769082613c48565b5050508080610c8490613d39565b915050610bc4565b6060600882604051610c9e9190613d07565b9081526020016040518091039020805480602002602001604051908101604052809291908181526020016000905b82821015610e225783829060005260206000209060020201604051806040016040529081600082018054610cff90613b2a565b80601f0160208091040260200160405190810160405280929190818152602001828054610d2b90613b2a565b8015610d785780601f10610d4d57610100808354040283529160200191610d78565b820191906000526020600020905b815481529060010190602001808311610d5b57829003601f168201915b50505050508152602001600182018054610d9190613b2a565b80601f0160208091040260200160405190810160405280929190818152602001828054610dbd90613b2a565b8015610e0a5780601f10610ddf57610100808354040283529160200191610e0a565b820191906000526020600020905b815481529060010190602001808311610ded57829003601f168201915b50505050508152505081526020019060010190610ccc565b505050509050919050565b805160208183018101805160068252928201919093012091528054600182018054919291610e5a90613b2a565b80601f0160208091040260200160405190810160405280929190818152602001828054610e8690613b2a565b8015610ed35780601f10610ea857610100808354040283529160200191610ed3565b820191906000526020600020905b815481529060010190602001808311610eb657829003601f168201915b505050505090806002018054610ee890613b2a565b80601f0160208091040260200160405190810160405280929190818152602001828054610f1490613b2a565b8015610f615780601f10610f3657610100808354040283529160200191610f61565b820191906000526020600020905b815481529060010190602001808311610f4457829003601f168201915b505050505090806003018054610f7690613b2a565b80601f0160208091040260200160405190810160405280929190818152602001828054610fa290613b2a565b8015610fef5780601f10610fc457610100808354040283529160200191610fef565b820191906000526020600020905b815481529060010190602001808311610fd257829003601f168201915b50505050509080600401805461100490613b2a565b80601f016020809104026020016040519081016040528092919081815260200182805461103090613b2a565b801561107d5780601f106110525761010080835404028352916020019161107d565b820191906000526020600020905b81548152906001019060200180831161106057829003601f168201915b50505050509080600501805461109290613b2a565b80601f01602080910402602001604051908101604052809291908181526020018280546110be90613b2a565b801561110b5780601f106110e05761010080835404028352916020019161110b565b820191906000526020600020905b8154815290600101906020018083116110ee57829003601f168201915b5050505050905086565b6060600a826040516111279190613d07565b9081526020016040518091039020805480602002602001604051908101604052809291908181526020016000905b82821015610e22578382906000526020600020906004020160405180608001604052908160008201805461118890613b2a565b80601f01602080910402602001604051908101604052809291908181526020018280546111b490613b2a565b80156112015780601f106111d657610100808354040283529160200191611201565b820191906000526020600020905b8154815290600101906020018083116111e457829003601f168201915b5050505050815260200160018201805461121a90613b2a565b80601f016020809104026020016040519081016040528092919081815260200182805461124690613b2a565b80156112935780601f1061126857610100808354040283529160200191611293565b820191906000526020600020905b81548152906001019060200180831161127657829003601f168201915b505050505081526020016002820180546112ac90613b2a565b80601f01602080910402602001604051908101604052809291908181526020018280546112d890613b2a565b80156113255780601f106112fa57610100808354040283529160200191611325565b820191906000526020600020905b81548152906001019060200180831161130857829003601f168201915b5050505050815260200160038201805461133e90613b2a565b80601f016020809104026020016040519081016040528092919081815260200182805461136a90613b2a565b80156113b75780601f1061138c576101008083540402835291602001916113b7565b820191906000526020600020905b81548152906001019060200180831161139a57829003601f168201915b50505050508152505081526020019060010190611155565b6040516020016113de90613b19565b60408051601f198184030181528282528051602091820120336000908152600b8352929092209192611411929101613b64565b60405160208183030381529060405280519060200120146114445760405162461bcd60e51b815260040161036490613bda565b600a856040516114549190613d07565b9081526040805191829003602090810183206080840183528784528382018790529183018590526060830184905281546001810183556000928352912082516004909202019081906114a69082613c48565b50602082015160018201906114bb9082613c48565b50604082015160028201906114d09082613c48565b50606082015160038201906114e59082613c48565b5050505050505050565b6040516020016114fe90613b19565b60408051601f198184030181528282528051602091820120336000908152600b8352929092209192611531929101613b64565b60405160208183030381529060405280519060200120146115645760405162461bcd60e51b815260040161036490613bda565b6008826040516115749190613d07565b90815260405190819003602001902054156115ed576008826040516115999190613d07565b90815260200160405180910390208054806115b6576115b6613e5b565b600082815260208120600019909201916002830201906115d68282612cb4565b6115e4600183016000612cb4565b50509055611564565b60005b8151811015610abe576009836040516116099190613d07565b90815260200160405180910390206040518060c0016040528084848151811061163457611634613d6b565b602002602001015160000151815260200184848151811061165757611657613d6b565b602002602001015160200151815260200184848151811061167a5761167a613d6b565b602002602001015160400151815260200184848151811061169d5761169d613d6b565b60200260200101516060015181526020018484815181106116c0576116c0613d6b565b60200260200101516080015181526020018484815181106116e3576116e3613d6b565b60209081029190910181015160a00151909152825460018101845560009384529220815191926006020190819061171a9082613c48565b506020820151600182019061172f9082613c48565b50604082015160028201906117449082613c48565b50606082015160038201906117599082613c48565b506080820151600482019061176e9082613c48565b5060a082015160058201906117839082613c48565b505050808061179190613d39565b9150506115f0565b6001546001600160a01b031633146117c35760405162461bcd60e51b815260040161036490613bda565b6040805160c0810182526001600160a01b0387811682526020820187815260038054948401859052606084018890526080840187905260a0840186905260018501815560005282517fc2575a0e9e593c00f959f8c92f12db2869c3395a3b0502d05e2516446f71f85b600690950294850180546001600160a01b0319169190931617825551919290917fc2575a0e9e593c00f959f8c92f12db2869c3395a3b0502d05e2516446f71f85c9091019061187b9082613c48565b50604082015160028201556060820151600382019061189a9082613c48565b50608082015160048201906118af9082613c48565b5060a082015160058201906118c49082613c48565b5050604080518082018252600581526418dbdd5c9d60da1b6020808301919091526001600160a01b0389166000908152600b9091529190912091506119099082613c48565b505050505050565b60606009826040516119239190613d07565b9081526020016040518091039020805480602002602001604051908101604052809291908181526020016000905b82821015610e2257838290600052602060002090600602016040518060c001604052908160008201805461198490613b2a565b80601f01602080910402602001604051908101604052809291908181526020018280546119b090613b2a565b80156119fd5780601f106119d2576101008083540402835291602001916119fd565b820191906000526020600020905b8154815290600101906020018083116119e057829003601f168201915b50505050508152602001600182018054611a1690613b2a565b80601f0160208091040260200160405190810160405280929190818152602001828054611a4290613b2a565b8015611a8f5780601f10611a6457610100808354040283529160200191611a8f565b820191906000526020600020905b815481529060010190602001808311611a7257829003601f168201915b50505050508152602001600282018054611aa890613b2a565b80601f0160208091040260200160405190810160405280929190818152602001828054611ad490613b2a565b8015611b215780601f10611af657610100808354040283529160200191611b21565b820191906000526020600020905b815481529060010190602001808311611b0457829003601f168201915b50505050508152602001600382018054611b3a90613b2a565b80601f0160208091040260200160405190810160405280929190818152602001828054611b6690613b2a565b8015611bb35780601f10611b8857610100808354040283529160200191611bb3565b820191906000526020600020905b815481529060010190602001808311611b9657829003601f168201915b50505050508152602001600482018054611bcc90613b2a565b80601f0160208091040260200160405190810160405280929190818152602001828054611bf890613b2a565b8015611c455780601f10611c1a57610100808354040283529160200191611c45565b820191906000526020600020905b815481529060010190602001808311611c2857829003601f168201915b50505050508152602001600582018054611c5e90613b2a565b80601f0160208091040260200160405190810160405280929190818152602001828054611c8a90613b2a565b8015611cd75780601f10611cac57610100808354040283529160200191611cd7565b820191906000526020600020905b815481529060010190602001808311611cba57829003601f168201915b50505050508152505081526020019060010190611951565b60606003805480602002602001604051908101604052809291908181526020016000905b82821015611fad5760008481526020908190206040805160c081019091526006850290910180546001600160a01b031682526001810180549293919291840191611d5c90613b2a565b80601f0160208091040260200160405190810160405280929190818152602001828054611d8890613b2a565b8015611dd55780601f10611daa57610100808354040283529160200191611dd5565b820191906000526020600020905b815481529060010190602001808311611db857829003601f168201915b5050505050815260200160028201548152602001600382018054611df890613b2a565b80601f0160208091040260200160405190810160405280929190818152602001828054611e2490613b2a565b8015611e715780601f10611e4657610100808354040283529160200191611e71565b820191906000526020600020905b815481529060010190602001808311611e5457829003601f168201915b50505050508152602001600482018054611e8a90613b2a565b80601f0160208091040260200160405190810160405280929190818152602001828054611eb690613b2a565b8015611f035780601f10611ed857610100808354040283529160200191611f03565b820191906000526020600020905b815481529060010190602001808311611ee657829003601f168201915b50505050508152602001600582018054611f1c90613b2a565b80601f0160208091040260200160405190810160405280929190818152602001828054611f4890613b2a565b8015611f955780601f10611f6a57610100808354040283529160200191611f95565b820191906000526020600020905b815481529060010190602001808311611f7857829003601f168201915b50505050508152505081526020019060010190611d13565b50505050905090565b61202360405180610180016040528060006001600160a01b0316815260200160608152602001600081526020016060815260200160008152602001606081526020016060815260200160608152602001606081526020016060815260200160608152602001606081525090565b6005826040516120339190613d07565b9081526020016040518091039020546000036120865760405162461bcd60e51b815260206004820152601260248201527110d39488191bd95cc81b9bdd08195e1a5cdd60721b6044820152606401610364565b60046005836040516120989190613d07565b908152602001604051809103902054815481106120b7576120b7613d6b565b6000918252602091829020604080516101808101909152600c9092020180546001600160a01b0316825260018101805492939192918401916120f890613b2a565b80601f016020809104026020016040519081016040528092919081815260200182805461212490613b2a565b80156121715780601f1061214657610100808354040283529160200191612171565b820191906000526020600020905b81548152906001019060200180831161215457829003601f168201915b505050505081526020016002820154815260200160038201805461219490613b2a565b80601f01602080910402602001604051908101604052809291908181526020018280546121c090613b2a565b801561220d5780601f106121e25761010080835404028352916020019161220d565b820191906000526020600020905b8154815290600101906020018083116121f057829003601f168201915b505050505081526020016004820154815260200160058201805461223090613b2a565b80601f016020809104026020016040519081016040528092919081815260200182805461225c90613b2a565b80156122a95780601f1061227e576101008083540402835291602001916122a9565b820191906000526020600020905b81548152906001019060200180831161228c57829003601f168201915b505050505081526020016006820180546122c290613b2a565b80601f01602080910402602001604051908101604052809291908181526020018280546122ee90613b2a565b801561233b5780601f106123105761010080835404028352916020019161233b565b820191906000526020600020905b81548152906001019060200180831161231e57829003601f168201915b5050505050815260200160078201805461235490613b2a565b80601f016020809104026020016040519081016040528092919081815260200182805461238090613b2a565b80156123cd5780601f106123a2576101008083540402835291602001916123cd565b820191906000526020600020905b8154815290600101906020018083116123b057829003601f168201915b505050505081526020016008820180546123e690613b2a565b80601f016020809104026020016040519081016040528092919081815260200182805461241290613b2a565b801561245f5780601f106124345761010080835404028352916020019161245f565b820191906000526020600020905b81548152906001019060200180831161244257829003601f168201915b5050505050815260200160098201805461247890613b2a565b80601f01602080910402602001604051908101604052809291908181526020018280546124a490613b2a565b80156124f15780601f106124c6576101008083540402835291602001916124f1565b820191906000526020600020905b8154815290600101906020018083116124d457829003601f168201915b50505050508152602001600a8201805461250a90613b2a565b80601f016020809104026020016040519081016040528092919081815260200182805461253690613b2a565b80156125835780601f1061255857610100808354040283529160200191612583565b820191906000526020600020905b81548152906001019060200180831161256657829003601f168201915b50505050508152602001600b8201805461259c90613b2a565b80601f01602080910402602001604051908101604052809291908181526020018280546125c890613b2a565b80156126155780601f106125ea57610100808354040283529160200191612615565b820191906000526020600020905b8154815290600101906020018083116125f857829003601f168201915b5050505050815250509050919050565b6060600c826040516126379190613d07565b9081526020016040518091039020805480602002602001604051908101604052809291908181526020016000905b82821015610e2257838290600052602060002001805461268490613b2a565b80601f01602080910402602001604051908101604052809291908181526020018280546126b090613b2a565b80156126fd5780601f106126d2576101008083540402835291602001916126fd565b820191906000526020600020905b8154815290600101906020018083116126e057829003601f168201915b505050505081526020019060010190612665565b60606004805480602002602001604051908101604052809291908181526020016000905b82821015611fad576000848152602090819020604080516101808101909152600c850290910180546001600160a01b03168252600181018054929391929184019161277f90613b2a565b80601f01602080910402602001604051908101604052809291908181526020018280546127ab90613b2a565b80156127f85780601f106127cd576101008083540402835291602001916127f8565b820191906000526020600020905b8154815290600101906020018083116127db57829003601f168201915b505050505081526020016002820154815260200160038201805461281b90613b2a565b80601f016020809104026020016040519081016040528092919081815260200182805461284790613b2a565b80156128945780601f1061286957610100808354040283529160200191612894565b820191906000526020600020905b81548152906001019060200180831161287757829003601f168201915b50505050508152602001600482015481526020016005820180546128b790613b2a565b80601f01602080910402602001604051908101604052809291908181526020018280546128e390613b2a565b80156129305780601f1061290557610100808354040283529160200191612930565b820191906000526020600020905b81548152906001019060200180831161291357829003601f168201915b5050505050815260200160068201805461294990613b2a565b80601f016020809104026020016040519081016040528092919081815260200182805461297590613b2a565b80156129c25780601f10612997576101008083540402835291602001916129c2565b820191906000526020600020905b8154815290600101906020018083116129a557829003601f168201915b505050505081526020016007820180546129db90613b2a565b80601f0160208091040260200160405190810160405280929190818152602001828054612a0790613b2a565b8015612a545780601f10612a2957610100808354040283529160200191612a54565b820191906000526020600020905b815481529060010190602001808311612a3757829003601f168201915b50505050508152602001600882018054612a6d90613b2a565b80601f0160208091040260200160405190810160405280929190818152602001828054612a9990613b2a565b8015612ae65780601f10612abb57610100808354040283529160200191612ae6565b820191906000526020600020905b815481529060010190602001808311612ac957829003601f168201915b50505050508152602001600982018054612aff90613b2a565b80601f0160208091040260200160405190810160405280929190818152602001828054612b2b90613b2a565b8015612b785780601f10612b4d57610100808354040283529160200191612b78565b820191906000526020600020905b815481529060010190602001808311612b5b57829003601f168201915b50505050508152602001600a82018054612b9190613b2a565b80601f0160208091040260200160405190810160405280929190818152602001828054612bbd90613b2a565b8015612c0a5780601f10612bdf57610100808354040283529160200191612c0a565b820191906000526020600020905b815481529060010190602001808311612bed57829003601f168201915b50505050508152602001600b82018054612c2390613b2a565b80601f0160208091040260200160405190810160405280929190818152602001828054612c4f90613b2a565b8015612c9c5780601f10612c7157610100808354040283529160200191612c9c565b820191906000526020600020905b815481529060010190602001808311612c7f57829003601f168201915b50505050508152505081526020019060010190612735565b508054612cc090613b2a565b6000825580601f10612cd0575050565b601f016020900490600052602060002090810190612cee9190612cf1565b50565b5b80821115612d065760008155600101612cf2565b5090565b634e487b7160e01b600052604160045260246000fd5b604080519081016001600160401b0381118282101715612d4257612d42612d0a565b60405290565b60405160c081016001600160401b0381118282101715612d4257612d42612d0a565b604051601f8201601f191681016001600160401b0381118282101715612d9257612d92612d0a565b604052919050565b600082601f830112612dab57600080fd5b81356001600160401b03811115612dc457612dc4612d0a565b612dd7601f8201601f1916602001612d6a565b818152846020838601011115612dec57600080fd5b816020850160208301376000918101602001919091529392505050565b60008060008060008060008060008060006101608c8e031215612e2b57600080fd5b6001600160401b03808d351115612e4157600080fd5b612e4e8e8e358f01612d9a565b9b5060208d01359a508060408e01351115612e6857600080fd5b612e788e60408f01358f01612d9a565b995060608d013598508060808e01351115612e9257600080fd5b612ea28e60808f01358f01612d9a565b97508060a08e01351115612eb557600080fd5b612ec58e60a08f01358f01612d9a565b96508060c08e01351115612ed857600080fd5b612ee88e60c08f01358f01612d9a565b95508060e08e01351115612efb57600080fd5b612f0b8e60e08f01358f01612d9a565b9450806101008e01351115612f1f57600080fd5b612f308e6101008f01358f01612d9a565b9350806101208e01351115612f4457600080fd5b612f558e6101208f01358f01612d9a565b9250806101408e01351115612f6957600080fd5b50612f7b8d6101408e01358e01612d9a565b90509295989b509295989b9093969950565b600080600080600080600060e0888a031215612fa857600080fd5b87356001600160401b0380821115612fbf57600080fd5b612fcb8b838c01612d9a565b985060208a0135915080821115612fe157600080fd5b612fed8b838c01612d9a565b975060408a013591508082111561300357600080fd5b61300f8b838c01612d9a565b965060608a013591508082111561302557600080fd5b6130318b838c01612d9a565b955060808a013591508082111561304757600080fd5b6130538b838c01612d9a565b945060a08a013591508082111561306957600080fd5b6130758b838c01612d9a565b935060c08a013591508082111561308b57600080fd5b506130988a828b01612d9a565b91505092959891949750929550565b600080600080600060a086880312156130bf57600080fd5b85356001600160401b03808211156130d657600080fd5b6130e289838a01612d9a565b965060208801359150808211156130f857600080fd5b61310489838a01612d9a565b9550604088013591508082111561311a57600080fd5b61312689838a01612d9a565b9450606088013591508082111561313c57600080fd5b61314889838a01612d9a565b9350608088013591508082111561315e57600080fd5b5061316b88828901612d9a565b9150509295509295909350565b6000806040838503121561318b57600080fd5b82356001600160401b03808211156131a257600080fd5b6131ae86838701612d9a565b935060208501359150808211156131c457600080fd5b506131d185828601612d9a565b9150509250929050565b60006001600160401b038211156131f4576131f4612d0a565b5060051b60200190565b600080604080848603121561321257600080fd5b83356001600160401b038082111561322957600080fd5b61323587838801612d9a565b945060209150818601358181111561324c57600080fd5b8601601f8101881361325d57600080fd5b803561327061326b826131db565b612d6a565b81815260059190911b8201840190848101908a83111561328f57600080fd5b8584015b8381101561331f578035868111156132ab5760008081fd5b8501808d03601f19018913156132c15760008081fd5b6132c9612d20565b88820135888111156132db5760008081fd5b6132e98f8b83860101612d9a565b82525089820135888111156132fe5760008081fd5b61330c8f8b83860101612d9a565b828b015250845250918601918601613293565b50809750505050505050509250929050565b60006020828403121561334357600080fd5b81356001600160401b0381111561335957600080fd5b61336584828501612d9a565b949350505050565b60005b83811015613388578181015183820152602001613370565b50506000910152565b600081518084526133a981602086016020860161336d565b601f01601f19169290920160200192915050565b60006020808301818452808551808352604092508286019150828160051b87010184880160005b8381101561343457888303603f190185528151805187855261340888860182613391565b91890151858303868b01529190506134208183613391565b9689019694505050908601906001016133e4565b509098975050505050505050565b86815260c06020820152600061345b60c0830188613391565b828103604084015261346d8188613391565b905082810360608401526134818187613391565b905082810360808401526134958186613391565b905082810360a08401526134a98185613391565b9998505050505050505050565b60006020808301818452808551808352604092508286019150828160051b87010184880160005b8381101561343457603f1989840301855281516080815181865261350382870182613391565b915050888201518582038a87015261351b8282613391565b91505087820151858203898701526135338282613391565b915050606080830151925085820381870152506135508183613391565b9689019694505050908601906001016134dd565b6000806040838503121561357757600080fd5b82356001600160401b038082111561358e57600080fd5b61359a86838701612d9a565b93506020915081850135818111156135b157600080fd5b8501601f810187136135c257600080fd5b80356135d061326b826131db565b81815260059190911b820184019084810190898311156135ef57600080fd5b8584015b8381101561371b5780358681111561360a57600080fd5b850160c0818d03601f1901121561362057600080fd5b613628612d48565b888201358881111561363957600080fd5b6136478e8b83860101612d9a565b82525060408201358881111561365c57600080fd5b61366a8e8b83860101612d9a565b8a8301525060608201358881111561368157600080fd5b61368f8e8b83860101612d9a565b6040830152506080820135888111156136a85760008081fd5b6136b68e8b83860101612d9a565b60608301525060a080830135898111156136d05760008081fd5b6136de8f8c83870101612d9a565b60808401525060c0830135898111156136f75760008081fd5b6137058f8c83870101612d9a565b91830191909152508452509186019186016135f3565b508096505050505050509250929050565b600080600080600060a0868803121561374457600080fd5b85356001600160a01b038116811461375b57600080fd5b945060208601356001600160401b03808211156130f857600080fd5b60006020808301818452808551808352604092508286019150828160051b87010184880160005b8381101561343457603f19898403018552815160c081518186526137c482870182613391565b915050888201518582038a8701526137dc8282613391565b91505087820151858203898701526137f48282613391565b9150506060808301518683038288015261380e8382613391565b92505050608080830151868303828801526138298382613391565b9250505060a080830151925085820381870152506138478183613391565b96890196945050509086019060010161379e565b60006020808301818452808551808352604092508286019150828160051b87010184880160005b8381101561343457888303603f19018552815180516001600160a01b031684528781015160c0898601819052906138bb82870182613391565b9150508782015188860152606080830151868303828801526138dd8382613391565b92505050608080830151868303828801526138f88382613391565b9250505060a080830151925085820381870152506139168183613391565b968901969450505090860190600101613882565b80516001600160a01b031682526000610180602083015181602086015261395382860182613391565b91505060408301516040850152606083015184820360608601526139778282613391565b9150506080830151608085015260a083015184820360a086015261399b8282613391565b91505060c083015184820360c08601526139b58282613391565b91505060e083015184820360e08601526139cf8282613391565b91505061010080840151858303828701526139ea8382613391565b925050506101208084015185830382870152613a068382613391565b925050506101408084015185830382870152613a228382613391565b925050506101608084015185830382870152613a3e8382613391565b9695505050505050565b602081526000613a5b602083018461392a565b9392505050565b6000602080830181845280855180835260408601915060408160051b870101925083870160005b82811015613ab757603f19888603018452613aa5858351613391565b94509285019290850190600101613a89565b5092979650505050505050565b6000602080830181845280855180835260408601915060408160051b870101925083870160005b82811015613ab757603f19888603018452613b0785835161392a565b94509285019290850190600101613aeb565b6418dbdd5c9d60da1b815260050190565b600181811c90821680613b3e57607f821691505b602082108103613b5e57634e487b7160e01b600052602260045260246000fd5b50919050565b6000808354613b7281613b2a565b60018281168015613b8a5760018114613b9f57613bce565b60ff1984168752821515830287019450613bce565b8760005260208060002060005b85811015613bc55781548a820152908401908201613bac565b50505082870194505b50929695505050505050565b6020808252600e908201526d139bdd08185d5d1a1bdc9a5e995960921b604082015260600190565b601f821115610abe57600081815260208120601f850160051c81016020861015613c295750805b601f850160051c820191505b8181101561190957828155600101613c35565b81516001600160401b03811115613c6157613c61612d0a565b613c7581613c6f8454613b2a565b84613c02565b602080601f831160018114613caa5760008415613c925750858301515b600019600386901b1c1916600185901b178555611909565b600085815260208120601f198616915b82811015613cd957888601518255948401946001909101908401613cba565b5085821015613cf75787850151600019600388901b60f8161c191681555b5050505050600190811b01905550565b60008251613d1981846020870161336d565b9190910192915050565b634e487b7160e01b600052601160045260246000fd5b600060018201613d4b57613d4b613d23565b5060010190565b81810381811115613d6557613d65613d23565b92915050565b634e487b7160e01b600052603260045260246000fd5b818103613d8c575050565b613d968254613b2a565b6001600160401b03811115613dad57613dad612d0a565b613dbb81613c6f8454613b2a565b6000601f821160018114613def5760008315613dd75750848201545b600019600385901b1c1916600184901b178455613e54565b600085815260209020601f19841690600086815260209020845b83811015613e295782860154825560019586019590910190602001613e09565b5085831015613e475781850154600019600388901b60f8161c191681555b50505060018360011b0184555b5050505050565b634e487b7160e01b600052603160045260246000fdfea264697066735822122017adbeb1970ba607cb90df5f49c9833e76a4818a69ebe9ab993d8f92b5519b9664736f6c63430008130033",
  "immutableReferences": {},
  "source": "// SPDX-License-Identifier: GPL-3.0\r\n\r\npragma solidity >=0.8.2 <0.9.0;\r\n\r\n/**\r\n * @title Storage\r\n * @dev Store & retrieve value in a variable\r\n * @custom:dev-run-script ./scripts/deploy_with_ethers.ts\r\n */\r\ncontract LawVertex {\r\n\r\n  // constructor() payable {}\r\n  // receive() external payable {}\r\n\r\n  address public contractOwner;\r\n  address private admin;\r\n  uint public caseCount;\r\n\r\n  \r\n\r\n  struct ActStruct{\r\n    string name;\r\n    string section;\r\n  } \r\n\r\n  struct History{\r\n    string judge;\r\n    string date;\r\n    string next_hearing_date;\r\n    string next_hearing_purpose;\r\n    string business;\r\n    string presentee;\r\n  }\r\n\r\n  struct CaseInfo {\r\n    uint _id;\r\n    string pet;\r\n    string res;\r\n\r\n    //FIR Details\r\n    string police_station;\r\n    string fir_no;\r\n    string year;\r\n  }\r\n\r\n  struct Case {\r\n    //Case Details\r\n    address owner;\r\n    string case_type;\r\n    uint filing_no;\r\n    string filing_date;\r\n    uint reg_no;\r\n    string reg_date;\r\n    string cnr;\r\n\r\n    //Case Status\r\n    string first_hearing;\r\n    string next_hearing;\r\n    string stage;\r\n    string court_no;\r\n    string judge;\r\n  }\r\n  \r\n  struct Court {\r\n    address owner;\r\n    string court_type;\r\n    uint slno;\r\n    string name;\r\n    string location;\r\n    string tel;\r\n  }\r\n\r\n  struct Party {\r\n    string party;\r\n    string name;\r\n    string lead_adv;\r\n    string location;\r\n  }\r\n\r\n  Court[] courts;\r\n  Case[] cases;\r\n\r\n  mapping(string => uint256) cnr_cases; //cnr->case\r\n  mapping(string => CaseInfo) public infos; //cnr->case_info\r\n  mapping(string => string) status; //cnr->status\r\n  mapping(string => ActStruct[]) acts;\r\n  mapping(string => History[]) histories;\r\n  mapping(string => Party[]) parties;\r\n  mapping(address => string) roles;\r\n  mapping(string => string[]) docs; //cnr -> documents\r\n\r\n    \r\n  constructor() {\r\n    contractOwner = msg.sender;\r\n    admin = msg.sender;\r\n    caseCount = 1;\r\n    cases.push(Case(msg.sender,\"\",0,\"\",0,\"\",\"invalid\",\"\",\"\",\"\",\"\",\"\"));\r\n  }\r\n\r\n  function getAllCourts () external view returns (Court[] memory){\r\n    return courts;\r\n  }\r\n\r\n  function getActs (string memory _cnr) external view returns(ActStruct[] memory){\r\n    return acts[_cnr];\r\n  }\r\n\r\n  function getHistory (string memory _cnr) external view returns(History[] memory){\r\n    return histories[_cnr];\r\n  }\r\n\r\n  function getAllCases () external view returns (Case[] memory){\r\n    return cases;\r\n  }\r\n\r\n  function addCourt(\r\n    address _owner,\r\n    string memory _court_type,\r\n    string memory _name,\r\n    string memory _location,\r\n    string memory _tel\r\n  ) external {\r\n    require(msg.sender==admin, \"Not authorized\");\r\n    courts.push(Court(_owner,_court_type,courts.length,_name,_location,_tel));\r\n    roles[_owner] = \"court\";\r\n  }\r\n\r\n  function addParty(\r\n    string memory _cnr,\r\n    string memory _party,\r\n    string memory _name,\r\n    string memory _lead_adv,\r\n    string memory _location\r\n  ) external {\r\n    require(keccak256(abi.encodePacked(roles[msg.sender])) == keccak256(abi.encodePacked(\"court\")), \"Not authorized\");\r\n    parties[_cnr].push(Party(_party,_name,_lead_adv,_location));\r\n  }\r\n\r\n  function addCase(\r\n    //Case Details\r\n    string memory _case_type,\r\n    uint _filing_no,\r\n    string memory _filing_date,\r\n    uint _reg_no,\r\n    string memory _reg_date,\r\n    string memory _cnr,\r\n\r\n    //  Case Status\r\n    string memory _first_hearing,\r\n    string memory _next_hearing,\r\n    string memory _stage,\r\n    string memory _court_no,\r\n    string memory _judge\r\n  ) external {\r\n    require(keccak256(abi.encodePacked(roles[msg.sender])) == keccak256(abi.encodePacked(\"court\")), \"Not authorized\");\r\n    cases.push(Case(msg.sender,_case_type,_filing_no,_filing_date,_reg_no,_reg_date,_cnr,_first_hearing,_next_hearing,_stage,\r\n      _court_no,\r\n      _judge\r\n    ));\r\n\r\n    cnr_cases[_cnr]=caseCount;\r\n    \r\n    caseCount++;\r\n  }\r\n\r\n  function viewCase(string memory _cnr) external view returns (Case memory){\r\n    require(cnr_cases[_cnr]!=0,\"CNR does not exist\");\r\n    return cases[cnr_cases[_cnr]];\r\n  }\r\n\r\n  function addAct(\r\n    string memory _cnr,\r\n    ActStruct[] memory _acts\r\n  )external{\r\n    require(keccak256(abi.encodePacked(roles[msg.sender])) == keccak256(abi.encodePacked(\"court\")), \"Not authorized\");\r\n\r\n    while(acts[_cnr].length!=0){\r\n      acts[_cnr].pop();\r\n    }\r\n\r\n    for(uint i=0;i<_acts.length;i++){\r\n      acts[_cnr].push(ActStruct(_acts[i].name,_acts[i].section));\r\n    }\r\n  }\r\n\r\n  function addHistory(\r\n    string memory _cnr,\r\n    History[] memory _histories\r\n  )external{\r\n    require(keccak256(abi.encodePacked(roles[msg.sender])) == keccak256(abi.encodePacked(\"court\")), \"Not authorized\");\r\n\r\n    while(acts[_cnr].length!=0){\r\n      acts[_cnr].pop();\r\n    }\r\n\r\n    for(uint i=0;i<_histories.length;i++){\r\n      histories[_cnr].push(History(\r\n        _histories[i].judge,\r\n        _histories[i].date,\r\n        _histories[i].next_hearing_date,\r\n        _histories[i].next_hearing_purpose,\r\n        _histories[i].business,\r\n        _histories[i].presentee\r\n      ));\r\n    }\r\n  }\r\n\r\n  function updateCase(\r\n    //  Case Status\r\n    string memory _cnr,\r\n    string memory _next_hearing,\r\n    string memory _stage,\r\n    string memory _court_no,\r\n    string memory _judge\r\n  ) external {\r\n\r\n    Case storage newCase = cases[cnr_cases[_cnr]];\r\n\r\n    require(newCase.owner==msg.sender && keccak256(abi.encodePacked(roles[msg.sender])) == keccak256(abi.encodePacked(\"court\")), \"Not authorized\");\r\n\r\n    newCase.next_hearing = _next_hearing;\r\n    newCase.stage = _stage;\r\n    newCase.court_no = _court_no;\r\n    newCase.judge = _judge;\r\n\r\n    newCase.next_hearing = _next_hearing;\r\n    newCase.stage = _stage;\r\n    newCase.court_no = _court_no;\r\n    newCase.judge = _judge;\r\n\r\n    for (uint j = 0; j < cases.length; j++) {\r\n        if(keccak256(abi.encodePacked(cases[j].cnr)) == keccak256(abi.encodePacked(_cnr))){\r\n            cases[j] = newCase;\r\n            break;\r\n        }\r\n    }\r\n  }\r\n\r\n  // Use for both creating and updateing\r\n  function addCaseInfo(\r\n    string memory _cnr,\r\n    string memory _pet,\r\n    string memory _res,\r\n    string memory _status,\r\n    string memory _police_station,\r\n    string memory _fir_no,\r\n    string memory _year\r\n  ) external {\r\n    \r\n    CaseInfo storage newCaseInfo = infos[_cnr];\r\n    require(cases[caseCount-1].owner==msg.sender && keccak256(abi.encodePacked(roles[msg.sender])) == keccak256(abi.encodePacked(\"court\")), \"Not authorized\");\r\n\r\n    newCaseInfo._id = caseCount-1;\r\n    status[_cnr]=_status;\r\n    newCaseInfo.pet =_pet;\r\n    newCaseInfo.res =_res;\r\n    newCaseInfo.police_station =_police_station;\r\n    newCaseInfo.fir_no =_fir_no;\r\n    newCaseInfo.year =_year;\r\n  }\r\n\r\n  function getParties(string memory _cnr)external view returns(Party[] memory){\r\n    return parties[_cnr];\r\n  }\r\n\r\n  function addPublicDocument(string memory _cnr,string memory _url) external {\r\n      require(msg.sender==cases[cnr_cases[_cnr]].owner, \"You don't have permission to publish public documents\");\r\n      docs[_cnr].push(_url);\r\n  }\r\n\r\n  function viewPublicDocuments(string memory _cnr)external view returns(string[] memory){\r\n    return docs[_cnr];\r\n  }\r\n}\r\n\r\n",
  "sourcePath": "C:\\Users\\Aprameya\\Desktop\\LawVertex\\web3\\contracts\\LawVertex.sol",
  "compiler": {
    "name": "solc",
    "version": "0.8.19+commit.7dd6d404.Emscripten.clang"
  },
  "schemaVersion": "3.4.16",
  "updatedAt": "2024-05-01T05:47:28.456Z",
  "networkType": "ethereum",
  "devdoc": {
    "custom:dev-run-script": "./scripts/deploy_with_ethers.ts",
    "details": "Store & retrieve value in a variable",
    "kind": "dev",
    "methods": {},
    "title": "Storage",
    "version": 1
  },
  "userdoc": {
    "kind": "user",
    "methods": {},
    "version": 1
  }
}