{
  "contractName": "LawVertex",
  "abi": [
    {
      "inputs": [],
      "stateMutability": "nonpayable",
      "type": "constructor"
    },
    {
      "inputs": [],
      "name": "caseCount",
      "outputs": [
        {
          "internalType": "uint256",
          "name": "",
          "type": "uint256"
        }
      ],
      "stateMutability": "view",
      "type": "function",
      "constant": true
    },
    {
      "inputs": [],
      "name": "contractOwner",
      "outputs": [
        {
          "internalType": "address",
          "name": "",
          "type": "address"
        }
      ],
      "stateMutability": "view",
      "type": "function",
      "constant": true
    },
    {
      "inputs": [
        {
          "internalType": "string",
          "name": "",
          "type": "string"
        },
        {
          "internalType": "uint256",
          "name": "",
          "type": "uint256"
        }
      ],
      "name": "docs",
      "outputs": [
        {
          "internalType": "string",
          "name": "",
          "type": "string"
        }
      ],
      "stateMutability": "view",
      "type": "function",
      "constant": true
    },
    {
      "inputs": [
        {
          "internalType": "string",
          "name": "",
          "type": "string"
        }
      ],
      "name": "infos",
      "outputs": [
        {
          "internalType": "uint256",
          "name": "_id",
          "type": "uint256"
        },
        {
          "internalType": "string",
          "name": "pet",
          "type": "string"
        },
        {
          "internalType": "string",
          "name": "res",
          "type": "string"
        },
        {
          "internalType": "string",
          "name": "police_station",
          "type": "string"
        },
        {
          "internalType": "string",
          "name": "fir_no",
          "type": "string"
        },
        {
          "internalType": "string",
          "name": "year",
          "type": "string"
        },
        {
          "internalType": "string",
          "name": "loc",
          "type": "string"
        }
      ],
      "stateMutability": "view",
      "type": "function",
      "constant": true
    },
    {
      "inputs": [],
      "name": "getAllCourts",
      "outputs": [
        {
          "components": [
            {
              "internalType": "address",
              "name": "owner",
              "type": "address"
            },
            {
              "internalType": "string",
              "name": "court_type",
              "type": "string"
            },
            {
              "internalType": "uint256",
              "name": "slno",
              "type": "uint256"
            },
            {
              "internalType": "string",
              "name": "name",
              "type": "string"
            },
            {
              "internalType": "string",
              "name": "location",
              "type": "string"
            },
            {
              "internalType": "string",
              "name": "tel",
              "type": "string"
            }
          ],
          "internalType": "struct LawVertex.Court[]",
          "name": "",
          "type": "tuple[]"
        }
      ],
      "stateMutability": "view",
      "type": "function",
      "constant": true
    },
    {
      "inputs": [
        {
          "internalType": "string",
          "name": "_cnr",
          "type": "string"
        }
      ],
      "name": "getActs",
      "outputs": [
        {
          "components": [
            {
              "internalType": "string",
              "name": "name",
              "type": "string"
            },
            {
              "internalType": "string",
              "name": "section",
              "type": "string"
            }
          ],
          "internalType": "struct LawVertex.ActStruct[]",
          "name": "",
          "type": "tuple[]"
        }
      ],
      "stateMutability": "view",
      "type": "function",
      "constant": true
    },
    {
      "inputs": [
        {
          "internalType": "string",
          "name": "_cnr",
          "type": "string"
        },
        {
          "internalType": "string",
          "name": "_party",
          "type": "string"
        }
      ],
      "name": "getAdvocate",
      "outputs": [
        {
          "internalType": "address[]",
          "name": "",
          "type": "address[]"
        }
      ],
      "stateMutability": "view",
      "type": "function",
      "constant": true
    },
    {
      "inputs": [
        {
          "internalType": "address",
          "name": "_advAddress",
          "type": "address"
        },
        {
          "internalType": "string",
          "name": "_cnr",
          "type": "string"
        }
      ],
      "name": "getAdocateRole",
      "outputs": [
        {
          "internalType": "string",
          "name": "",
          "type": "string"
        }
      ],
      "stateMutability": "view",
      "type": "function",
      "constant": true
    },
    {
      "inputs": [],
      "name": "getAllParties",
      "outputs": [
        {
          "components": [
            {
              "internalType": "address",
              "name": "owner",
              "type": "address"
            },
            {
              "internalType": "address",
              "name": "lead_adv_add",
              "type": "address"
            },
            {
              "internalType": "uint256",
              "name": "slno",
              "type": "uint256"
            },
            {
              "internalType": "string",
              "name": "name",
              "type": "string"
            },
            {
              "internalType": "string",
              "name": "cnr",
              "type": "string"
            },
            {
              "internalType": "string",
              "name": "location",
              "type": "string"
            },
            {
              "internalType": "string",
              "name": "email",
              "type": "string"
            },
            {
              "internalType": "string",
              "name": "phone",
              "type": "string"
            },
            {
              "internalType": "string",
              "name": "lead_adv",
              "type": "string"
            }
          ],
          "internalType": "struct LawVertex.Party[]",
          "name": "",
          "type": "tuple[]"
        }
      ],
      "stateMutability": "view",
      "type": "function",
      "constant": true
    },
    {
      "inputs": [],
      "name": "getAllCases",
      "outputs": [
        {
          "components": [
            {
              "internalType": "address",
              "name": "owner",
              "type": "address"
            },
            {
              "internalType": "string",
              "name": "case_type",
              "type": "string"
            },
            {
              "internalType": "uint256",
              "name": "filing_no",
              "type": "uint256"
            },
            {
              "internalType": "string",
              "name": "filing_date",
              "type": "string"
            },
            {
              "internalType": "uint256",
              "name": "reg_no",
              "type": "uint256"
            },
            {
              "internalType": "string",
              "name": "reg_date",
              "type": "string"
            },
            {
              "internalType": "string",
              "name": "cnr",
              "type": "string"
            },
            {
              "internalType": "string",
              "name": "first_hearing",
              "type": "string"
            },
            {
              "internalType": "string",
              "name": "next_hearing",
              "type": "string"
            },
            {
              "internalType": "string",
              "name": "stage",
              "type": "string"
            },
            {
              "internalType": "address",
              "name": "court_address",
              "type": "address"
            },
            {
              "internalType": "string",
              "name": "court_no",
              "type": "string"
            },
            {
              "internalType": "string",
              "name": "judge",
              "type": "string"
            }
          ],
          "internalType": "struct LawVertex.Case[]",
          "name": "",
          "type": "tuple[]"
        }
      ],
      "stateMutability": "view",
      "type": "function",
      "constant": true
    },
    {
      "inputs": [
        {
          "internalType": "address",
          "name": "_owner",
          "type": "address"
        },
        {
          "internalType": "string",
          "name": "_court_type",
          "type": "string"
        },
        {
          "internalType": "string",
          "name": "_name",
          "type": "string"
        },
        {
          "internalType": "string",
          "name": "_location",
          "type": "string"
        },
        {
          "internalType": "string",
          "name": "_tel",
          "type": "string"
        }
      ],
      "name": "addCourt",
      "outputs": [],
      "stateMutability": "nonpayable",
      "type": "function"
    },
    {
      "inputs": [
        {
          "internalType": "address",
          "name": "_owner",
          "type": "address"
        },
        {
          "internalType": "address",
          "name": "_lead_adv_add",
          "type": "address"
        },
        {
          "internalType": "string",
          "name": "_name",
          "type": "string"
        },
        {
          "internalType": "string",
          "name": "_cnr",
          "type": "string"
        },
        {
          "internalType": "string",
          "name": "_location",
          "type": "string"
        },
        {
          "internalType": "string",
          "name": "_email",
          "type": "string"
        },
        {
          "internalType": "string",
          "name": "_phone",
          "type": "string"
        },
        {
          "internalType": "string",
          "name": "_lead_adv",
          "type": "string"
        }
      ],
      "name": "addParty",
      "outputs": [],
      "stateMutability": "nonpayable",
      "type": "function"
    },
    {
      "inputs": [
        {
          "internalType": "string",
          "name": "_case_type",
          "type": "string"
        },
        {
          "internalType": "uint256",
          "name": "_filing_no",
          "type": "uint256"
        },
        {
          "internalType": "string",
          "name": "_filing_date",
          "type": "string"
        },
        {
          "internalType": "uint256",
          "name": "_reg_no",
          "type": "uint256"
        },
        {
          "internalType": "string",
          "name": "_reg_date",
          "type": "string"
        },
        {
          "internalType": "string",
          "name": "_cnr",
          "type": "string"
        },
        {
          "internalType": "string",
          "name": "_first_hearing",
          "type": "string"
        },
        {
          "internalType": "string",
          "name": "_next_hearing",
          "type": "string"
        },
        {
          "internalType": "string",
          "name": "_stage",
          "type": "string"
        },
        {
          "internalType": "string",
          "name": "_court_no",
          "type": "string"
        },
        {
          "internalType": "string",
          "name": "_judge",
          "type": "string"
        }
      ],
      "name": "addCase",
      "outputs": [],
      "stateMutability": "nonpayable",
      "type": "function"
    },
    {
      "inputs": [
        {
          "internalType": "string",
          "name": "_cnr",
          "type": "string"
        }
      ],
      "name": "viewCase",
      "outputs": [
        {
          "components": [
            {
              "internalType": "address",
              "name": "owner",
              "type": "address"
            },
            {
              "internalType": "string",
              "name": "case_type",
              "type": "string"
            },
            {
              "internalType": "uint256",
              "name": "filing_no",
              "type": "uint256"
            },
            {
              "internalType": "string",
              "name": "filing_date",
              "type": "string"
            },
            {
              "internalType": "uint256",
              "name": "reg_no",
              "type": "uint256"
            },
            {
              "internalType": "string",
              "name": "reg_date",
              "type": "string"
            },
            {
              "internalType": "string",
              "name": "cnr",
              "type": "string"
            },
            {
              "internalType": "string",
              "name": "first_hearing",
              "type": "string"
            },
            {
              "internalType": "string",
              "name": "next_hearing",
              "type": "string"
            },
            {
              "internalType": "string",
              "name": "stage",
              "type": "string"
            },
            {
              "internalType": "address",
              "name": "court_address",
              "type": "address"
            },
            {
              "internalType": "string",
              "name": "court_no",
              "type": "string"
            },
            {
              "internalType": "string",
              "name": "judge",
              "type": "string"
            }
          ],
          "internalType": "struct LawVertex.Case",
          "name": "",
          "type": "tuple"
        }
      ],
      "stateMutability": "view",
      "type": "function",
      "constant": true
    },
    {
      "inputs": [
        {
          "internalType": "string",
          "name": "_cnr",
          "type": "string"
        },
        {
          "components": [
            {
              "internalType": "string",
              "name": "name",
              "type": "string"
            },
            {
              "internalType": "string",
              "name": "section",
              "type": "string"
            }
          ],
          "internalType": "struct LawVertex.ActStruct[]",
          "name": "_acts",
          "type": "tuple[]"
        }
      ],
      "name": "addAct",
      "outputs": [],
      "stateMutability": "nonpayable",
      "type": "function"
    },
    {
      "inputs": [
        {
          "internalType": "string",
          "name": "_cnr",
          "type": "string"
        },
        {
          "internalType": "address[]",
          "name": "_adv_addresses",
          "type": "address[]"
        },
        {
          "internalType": "string[]",
          "name": "_parties",
          "type": "string[]"
        },
        {
          "internalType": "string[]",
          "name": "_roles",
          "type": "string[]"
        }
      ],
      "name": "updateAdvocates",
      "outputs": [],
      "stateMutability": "nonpayable",
      "type": "function"
    },
    {
      "inputs": [
        {
          "internalType": "string",
          "name": "_cnr",
          "type": "string"
        },
        {
          "internalType": "string",
          "name": "_next_hearing",
          "type": "string"
        },
        {
          "internalType": "string",
          "name": "_stage",
          "type": "string"
        },
        {
          "internalType": "string",
          "name": "_court_no",
          "type": "string"
        },
        {
          "internalType": "string",
          "name": "_judge",
          "type": "string"
        }
      ],
      "name": "updateCase",
      "outputs": [],
      "stateMutability": "nonpayable",
      "type": "function"
    },
    {
      "inputs": [
        {
          "internalType": "string",
          "name": "_cnr",
          "type": "string"
        },
        {
          "internalType": "string",
          "name": "_pet",
          "type": "string"
        },
        {
          "internalType": "string",
          "name": "_res",
          "type": "string"
        },
        {
          "internalType": "string",
          "name": "_status",
          "type": "string"
        },
        {
          "internalType": "string",
          "name": "_police_station",
          "type": "string"
        },
        {
          "internalType": "string",
          "name": "_fir_no",
          "type": "string"
        },
        {
          "internalType": "string",
          "name": "_year",
          "type": "string"
        }
      ],
      "name": "addCaseInfo",
      "outputs": [],
      "stateMutability": "nonpayable",
      "type": "function"
    },
    {
      "inputs": [
        {
          "internalType": "string",
          "name": "_cnr",
          "type": "string"
        },
        {
          "internalType": "string",
          "name": "_pet",
          "type": "string"
        },
        {
          "internalType": "string",
          "name": "_status",
          "type": "string"
        },
        {
          "internalType": "string",
          "name": "_res",
          "type": "string"
        }
      ],
      "name": "updateCaseInfo",
      "outputs": [],
      "stateMutability": "nonpayable",
      "type": "function"
    },
    {
      "inputs": [
        {
          "internalType": "string",
          "name": "_cnr",
          "type": "string"
        },
        {
          "internalType": "string",
          "name": "_url",
          "type": "string"
        }
      ],
      "name": "addPublicDocument",
      "outputs": [],
      "stateMutability": "nonpayable",
      "type": "function"
    }
  ],
  "bytecode": "0x608060405234801561001057600080fd5b50600080546001600160a01b03199081163390811783556001805490921617905560025561446f806100436000396000f3fe608060405234801561001057600080fd5b506004361061012c5760003560e01c80637b973bd0116100ad578063ce606ee011610071578063ce606ee014610295578063da2d7e95146102c0578063e3c5c3f5146102d7578063e569190f146102ec578063fb40c22a1461030c57600080fd5b80637b973bd0146102215780639491b64014610247578063b867bfcc1461025a578063cbdf56271461026f578063cd0ade351461028257600080fd5b806342a5275d116100f457806342a5275d146101a85780634a1c12e9146101bb5780634b7601af146101db5780635ec0f985146101ee57806374e2e48d1461020157600080fd5b80630f4df901146101315780631401f7f91461015a5780632a6d600c1461016f5780632c9bd309146101825780633ff4441c14610195575b600080fd5b61014461013f366004613204565b610321565b6040516101519190613267565b60405180910390f35b61016d6101683660046132b4565b6103b9565b005b61016d61017d366004613438565b610657565b61016d610190366004613552565b610863565b61016d6101a3366004613204565b610b78565b61016d6101b636600461363f565b610c6f565b6101ce6101c9366004613756565b610ec3565b60405161015191906137ea565b61016d6101e9366004613804565b610f8b565b61016d6101fc3660046138d3565b6110d5565b61021461020f366004613a06565b61129e565b6040516101519190613a42565b61023461022f366004613a06565b61143f565b6040516101519796959493929190613ac7565b61016d610255366004613bda565b6117b5565b610262611bfc565b6040516101519190613cd5565b6101ce61027d366004613df0565b611ff6565b61016d610290366004613e33565b6120b6565b6000546102a8906001600160a01b031681565b6040516001600160a01b039091168152602001610151565b6102c960025481565b604051908152602001610151565b6102df612226565b6040516101519190613e70565b6102ff6102fa366004613a06565b6124e4565b604051610151919061407a565b610314612b17565b604051610151919061408d565b6060600c8360405161033391906140ef565b90815260200160405180910390208260405161034f91906140ef565b90815260408051918290036020908101832080548083028501830190935282845291908301828280156103ab57602002820191906000526020600020905b81546001600160a01b0316815260019091019060200180831161038d575b505050505090505b92915050565b6040516020016103c89061410b565b60408051601f198184030181528282528051602091820120336000908152600a83529290922091926103fb929101614156565b60405160208183030381529060405280519060200120146104375760405162461bcd60e51b815260040161042e906141cc565b60405180910390fd5b604080516101a08101825233808252602082018e81529282018d9052606082018c9052608082018b905260a082018a905260c0820189905260e0820188905261010082018790526101208201869052610140820152610160810184905261018081018390526005805460018101825560009190915281517f036b6384b5eca791c62761152d0c79bb0604c104a5fb6f4eb0703f3154bb3db0600d90920291820180546001600160a01b0319166001600160a01b0390921691909117815592519192917f036b6384b5eca791c62761152d0c79bb0604c104a5fb6f4eb0703f3154bb3db190910190610528908261423a565b506040820151600282015560608201516003820190610547908261423a565b506080820151600482015560a08201516005820190610566908261423a565b5060c0820151600682019061057b908261423a565b5060e08201516007820190610590908261423a565b5061010082015160088201906105a6908261423a565b5061012082015160098201906105bc908261423a565b50610140820151600a820180546001600160a01b0319166001600160a01b03909216919091179055610160820151600b8201906105f9908261423a565b50610180820151600c82019061060f908261423a565b50505060025460068760405161062591906140ef565b90815260405190819003602001902055600280549060006106458361430f565b91905055505050505050505050505050565b600060078860405161066991906140ef565b90815260200160405180910390209050336001600160a01b0316600560016002546106949190614328565b815481106106a4576106a461433b565b60009182526020909120600a600d9092020101546001600160a01b031614801561072357506040516020016106d89061410b565b60408051601f198184030181528282528051602091820120336000908152600a835292909220919261070b929101614156565b60405160208183030381529060405280519060200120145b61073f5760405162461bcd60e51b815260040161042e906141cc565b600160025461074e9190614328565b81556040518590600890610763908b906140ef565b9081526020016040518091039020908161077d919061423a565b506001810161078c888261423a565b506002810161079b878261423a565b50600381016107aa858261423a565b50600481016107b9848261423a565b50600581016107c8838261423a565b5060005b60035481101561085757600381815481106107e9576107e961433b565b60009182526020909120600690910201546001600160a01b03163303610845576003818154811061081c5761081c61433b565b906000526020600020906006020160040182600601908161083d9190614351565b50505061085a565b8061084f8161430f565b9150506107cc565b50505b50505050505050565b6000600560068760405161087791906140ef565b908152602001604051809103902054815481106108965761089661433b565b60009182526020909120600a600d90920201908101549091506001600160a01b03163314801561091b57506040516020016108d09061410b565b60408051601f198184030181528282528051602091820120336000908152600a8352929092209192610903929101614156565b60405160208183030381529060405280519060200120145b6109375760405162461bcd60e51b815260040161042e906141cc565b60088101610945868261423a565b5060098101610954858261423a565b50600b8101610963848261423a565b50600c8101610972838261423a565b5060088101610981868261423a565b5060098101610990858261423a565b50600b810161099f848261423a565b50600c81016109ae838261423a565b5060005b60055481101561085a57866040516020016109cd91906140ef565b60405160208183030381529060405280519060200120600582815481106109f6576109f661433b565b90600052602060002090600d0201600601604051602001610a179190614156565b6040516020818303038152906040528051906020012003610b66578160058281548110610a4657610a4661433b565b600091825260209091208254600d9092020180546001600160a01b0319166001600160a01b03909216919091178155600180820190610a8790840182614351565b506002820154816002015560038201816003019081610aa69190614351565b506004820154816004015560058201816005019081610ac59190614351565b50600681810190610ad890840182614351565b50600781810190610aeb90840182614351565b50600881810190610afe90840182614351565b50600981810190610b1190840182614351565b50600a8281015490820180546001600160a01b0319166001600160a01b03909216919091179055600b80820190610b4a90840182614351565b50600c81810190610b5d90840182614351565b5090505061085a565b80610b708161430f565b9150506109b2565b6005600683604051610b8a91906140ef565b90815260200160405180910390205481548110610ba957610ba961433b565b60009182526020909120600d90910201546001600160a01b03163314610c2f5760405162461bcd60e51b815260206004820152603560248201527f596f7520646f6e27742068617665207065726d697373696f6e20746f207075626044820152746c697368207075626c696320646f63756d656e747360581b606482015260840161042e565b600b82604051610c3f91906140ef565b908152604051602091819003820190208054600181018255600091825291902001610c6a828261423a565b505050565b604051602001610c7e9061410b565b60408051601f198184030181528282528051602091820120336000908152600a8352929092209192610cb1929101614156565b6040516020818303038152906040528051906020012014610ce45760405162461bcd60e51b815260040161042e906141cc565b60408051610120810182526001600160a01b03808b1682528981166020830190815260048054948401858152606085018c8152608086018c905260a086018b905260c086018a905260e086018990526101008601889052600187018355600092909252845160099096027f8a35acfbc15ff81a39ae7d344fd709f28e8600b4aa8c65c6b64bfe7fe36bd19b810180549786166001600160a01b031998891617815593517f8a35acfbc15ff81a39ae7d344fd709f28e8600b4aa8c65c6b64bfe7fe36bd19c820180549190961697169690961790935591517f8a35acfbc15ff81a39ae7d344fd709f28e8600b4aa8c65c6b64bfe7fe36bd19d8501559051919290917f8a35acfbc15ff81a39ae7d344fd709f28e8600b4aa8c65c6b64bfe7fe36bd19e90910190610e14908261423a565b5060808201516004820190610e29908261423a565b5060a08201516005820190610e3e908261423a565b5060c08201516006820190610e53908261423a565b5060e08201516007820190610e68908261423a565b506101008201516008820190610e7e908261423a565b50506040805180820182526005815264706172747960d81b6020808301919091526001600160a01b038c166000908152600a909152919091209150610857908261423a565b8151602081840181018051600b825292820191850191909120919052805482908110610eee57600080fd5b90600052602060002001600091509150508054610f0a9061411c565b80601f0160208091040260200160405190810160405280929190818152602001828054610f369061411c565b8015610f835780601f10610f5857610100808354040283529160200191610f83565b820191906000526020600020905b815481529060010190602001808311610f6657829003601f168201915b505050505081565b336001600160a01b03166005600686604051610fa791906140ef565b90815260200160405180910390205481548110610fc657610fc661433b565b60009182526020909120600a600d9092020101546001600160a01b03161480156110455750604051602001610ffa9061410b565b60408051601f198184030181528282528051602091820120336000908152600a835292909220919261102d929101614156565b60405160208183030381529060405280519060200120145b6110615760405162461bcd60e51b815260040161042e906141cc565b600060078560405161107391906140ef565b908152604051908190036020019020905060018101611092858261423a565b50826008866040516110a491906140ef565b908152602001604051809103902090816110be919061423a565b50600281016110cd838261423a565b505050505050565b6040516020016110e49061410b565b60408051601f198184030181528282528051602091820120336000908152600a8352929092209192611117929101614156565b604051602081830303815290604052805190602001201461114a5760405162461bcd60e51b815260040161042e906141cc565b60098260405161115a91906140ef565b90815260405190819003602001902054156111d35760098260405161117f91906140ef565b908152602001604051809103902080548061119c5761119c614423565b600082815260208120600019909201916002830201906111bc82826130d1565b6111ca6001830160006130d1565b5050905561114a565b60005b8151811015610c6a576009836040516111ef91906140ef565b9081526020016040518091039020604051806040016040528084848151811061121a5761121a61433b565b602002602001015160000151815260200184848151811061123d5761123d61433b565b6020908102919091018101518101519091528254600181018455600093845292208151919260020201908190611273908261423a565b5060208201516001820190611288908261423a565b50505080806112969061430f565b9150506111d6565b60606009826040516112b091906140ef565b9081526020016040518091039020805480602002602001604051908101604052809291908181526020016000905b8282101561143457838290600052602060002090600202016040518060400160405290816000820180546113119061411c565b80601f016020809104026020016040519081016040528092919081815260200182805461133d9061411c565b801561138a5780601f1061135f5761010080835404028352916020019161138a565b820191906000526020600020905b81548152906001019060200180831161136d57829003601f168201915b505050505081526020016001820180546113a39061411c565b80601f01602080910402602001604051908101604052809291908181526020018280546113cf9061411c565b801561141c5780601f106113f15761010080835404028352916020019161141c565b820191906000526020600020905b8154815290600101906020018083116113ff57829003601f168201915b505050505081525050815260200190600101906112de565b505050509050919050565b80516020818301810180516007825292820191909301209152805460018201805491929161146c9061411c565b80601f01602080910402602001604051908101604052809291908181526020018280546114989061411c565b80156114e55780601f106114ba576101008083540402835291602001916114e5565b820191906000526020600020905b8154815290600101906020018083116114c857829003601f168201915b5050505050908060020180546114fa9061411c565b80601f01602080910402602001604051908101604052809291908181526020018280546115269061411c565b80156115735780601f1061154857610100808354040283529160200191611573565b820191906000526020600020905b81548152906001019060200180831161155657829003601f168201915b5050505050908060030180546115889061411c565b80601f01602080910402602001604051908101604052809291908181526020018280546115b49061411c565b80156116015780601f106115d657610100808354040283529160200191611601565b820191906000526020600020905b8154815290600101906020018083116115e457829003601f168201915b5050505050908060040180546116169061411c565b80601f01602080910402602001604051908101604052809291908181526020018280546116429061411c565b801561168f5780601f106116645761010080835404028352916020019161168f565b820191906000526020600020905b81548152906001019060200180831161167257829003601f168201915b5050505050908060050180546116a49061411c565b80601f01602080910402602001604051908101604052809291908181526020018280546116d09061411c565b801561171d5780601f106116f25761010080835404028352916020019161171d565b820191906000526020600020905b81548152906001019060200180831161170057829003601f168201915b5050505050908060060180546117329061411c565b80601f016020809104026020016040519081016040528092919081815260200182805461175e9061411c565b80156117ab5780601f10611780576101008083540402835291602001916117ab565b820191906000526020600020905b81548152906001019060200180831161178e57829003601f168201915b5050505050905087565b336001600160a01b031660056006866040516117d191906140ef565b908152602001604051809103902054815481106117f0576117f061433b565b60009182526020909120600a600d9092020101546001600160a01b031614801561186f57506040516020016118249061410b565b60408051601f198184030181528282528051602091820120336000908152600a8352929092209192611857929101614156565b60405160208183030381529060405280519060200120145b61188b5760405162461bcd60e51b815260040161042e906141cc565b80518351146118d55760405162461bcd60e51b8152602060048201526016602482015275125b98dbdc9c9958dd081a5b9c1d5d08199bdc9b585d60521b604482015260640161042e565b60005b600c856040516118e891906140ef565b908152604051908190036020018120621c195d60ea1b8252906003019081526040519081900360200190205481101561199857600c8560405161192b91906140ef565b908152604051908190036020018120621c195d60ea1b825290600301908152602001604051809103902080548061196457611964614423565b600082815260209020810160001990810180546001600160a01b0319169055019055806119908161430f565b9150506118d8565b5060005b600c856040516119ac91906140ef565b9081526040519081900360200181206272657360e81b82529060030190815260405190819003602001902054811015611a5c57600c856040516119ef91906140ef565b9081526040519081900360200181206272657360e81b8252906003019081526020016040518091039020805480611a2857611a28614423565b600082815260209020810160001990810180546001600160a01b031916905501905580611a548161430f565b91505061199c565b5060005b8151811015611bf557600c85604051611a7991906140ef565b9081526020016040518091039020838281518110611a9957611a9961433b565b6020026020010151604051611aae91906140ef565b9081526020016040518091039020848281518110611ace57611ace61433b565b6020908102919091018101518254600181018455600093845291832090910180546001600160a01b0319166001600160a01b039092169190911790558451600d9190869084908110611b2257611b2261433b565b6020908102919091018101516001600160a01b03168252818101929092526040016000908120805460018101825590825291902001611b61868261423a565b50818181518110611b7457611b7461433b565b6020026020010151600e6000868481518110611b9257611b9261433b565b60200260200101516001600160a01b03166001600160a01b0316815260200190815260200160002086604051611bc891906140ef565b90815260200160405180910390209081611be2919061423a565b5080611bed8161430f565b915050611a60565b5050505050565b60606004805480602002602001604051908101604052809291908181526020016000905b82821015611fed57600084815260209081902060408051610120810182526009860290920180546001600160a01b03908116845260018201541693830193909352600283015490820152600382018054919291606084019190611c829061411c565b80601f0160208091040260200160405190810160405280929190818152602001828054611cae9061411c565b8015611cfb5780601f10611cd057610100808354040283529160200191611cfb565b820191906000526020600020905b815481529060010190602001808311611cde57829003601f168201915b50505050508152602001600482018054611d149061411c565b80601f0160208091040260200160405190810160405280929190818152602001828054611d409061411c565b8015611d8d5780601f10611d6257610100808354040283529160200191611d8d565b820191906000526020600020905b815481529060010190602001808311611d7057829003601f168201915b50505050508152602001600582018054611da69061411c565b80601f0160208091040260200160405190810160405280929190818152602001828054611dd29061411c565b8015611e1f5780601f10611df457610100808354040283529160200191611e1f565b820191906000526020600020905b815481529060010190602001808311611e0257829003601f168201915b50505050508152602001600682018054611e389061411c565b80601f0160208091040260200160405190810160405280929190818152602001828054611e649061411c565b8015611eb15780601f10611e8657610100808354040283529160200191611eb1565b820191906000526020600020905b815481529060010190602001808311611e9457829003601f168201915b50505050508152602001600782018054611eca9061411c565b80601f0160208091040260200160405190810160405280929190818152602001828054611ef69061411c565b8015611f435780601f10611f1857610100808354040283529160200191611f43565b820191906000526020600020905b815481529060010190602001808311611f2657829003601f168201915b50505050508152602001600882018054611f5c9061411c565b80601f0160208091040260200160405190810160405280929190818152602001828054611f889061411c565b8015611fd55780601f10611faa57610100808354040283529160200191611fd5565b820191906000526020600020905b815481529060010190602001808311611fb857829003601f168201915b50505050508152505081526020019060010190611c20565b50505050905090565b6001600160a01b0382166000908152600e6020526040908190209051606091906120219084906140ef565b9081526020016040518091039020805461203a9061411c565b80601f01602080910402602001604051908101604052809291908181526020018280546120669061411c565b80156103ab5780601f10612088576101008083540402835291602001916103ab565b820191906000526020600020905b815481529060010190602001808311612096575093979650505050505050565b6001546001600160a01b031633146120e05760405162461bcd60e51b815260040161042e906141cc565b6040805160c0810182526001600160a01b0387811682526020820187815260038054948401859052606084018890526080840187905260a0840186905260018501815560005282517fc2575a0e9e593c00f959f8c92f12db2869c3395a3b0502d05e2516446f71f85b600690950294850180546001600160a01b0319169190931617825551919290917fc2575a0e9e593c00f959f8c92f12db2869c3395a3b0502d05e2516446f71f85c90910190612198908261423a565b5060408201516002820155606082015160038201906121b7908261423a565b50608082015160048201906121cc908261423a565b5060a082015160058201906121e1908261423a565b5050604080518082018252600581526418dbdd5c9d60da1b6020808301919091526001600160a01b0389166000908152600a9091529190912091506110cd908261423a565b60606003805480602002602001604051908101604052809291908181526020016000905b82821015611fed5760008481526020908190206040805160c081019091526006850290910180546001600160a01b0316825260018101805492939192918401916122939061411c565b80601f01602080910402602001604051908101604052809291908181526020018280546122bf9061411c565b801561230c5780601f106122e15761010080835404028352916020019161230c565b820191906000526020600020905b8154815290600101906020018083116122ef57829003601f168201915b505050505081526020016002820154815260200160038201805461232f9061411c565b80601f016020809104026020016040519081016040528092919081815260200182805461235b9061411c565b80156123a85780601f1061237d576101008083540402835291602001916123a8565b820191906000526020600020905b81548152906001019060200180831161238b57829003601f168201915b505050505081526020016004820180546123c19061411c565b80601f01602080910402602001604051908101604052809291908181526020018280546123ed9061411c565b801561243a5780601f1061240f5761010080835404028352916020019161243a565b820191906000526020600020905b81548152906001019060200180831161241d57829003601f168201915b505050505081526020016005820180546124539061411c565b80601f016020809104026020016040519081016040528092919081815260200182805461247f9061411c565b80156124cc5780601f106124a1576101008083540402835291602001916124cc565b820191906000526020600020905b8154815290600101906020018083116124af57829003601f168201915b5050505050815250508152602001906001019061224a565b612561604051806101a0016040528060006001600160a01b0316815260200160608152602001600081526020016060815260200160008152602001606081526020016060815260200160608152602001606081526020016060815260200160006001600160a01b0316815260200160608152602001606081525090565b600560068360405161257391906140ef565b908152602001604051809103902054815481106125925761259261433b565b6000918252602091829020604080516101a08101909152600d9092020180546001600160a01b0316825260018101805492939192918401916125d39061411c565b80601f01602080910402602001604051908101604052809291908181526020018280546125ff9061411c565b801561264c5780601f106126215761010080835404028352916020019161264c565b820191906000526020600020905b81548152906001019060200180831161262f57829003601f168201915b505050505081526020016002820154815260200160038201805461266f9061411c565b80601f016020809104026020016040519081016040528092919081815260200182805461269b9061411c565b80156126e85780601f106126bd576101008083540402835291602001916126e8565b820191906000526020600020905b8154815290600101906020018083116126cb57829003601f168201915b505050505081526020016004820154815260200160058201805461270b9061411c565b80601f01602080910402602001604051908101604052809291908181526020018280546127379061411c565b80156127845780601f1061275957610100808354040283529160200191612784565b820191906000526020600020905b81548152906001019060200180831161276757829003601f168201915b5050505050815260200160068201805461279d9061411c565b80601f01602080910402602001604051908101604052809291908181526020018280546127c99061411c565b80156128165780601f106127eb57610100808354040283529160200191612816565b820191906000526020600020905b8154815290600101906020018083116127f957829003601f168201915b5050505050815260200160078201805461282f9061411c565b80601f016020809104026020016040519081016040528092919081815260200182805461285b9061411c565b80156128a85780601f1061287d576101008083540402835291602001916128a8565b820191906000526020600020905b81548152906001019060200180831161288b57829003601f168201915b505050505081526020016008820180546128c19061411c565b80601f01602080910402602001604051908101604052809291908181526020018280546128ed9061411c565b801561293a5780601f1061290f5761010080835404028352916020019161293a565b820191906000526020600020905b81548152906001019060200180831161291d57829003601f168201915b505050505081526020016009820180546129539061411c565b80601f016020809104026020016040519081016040528092919081815260200182805461297f9061411c565b80156129cc5780601f106129a1576101008083540402835291602001916129cc565b820191906000526020600020905b8154815290600101906020018083116129af57829003601f168201915b5050509183525050600a8201546001600160a01b03166020820152600b820180546040909201916129fc9061411c565b80601f0160208091040260200160405190810160405280929190818152602001828054612a289061411c565b8015612a755780601f10612a4a57610100808354040283529160200191612a75565b820191906000526020600020905b815481529060010190602001808311612a5857829003601f168201915b50505050508152602001600c82018054612a8e9061411c565b80601f0160208091040260200160405190810160405280929190818152602001828054612aba9061411c565b8015612b075780601f10612adc57610100808354040283529160200191612b07565b820191906000526020600020905b815481529060010190602001808311612aea57829003601f168201915b5050505050815250509050919050565b60606005805480602002602001604051908101604052809291908181526020016000905b82821015611fed576000848152602090819020604080516101a08101909152600d850290910180546001600160a01b031682526001810180549293919291840191612b859061411c565b80601f0160208091040260200160405190810160405280929190818152602001828054612bb19061411c565b8015612bfe5780601f10612bd357610100808354040283529160200191612bfe565b820191906000526020600020905b815481529060010190602001808311612be157829003601f168201915b5050505050815260200160028201548152602001600382018054612c219061411c565b80601f0160208091040260200160405190810160405280929190818152602001828054612c4d9061411c565b8015612c9a5780601f10612c6f57610100808354040283529160200191612c9a565b820191906000526020600020905b815481529060010190602001808311612c7d57829003601f168201915b5050505050815260200160048201548152602001600582018054612cbd9061411c565b80601f0160208091040260200160405190810160405280929190818152602001828054612ce99061411c565b8015612d365780601f10612d0b57610100808354040283529160200191612d36565b820191906000526020600020905b815481529060010190602001808311612d1957829003601f168201915b50505050508152602001600682018054612d4f9061411c565b80601f0160208091040260200160405190810160405280929190818152602001828054612d7b9061411c565b8015612dc85780601f10612d9d57610100808354040283529160200191612dc8565b820191906000526020600020905b815481529060010190602001808311612dab57829003601f168201915b50505050508152602001600782018054612de19061411c565b80601f0160208091040260200160405190810160405280929190818152602001828054612e0d9061411c565b8015612e5a5780601f10612e2f57610100808354040283529160200191612e5a565b820191906000526020600020905b815481529060010190602001808311612e3d57829003601f168201915b50505050508152602001600882018054612e739061411c565b80601f0160208091040260200160405190810160405280929190818152602001828054612e9f9061411c565b8015612eec5780601f10612ec157610100808354040283529160200191612eec565b820191906000526020600020905b815481529060010190602001808311612ecf57829003601f168201915b50505050508152602001600982018054612f059061411c565b80601f0160208091040260200160405190810160405280929190818152602001828054612f319061411c565b8015612f7e5780601f10612f5357610100808354040283529160200191612f7e565b820191906000526020600020905b815481529060010190602001808311612f6157829003601f168201915b5050509183525050600a8201546001600160a01b03166020820152600b82018054604090920191612fae9061411c565b80601f0160208091040260200160405190810160405280929190818152602001828054612fda9061411c565b80156130275780601f10612ffc57610100808354040283529160200191613027565b820191906000526020600020905b81548152906001019060200180831161300a57829003601f168201915b50505050508152602001600c820180546130409061411c565b80601f016020809104026020016040519081016040528092919081815260200182805461306c9061411c565b80156130b95780601f1061308e576101008083540402835291602001916130b9565b820191906000526020600020905b81548152906001019060200180831161309c57829003601f168201915b50505050508152505081526020019060010190612b3b565b5080546130dd9061411c565b6000825580601f106130ed575050565b601f01602090049060005260206000209081019061310b919061310e565b50565b5b80821115613123576000815560010161310f565b5090565b634e487b7160e01b600052604160045260246000fd5b604080519081016001600160401b038111828210171561315f5761315f613127565b60405290565b604051601f8201601f191681016001600160401b038111828210171561318d5761318d613127565b604052919050565b600082601f8301126131a657600080fd5b81356001600160401b038111156131bf576131bf613127565b6131d2601f8201601f1916602001613165565b8181528460208386010111156131e757600080fd5b816020850160208301376000918101602001919091529392505050565b6000806040838503121561321757600080fd5b82356001600160401b038082111561322e57600080fd5b61323a86838701613195565b9350602085013591508082111561325057600080fd5b5061325d85828601613195565b9150509250929050565b6020808252825182820181905260009190848201906040850190845b818110156132a85783516001600160a01b031683529284019291840191600101613283565b50909695505050505050565b60008060008060008060008060008060006101608c8e0312156132d657600080fd5b6001600160401b03808d3511156132ec57600080fd5b6132f98e8e358f01613195565b9b5060208d01359a508060408e0135111561331357600080fd5b6133238e60408f01358f01613195565b995060608d013598508060808e0135111561333d57600080fd5b61334d8e60808f01358f01613195565b97508060a08e0135111561336057600080fd5b6133708e60a08f01358f01613195565b96508060c08e0135111561338357600080fd5b6133938e60c08f01358f01613195565b95508060e08e013511156133a657600080fd5b6133b68e60e08f01358f01613195565b9450806101008e013511156133ca57600080fd5b6133db8e6101008f01358f01613195565b9350806101208e013511156133ef57600080fd5b6134008e6101208f01358f01613195565b9250806101408e0135111561341457600080fd5b506134268d6101408e01358e01613195565b90509295989b509295989b9093969950565b600080600080600080600060e0888a03121561345357600080fd5b87356001600160401b038082111561346a57600080fd5b6134768b838c01613195565b985060208a013591508082111561348c57600080fd5b6134988b838c01613195565b975060408a01359150808211156134ae57600080fd5b6134ba8b838c01613195565b965060608a01359150808211156134d057600080fd5b6134dc8b838c01613195565b955060808a01359150808211156134f257600080fd5b6134fe8b838c01613195565b945060a08a013591508082111561351457600080fd5b6135208b838c01613195565b935060c08a013591508082111561353657600080fd5b506135438a828b01613195565b91505092959891949750929550565b600080600080600060a0868803121561356a57600080fd5b85356001600160401b038082111561358157600080fd5b61358d89838a01613195565b965060208801359150808211156135a357600080fd5b6135af89838a01613195565b955060408801359150808211156135c557600080fd5b6135d189838a01613195565b945060608801359150808211156135e757600080fd5b6135f389838a01613195565b9350608088013591508082111561360957600080fd5b5061361688828901613195565b9150509295509295909350565b80356001600160a01b038116811461363a57600080fd5b919050565b600080600080600080600080610100898b03121561365c57600080fd5b61366589613623565b975061367360208a01613623565b965060408901356001600160401b038082111561368f57600080fd5b61369b8c838d01613195565b975060608b01359150808211156136b157600080fd5b6136bd8c838d01613195565b965060808b01359150808211156136d357600080fd5b6136df8c838d01613195565b955060a08b01359150808211156136f557600080fd5b6137018c838d01613195565b945060c08b013591508082111561371757600080fd5b6137238c838d01613195565b935060e08b013591508082111561373957600080fd5b506137468b828c01613195565b9150509295985092959890939650565b6000806040838503121561376957600080fd5b82356001600160401b0381111561377f57600080fd5b61378b85828601613195565b95602094909401359450505050565b60005b838110156137b557818101518382015260200161379d565b50506000910152565b600081518084526137d681602086016020860161379a565b601f01601f19169290920160200192915050565b6020815260006137fd60208301846137be565b9392505050565b6000806000806080858703121561381a57600080fd5b84356001600160401b038082111561383157600080fd5b61383d88838901613195565b9550602087013591508082111561385357600080fd5b61385f88838901613195565b9450604087013591508082111561387557600080fd5b61388188838901613195565b9350606087013591508082111561389757600080fd5b506138a487828801613195565b91505092959194509250565b60006001600160401b038211156138c9576138c9613127565b5060051b60200190565b60008060408084860312156138e757600080fd5b83356001600160401b03808211156138fe57600080fd5b61390a87838801613195565b945060209150818601358181111561392157600080fd5b8601601f8101881361393257600080fd5b8035613945613940826138b0565b613165565b81815260059190911b8201840190848101908a83111561396457600080fd5b8584015b838110156139f4578035868111156139805760008081fd5b8501808d03601f19018913156139965760008081fd5b61399e61313d565b88820135888111156139b05760008081fd5b6139be8f8b83860101613195565b82525089820135888111156139d35760008081fd5b6139e18f8b83860101613195565b828b015250845250918601918601613968565b50809750505050505050509250929050565b600060208284031215613a1857600080fd5b81356001600160401b03811115613a2e57600080fd5b613a3a84828501613195565b949350505050565b60006020808301818452808551808352604092508286019150828160051b87010184880160005b83811015613ab957888303603f1901855281518051878552613a8d888601826137be565b91890151858303868b0152919050613aa581836137be565b968901969450505090860190600101613a69565b509098975050505050505050565b87815260e060208201526000613ae060e08301896137be565b8281036040840152613af281896137be565b90508281036060840152613b0681886137be565b90508281036080840152613b1a81876137be565b905082810360a0840152613b2e81866137be565b905082810360c0840152613b4281856137be565b9a9950505050505050505050565b600082601f830112613b6157600080fd5b81356020613b71613940836138b0565b82815260059290921b84018101918181019086841115613b9057600080fd5b8286015b84811015613bcf5780356001600160401b03811115613bb35760008081fd5b613bc18986838b0101613195565b845250918301918301613b94565b509695505050505050565b60008060008060808587031215613bf057600080fd5b84356001600160401b0380821115613c0757600080fd5b613c1388838901613195565b9550602091508187013581811115613c2a57600080fd5b8701601f81018913613c3b57600080fd5b8035613c49613940826138b0565b81815260059190911b8201840190848101908b831115613c6857600080fd5b928501925b82841015613c8d57613c7e84613623565b82529285019290850190613c6d565b97505050506040870135915080821115613ca657600080fd5b613cb288838901613b50565b93506060870135915080821115613cc857600080fd5b506138a487828801613b50565b60006020808301818452808551808352604092508286019150828160051b87010184880160005b83811015613ab957888303603f19018552815180516001600160a01b03168452610120818901516001600160a01b038116868b01525087820151888601526060808301518282880152613d51838801826137be565b9250505060808083015186830382880152613d6c83826137be565b9250505060a08083015186830382880152613d8783826137be565b9250505060c08083015186830382880152613da283826137be565b9250505060e08083015186830382880152613dbd83826137be565b925050506101008083015192508582038187015250613ddc81836137be565b968901969450505090860190600101613cfc565b60008060408385031215613e0357600080fd5b613e0c83613623565b915060208301356001600160401b03811115613e2757600080fd5b61325d85828601613195565b600080600080600060a08688031215613e4b57600080fd5b613e5486613623565b945060208601356001600160401b03808211156135a357600080fd5b60006020808301818452808551808352604092508286019150828160051b87010184880160005b83811015613ab957888303603f19018552815180516001600160a01b031684528781015160c089860181905290613ed0828701826137be565b915050878201518886015260608083015186830382880152613ef283826137be565b9250505060808083015186830382880152613f0d83826137be565b9250505060a08083015192508582038187015250613f2b81836137be565b968901969450505090860190600101613e97565b80516001600160a01b0316825260006101a06020830151816020860152613f68828601826137be565b9150506040830151604085015260608301518482036060860152613f8c82826137be565b9150506080830151608085015260a083015184820360a0860152613fb082826137be565b91505060c083015184820360c0860152613fca82826137be565b91505060e083015184820360e0860152613fe482826137be565b9150506101008084015185830382870152613fff83826137be565b92505050610120808401518583038287015261401b83826137be565b925050506101408084015161403a828701826001600160a01b03169052565b5050610160808401518583038287015261405483826137be565b92505050610180808401518583038287015261407083826137be565b9695505050505050565b6020815260006137fd6020830184613f3f565b6000602080830181845280855180835260408601915060408160051b870101925083870160005b828110156140e257603f198886030184526140d0858351613f3f565b945092850192908501906001016140b4565b5092979650505050505050565b6000825161410181846020870161379a565b9190910192915050565b6418dbdd5c9d60da1b815260050190565b600181811c9082168061413057607f821691505b60208210810361415057634e487b7160e01b600052602260045260246000fd5b50919050565b60008083546141648161411c565b6001828116801561417c5760018114614191576141c0565b60ff19841687528215158302870194506141c0565b8760005260208060002060005b858110156141b75781548a82015290840190820161419e565b50505082870194505b50929695505050505050565b6020808252600e908201526d139bdd08185d5d1a1bdc9a5e995960921b604082015260600190565b601f821115610c6a57600081815260208120601f850160051c8101602086101561421b5750805b601f850160051c820191505b818110156110cd57828155600101614227565b81516001600160401b0381111561425357614253613127565b61426781614261845461411c565b846141f4565b602080601f83116001811461429c57600084156142845750858301515b600019600386901b1c1916600185901b1785556110cd565b600085815260208120601f198616915b828110156142cb578886015182559484019460019091019084016142ac565b50858210156142e95787850151600019600388901b60f8161c191681555b5050505050600190811b01905550565b634e487b7160e01b600052601160045260246000fd5b600060018201614321576143216142f9565b5060010190565b818103818111156103b3576103b36142f9565b634e487b7160e01b600052603260045260246000fd5b81810361435c575050565b614366825461411c565b6001600160401b0381111561437d5761437d613127565b61438b81614261845461411c565b6000601f8211600181146143bf57600083156143a75750848201545b600019600385901b1c1916600184901b178455611bf5565b600085815260209020601f19841690600086815260209020845b838110156143f957828601548255600195860195909101906020016143d9565b50858310156142e95793015460001960f8600387901b161c19169092555050600190811b01905550565b634e487b7160e01b600052603160045260246000fdfea26469706673582212208a8e0dfebc9f8ca8c06b4cc15e6b9236a933f93794ac905e4b6e9428bbb665e164736f6c63430008130033",
  "immutableReferences": {},
  "source": "// SPDX-License-Identifier: GPL-3.0\r\n\r\npragma solidity >=0.8.2 <0.9.0;\r\n\r\n/**\r\n * @title Storage\r\n * @dev Store & retrieve value in a variable\r\n * @custom:dev-run-script ./scripts/deploy_with_ethers.ts\r\n */\r\ncontract LawVertex {\r\n\r\n  // constructor() payable {}\r\n  // receive() external payable {}\r\n\r\n  address public contractOwner;\r\n  address private admin;\r\n  uint public caseCount;\r\n\r\n  constructor() {\r\n    contractOwner = msg.sender;\r\n    admin = msg.sender;\r\n    caseCount = 0;\r\n  }\r\n\r\n  struct ActStruct{\r\n    string name;\r\n    string section;\r\n  } \r\n\r\n  struct CaseInfo {\r\n    uint _id;\r\n    string pet;\r\n    string res;\r\n\r\n    //FIR Details\r\n    string police_station;\r\n    string fir_no;\r\n    string year;\r\n    string loc;\r\n  }\r\n\r\n  struct Case {\r\n    //Case Details\r\n    address owner;\r\n    string case_type;\r\n    uint filing_no;\r\n    string filing_date;\r\n    uint reg_no;\r\n    string reg_date;\r\n    string cnr;\r\n\r\n    //Case Status\r\n    string first_hearing;\r\n    string next_hearing;\r\n    string stage;\r\n    address court_address;\r\n    string court_no;\r\n    string judge;\r\n  }\r\n  \r\n  struct Court {\r\n    address owner;\r\n    string court_type;\r\n    uint slno;\r\n    string name;\r\n    string location;\r\n    string tel;\r\n  }\r\n\r\n  struct Party {\r\n    address owner;\r\n    address lead_adv_add;\r\n    uint slno;\r\n    string name;\r\n    string cnr;\r\n    string location;\r\n    string email;\r\n    string phone;\r\n    string lead_adv;\r\n  }\r\n\r\n  Court[] courts;\r\n  Party[] parties;\r\n  Case[] cases;\r\n\r\n  mapping(string => uint256) cnr_cases; //cnr->case\r\n  mapping(string => CaseInfo) public infos; //cnr->case_info\r\n  mapping(string => string) status; //cnr->status\r\n  mapping(string => ActStruct[]) acts;\r\n  mapping(address => string) roles;\r\n  mapping(string => string[]) public docs; //cnr -> documents\r\n  \r\n  mapping(string => mapping(string => address[])) adv; //cnr -> party -> advocate addresses\r\n  mapping(address => string[]) adv_cases;  //advAddress -> cnrs\r\n  mapping(address => mapping(string => string)) adv_role; //advAddress -> cnr -> role\r\n\r\n\r\n  function getAllCourts () external view returns (Court[] memory){\r\n    return courts;\r\n  } \r\n\r\n  function getActs (string memory _cnr) external view returns(ActStruct[] memory){\r\n    return acts[_cnr];\r\n  }\r\n\r\n  function getAdvocate (string memory _cnr, string memory _party) external view returns(address[] memory){\r\n    return adv[_cnr][_party];\r\n  }\r\n\r\n  function getAdocateRole (address _advAddress, string memory _cnr) external view returns(string memory){\r\n    return adv_role[_advAddress][_cnr];\r\n  }\r\n  \r\n  function getAllParties () external view returns (Party[] memory){\r\n    return parties;\r\n  }\r\n\r\n  function getAllCases () external view returns (Case[] memory){\r\n    return cases;\r\n  }\r\n\r\n  function addCourt(\r\n    address _owner,\r\n    string memory _court_type,\r\n    string memory _name,\r\n    string memory _location,\r\n    string memory _tel\r\n  ) external {\r\n    require(msg.sender==admin, \"Not authorized\");\r\n    courts.push(Court(_owner,_court_type,courts.length,_name,_location,_tel));\r\n    roles[_owner] = \"court\";\r\n  }\r\n\r\n  function addParty(\r\n    address _owner,\r\n    address _lead_adv_add,\r\n    string memory _name,\r\n    string memory _cnr,\r\n    string memory _location,\r\n    string memory _email,\r\n    string memory _phone,\r\n    string memory _lead_adv\r\n  ) external {\r\n    require(keccak256(abi.encodePacked(roles[msg.sender])) == keccak256(abi.encodePacked(\"court\")), \"Not authorized\");\r\n    parties.push(Party(_owner,_lead_adv_add,parties.length,_name,_cnr,_location,_email,_phone,_lead_adv));\r\n    roles[_owner] = \"party\";\r\n  }\r\n\r\n  function addCase(\r\n    //Case Details\r\n    string memory _case_type,\r\n    uint _filing_no,\r\n    string memory _filing_date,\r\n    uint _reg_no,\r\n    string memory _reg_date,\r\n    string memory _cnr,\r\n\r\n    //  Case Status\r\n    string memory _first_hearing,\r\n    string memory _next_hearing,\r\n    string memory _stage,\r\n    string memory _court_no,\r\n    string memory _judge\r\n  ) external {\r\n\r\n    require(keccak256(abi.encodePacked(roles[msg.sender])) == keccak256(abi.encodePacked(\"court\")), \"Not authorized\");\r\n    cases.push(Case(msg.sender,_case_type,_filing_no,_filing_date,_reg_no,_reg_date,_cnr,_first_hearing,_next_hearing,_stage,\r\n      msg.sender,\r\n      _court_no,\r\n      _judge\r\n    ));\r\n\r\n    cnr_cases[_cnr]=caseCount;\r\n    \r\n    caseCount++;\r\n  }\r\n\r\n  function viewCase(string memory _cnr) external view returns (Case memory){\r\n    return cases[cnr_cases[_cnr]];\r\n  }\r\n\r\n  function addAct(\r\n    string memory _cnr,\r\n    ActStruct[] memory _acts\r\n  )external{\r\n    require(keccak256(abi.encodePacked(roles[msg.sender])) == keccak256(abi.encodePacked(\"court\")), \"Not authorized\");\r\n\r\n    while(acts[_cnr].length!=0){\r\n      acts[_cnr].pop();\r\n    }\r\n\r\n    for(uint i=0;i<_acts.length;i++){\r\n      acts[_cnr].push(ActStruct(_acts[i].name,_acts[i].section));\r\n    }\r\n  }\r\n\r\n  function updateAdvocates(\r\n    string memory _cnr,\r\n    address[] memory _adv_addresses,\r\n    string[] memory _parties,\r\n    string[] memory _roles\r\n  )external{\r\n    require(cases[cnr_cases[_cnr]].court_address==msg.sender && keccak256(abi.encodePacked(roles[msg.sender])) == keccak256(abi.encodePacked(\"court\")), \"Not authorized\");\r\n    require(_adv_addresses.length==_roles.length, \"Incorrect input format\");\r\n\r\n    for(uint i=0;i<adv[_cnr][\"pet\"].length;i++){\r\n      adv[_cnr][\"pet\"].pop();\r\n    }\r\n    for(uint i=0;i<adv[_cnr][\"res\"].length;i++){\r\n      adv[_cnr][\"res\"].pop();\r\n    }\r\n\r\n    for(uint i=0;i<_roles.length;i++){\r\n      adv[_cnr][_parties[i]].push(_adv_addresses[i]);\r\n      adv_cases[_adv_addresses[i]].push(_cnr);\r\n      adv_role[_adv_addresses[i]][_cnr]=_roles[i];\r\n    }\r\n\r\n  }\r\n\r\n  function updateCase(\r\n    //  Case Status\r\n    string memory _cnr,\r\n    string memory _next_hearing,\r\n    string memory _stage,\r\n    string memory _court_no,\r\n    string memory _judge\r\n  ) external {\r\n\r\n    Case storage newCase = cases[cnr_cases[_cnr]];\r\n\r\n    require(newCase.court_address==msg.sender && keccak256(abi.encodePacked(roles[msg.sender])) == keccak256(abi.encodePacked(\"court\")), \"Not authorized\");\r\n\r\n    newCase.next_hearing = _next_hearing;\r\n    newCase.stage = _stage;\r\n    newCase.court_no = _court_no;\r\n    newCase.judge = _judge;\r\n\r\n    newCase.next_hearing = _next_hearing;\r\n    newCase.stage = _stage;\r\n    newCase.court_no = _court_no;\r\n    newCase.judge = _judge;\r\n\r\n    for (uint j = 0; j < cases.length; j++) {\r\n        if(keccak256(abi.encodePacked(cases[j].cnr)) == keccak256(abi.encodePacked(_cnr))){\r\n            cases[j] = newCase;\r\n            break;\r\n        }\r\n    }\r\n  }\r\n\r\n  function addCaseInfo(\r\n    string memory _cnr,\r\n    string memory _pet,\r\n    string memory _res,\r\n    string memory _status,\r\n    string memory _police_station,\r\n    string memory _fir_no,\r\n    string memory _year\r\n  ) external {\r\n    \r\n    CaseInfo storage newCaseInfo = infos[_cnr];\r\n    require(cases[caseCount-1].court_address==msg.sender && keccak256(abi.encodePacked(roles[msg.sender])) == keccak256(abi.encodePacked(\"court\")), \"Not authorized\");\r\n\r\n    newCaseInfo._id = caseCount-1;\r\n    status[_cnr]=_status;\r\n    newCaseInfo.pet =_pet;\r\n    newCaseInfo.res =_res;\r\n    newCaseInfo.police_station =_police_station;\r\n    newCaseInfo.fir_no =_fir_no;\r\n    newCaseInfo.year =_year;\r\n\r\n    for(uint i=0;i<courts.length;i++){\r\n      if(msg.sender==courts[i].owner){\r\n        newCaseInfo.loc =courts[i].location;\r\n        return;\r\n      }\r\n    }\r\n  }\r\n\r\n  function updateCaseInfo(\r\n    string memory _cnr,\r\n    string memory _pet,\r\n    string memory _status,\r\n    string memory _res\r\n  ) external {\r\n    require(cases[cnr_cases[_cnr]].court_address==msg.sender && keccak256(abi.encodePacked(roles[msg.sender])) == keccak256(abi.encodePacked(\"court\")), \"Not authorized\");\r\n\r\n    CaseInfo storage newCaseInfo = infos[_cnr];\r\n\r\n    newCaseInfo.pet =_pet;\r\n    status[_cnr]=_status;\r\n    newCaseInfo.res =_res;\r\n  }\r\n\r\n  function addPublicDocument(string memory _cnr,string memory _url) external {\r\n      require(msg.sender==cases[cnr_cases[_cnr]].owner, \"You don't have permission to publish public documents\");\r\n      docs[_cnr].push(_url);\r\n  }\r\n}",
  "sourcePath": "C:\\Users\\Aprameya\\Desktop\\LawVertex\\web3\\contracts\\LawVertex.sol",
  "compiler": {
    "name": "solc",
    "version": "0.8.19+commit.7dd6d404.Emscripten.clang"
  },
  "schemaVersion": "3.4.16",
  "updatedAt": "2024-04-26T16:18:01.464Z",
  "networkType": "ethereum",
  "devdoc": {
    "custom:dev-run-script": "./scripts/deploy_with_ethers.ts",
    "details": "Store & retrieve value in a variable",
    "kind": "dev",
    "methods": {},
    "title": "Storage",
    "version": 1
  },
  "userdoc": {
    "kind": "user",
    "methods": {},
    "version": 1
  }
}