{
  "contractName": "FileTransfer",
  "abi": [
    {
      "inputs": [],
      "stateMutability": "nonpayable",
      "type": "constructor"
    },
    {
      "inputs": [],
      "name": "contractOwner",
      "outputs": [
        {
          "internalType": "address",
          "name": "",
          "type": "address"
        }
      ],
      "stateMutability": "view",
      "type": "function",
      "constant": true
    },
    {
      "inputs": [],
      "name": "usercount",
      "outputs": [
        {
          "internalType": "uint256",
          "name": "",
          "type": "uint256"
        }
      ],
      "stateMutability": "view",
      "type": "function",
      "constant": true
    },
    {
      "inputs": [
        {
          "internalType": "string",
          "name": "_name",
          "type": "string"
        },
        {
          "internalType": "string",
          "name": "_desc",
          "type": "string"
        },
        {
          "internalType": "string",
          "name": "_format",
          "type": "string"
        },
        {
          "internalType": "string",
          "name": "_size",
          "type": "string"
        },
        {
          "internalType": "string",
          "name": "_createdAt",
          "type": "string"
        },
        {
          "internalType": "string",
          "name": "_publicid",
          "type": "string"
        },
        {
          "internalType": "string",
          "name": "_cid",
          "type": "string"
        },
        {
          "internalType": "bool",
          "name": "_encrypted",
          "type": "bool"
        },
        {
          "internalType": "bool",
          "name": "_searchable",
          "type": "bool"
        },
        {
          "internalType": "bool",
          "name": "_canRequest",
          "type": "bool"
        },
        {
          "internalType": "string",
          "name": "_copyOf",
          "type": "string"
        }
      ],
      "name": "addFile",
      "outputs": [],
      "stateMutability": "nonpayable",
      "type": "function"
    },
    {
      "inputs": [],
      "name": "viewOwnedFiles",
      "outputs": [
        {
          "components": [
            {
              "internalType": "address",
              "name": "owner",
              "type": "address"
            },
            {
              "internalType": "string",
              "name": "name",
              "type": "string"
            },
            {
              "internalType": "string",
              "name": "desc",
              "type": "string"
            },
            {
              "internalType": "string",
              "name": "format",
              "type": "string"
            },
            {
              "internalType": "string",
              "name": "size",
              "type": "string"
            },
            {
              "internalType": "string",
              "name": "createdAt",
              "type": "string"
            },
            {
              "internalType": "string",
              "name": "publicid",
              "type": "string"
            },
            {
              "internalType": "string",
              "name": "cid",
              "type": "string"
            },
            {
              "internalType": "bool",
              "name": "encrypted",
              "type": "bool"
            },
            {
              "internalType": "bool",
              "name": "searchable",
              "type": "bool"
            },
            {
              "internalType": "bool",
              "name": "canRequest",
              "type": "bool"
            },
            {
              "internalType": "string",
              "name": "copyOf",
              "type": "string"
            }
          ],
          "internalType": "struct FileTransfer.PrivateFile[]",
          "name": "",
          "type": "tuple[]"
        }
      ],
      "stateMutability": "view",
      "type": "function",
      "constant": true
    },
    {
      "inputs": [
        {
          "internalType": "string",
          "name": "_publicid",
          "type": "string"
        }
      ],
      "name": "viewOwnedFile",
      "outputs": [
        {
          "components": [
            {
              "internalType": "address",
              "name": "owner",
              "type": "address"
            },
            {
              "internalType": "string",
              "name": "name",
              "type": "string"
            },
            {
              "internalType": "string",
              "name": "desc",
              "type": "string"
            },
            {
              "internalType": "string",
              "name": "format",
              "type": "string"
            },
            {
              "internalType": "string",
              "name": "size",
              "type": "string"
            },
            {
              "internalType": "string",
              "name": "createdAt",
              "type": "string"
            },
            {
              "internalType": "string",
              "name": "publicid",
              "type": "string"
            },
            {
              "internalType": "string",
              "name": "cid",
              "type": "string"
            },
            {
              "internalType": "bool",
              "name": "encrypted",
              "type": "bool"
            },
            {
              "internalType": "bool",
              "name": "searchable",
              "type": "bool"
            },
            {
              "internalType": "bool",
              "name": "canRequest",
              "type": "bool"
            },
            {
              "internalType": "string",
              "name": "copyOf",
              "type": "string"
            }
          ],
          "internalType": "struct FileTransfer.PrivateFile",
          "name": "",
          "type": "tuple"
        }
      ],
      "stateMutability": "view",
      "type": "function",
      "constant": true
    },
    {
      "inputs": [
        {
          "internalType": "string",
          "name": "_publicid",
          "type": "string"
        }
      ],
      "name": "deleteFile",
      "outputs": [],
      "stateMutability": "nonpayable",
      "type": "function"
    },
    {
      "inputs": [
        {
          "internalType": "string",
          "name": "_publicid",
          "type": "string"
        },
        {
          "internalType": "string",
          "name": "_cid",
          "type": "string"
        },
        {
          "internalType": "address",
          "name": "_receivingUserAddress",
          "type": "address"
        },
        {
          "internalType": "string",
          "name": "_ogpublicid",
          "type": "string"
        },
        {
          "internalType": "bool",
          "name": "_viewOnly",
          "type": "bool"
        }
      ],
      "name": "grantAccess",
      "outputs": [],
      "stateMutability": "nonpayable",
      "type": "function"
    },
    {
      "inputs": [
        {
          "internalType": "string",
          "name": "_publicid",
          "type": "string"
        },
        {
          "internalType": "address",
          "name": "_revokeUserAddress",
          "type": "address"
        }
      ],
      "name": "revokeAccess",
      "outputs": [],
      "stateMutability": "nonpayable",
      "type": "function"
    },
    {
      "inputs": [
        {
          "internalType": "string",
          "name": "_publicid",
          "type": "string"
        }
      ],
      "name": "viewAccessList",
      "outputs": [
        {
          "components": [
            {
              "internalType": "string",
              "name": "publicid",
              "type": "string"
            },
            {
              "internalType": "address",
              "name": "user",
              "type": "address"
            },
            {
              "internalType": "string",
              "name": "ogpublicid",
              "type": "string"
            },
            {
              "internalType": "bool",
              "name": "viewOnly",
              "type": "bool"
            },
            {
              "internalType": "bool",
              "name": "valid",
              "type": "bool"
            }
          ],
          "internalType": "struct FileTransfer.Access[]",
          "name": "",
          "type": "tuple[]"
        }
      ],
      "stateMutability": "view",
      "type": "function",
      "constant": true
    },
    {
      "inputs": [],
      "name": "viewRecievedFiles",
      "outputs": [
        {
          "components": [
            {
              "internalType": "address",
              "name": "owner",
              "type": "address"
            },
            {
              "internalType": "string",
              "name": "name",
              "type": "string"
            },
            {
              "internalType": "string",
              "name": "desc",
              "type": "string"
            },
            {
              "internalType": "string",
              "name": "format",
              "type": "string"
            },
            {
              "internalType": "string",
              "name": "size",
              "type": "string"
            },
            {
              "internalType": "string",
              "name": "createdAt",
              "type": "string"
            },
            {
              "internalType": "string",
              "name": "publicid",
              "type": "string"
            },
            {
              "internalType": "string",
              "name": "cid",
              "type": "string"
            },
            {
              "internalType": "bool",
              "name": "encrypted",
              "type": "bool"
            },
            {
              "internalType": "bool",
              "name": "searchable",
              "type": "bool"
            },
            {
              "internalType": "bool",
              "name": "canRequest",
              "type": "bool"
            },
            {
              "internalType": "string",
              "name": "copyOf",
              "type": "string"
            }
          ],
          "internalType": "struct FileTransfer.PrivateFile[]",
          "name": "",
          "type": "tuple[]"
        }
      ],
      "stateMutability": "view",
      "type": "function",
      "constant": true
    },
    {
      "inputs": [
        {
          "internalType": "string",
          "name": "_publicid",
          "type": "string"
        }
      ],
      "name": "viewFile",
      "outputs": [
        {
          "components": [
            {
              "internalType": "address",
              "name": "owner",
              "type": "address"
            },
            {
              "internalType": "string",
              "name": "name",
              "type": "string"
            },
            {
              "internalType": "string",
              "name": "desc",
              "type": "string"
            },
            {
              "internalType": "string",
              "name": "format",
              "type": "string"
            },
            {
              "internalType": "string",
              "name": "size",
              "type": "string"
            },
            {
              "internalType": "string",
              "name": "createdAt",
              "type": "string"
            },
            {
              "internalType": "string",
              "name": "publicid",
              "type": "string"
            },
            {
              "internalType": "string",
              "name": "cid",
              "type": "string"
            },
            {
              "internalType": "bool",
              "name": "encrypted",
              "type": "bool"
            },
            {
              "internalType": "bool",
              "name": "searchable",
              "type": "bool"
            },
            {
              "internalType": "bool",
              "name": "canRequest",
              "type": "bool"
            },
            {
              "internalType": "string",
              "name": "copyOf",
              "type": "string"
            }
          ],
          "internalType": "struct FileTransfer.PrivateFile",
          "name": "",
          "type": "tuple"
        }
      ],
      "stateMutability": "view",
      "type": "function",
      "constant": true
    }
  ],
  "bytecode": "0x608060405234801561001057600080fd5b50600080546001600160a01b03191633178155600155614123806100356000396000f3fe608060405234801561001057600080fd5b50600436106100a95760003560e01c80639ce01e98116100715780639ce01e9814610132578063a991005414610147578063ce606ee01461015a578063dfe0b5fe14610185578063e5aa12c414610198578063f2511e7e146101ab57600080fd5b80630f322c1e146100ae5780631ca53aa1146100ca57806330fbd80b146100df5780638a09c914146100f25780639b2851ca14610112575b600080fd5b6100b760015481565b6040519081526020015b60405180910390f35b6100dd6100d836600461385c565b6101b3565b005b6100dd6100ed3660046139ef565b6102c3565b610105610100366004613a99565b610aff565b6040516100c19190613b26565b610125610120366004613a99565b61123e565b6040516100c19190613cf4565b61013a611876565b6040516100c19190613d0e565b6100dd610155366004613a99565b611e56565b60005461016d906001600160a01b031681565b6040516001600160a01b0390911681526020016100c1565b6100dd610193366004613d70565b6126fd565b6101256101a6366004613a99565b612b00565b61013a613048565b60006002876040516101c59190613dbe565b90815260405190819003602001902080546001600160a01b031916331781559050600181016101f48d82613e5d565b50600281016102038c82613e5d565b50600381016102128b82613e5d565b50600481016102218a82613e5d565b50600581016102308982613e5d565b506006810161023f8882613e5d565b506007810161024e8782613e5d565b5060088101805461ffff191686151561ff00191617610100861515021762ff0000191662010000851515021790556009810161028a8382613e5d565b50336000908152600360209081526040822080546001810182559083529120016102b48882613e5d565b50505050505050505050505050565b60006002836040516102d59190613dbe565b908152604080519182900360209081018320610180840190925281546001600160a01b031683526001820180549184019161030f90613dda565b80601f016020809104026020016040519081016040528092919081815260200182805461033b90613dda565b80156103885780601f1061035d57610100808354040283529160200191610388565b820191906000526020600020905b81548152906001019060200180831161036b57829003601f168201915b505050505081526020016002820180546103a190613dda565b80601f01602080910402602001604051908101604052809291908181526020018280546103cd90613dda565b801561041a5780601f106103ef5761010080835404028352916020019161041a565b820191906000526020600020905b8154815290600101906020018083116103fd57829003601f168201915b5050505050815260200160038201805461043390613dda565b80601f016020809104026020016040519081016040528092919081815260200182805461045f90613dda565b80156104ac5780601f10610481576101008083540402835291602001916104ac565b820191906000526020600020905b81548152906001019060200180831161048f57829003601f168201915b505050505081526020016004820180546104c590613dda565b80601f01602080910402602001604051908101604052809291908181526020018280546104f190613dda565b801561053e5780601f106105135761010080835404028352916020019161053e565b820191906000526020600020905b81548152906001019060200180831161052157829003601f168201915b5050505050815260200160058201805461055790613dda565b80601f016020809104026020016040519081016040528092919081815260200182805461058390613dda565b80156105d05780601f106105a5576101008083540402835291602001916105d0565b820191906000526020600020905b8154815290600101906020018083116105b357829003601f168201915b505050505081526020016006820180546105e990613dda565b80601f016020809104026020016040519081016040528092919081815260200182805461061590613dda565b80156106625780601f1061063757610100808354040283529160200191610662565b820191906000526020600020905b81548152906001019060200180831161064557829003601f168201915b5050505050815260200160078201805461067b90613dda565b80601f01602080910402602001604051908101604052809291908181526020018280546106a790613dda565b80156106f45780601f106106c9576101008083540402835291602001916106f4565b820191906000526020600020905b8154815290600101906020018083116106d757829003601f168201915b5050509183525050600882015460ff80821615156020840152610100820481161515604084015262010000909104161515606082015260098201805460809092019161073f90613dda565b80601f016020809104026020016040519081016040528092919081815260200182805461076b90613dda565b80156107b85780601f1061078d576101008083540402835291602001916107b8565b820191906000526020600020905b81548152906001019060200180831161079b57829003601f168201915b505050505081525050905080600001516001600160a01b0316336001600160a01b0316146108255760405162461bcd60e51b81526020600482015260156024820152742cb7ba9030b932903737ba103a34329037bbb732b960591b60448201526064015b60405180910390fd5b6040805160a0810182526001600160a01b0386166020808301829052851515606084015260016080840152898352828401879052600091825260048152838220805485518184028101840190965280865293949293849392849084015b8282101561092e5783829060005260206000200180546108a190613dda565b80601f01602080910402602001604051908101604052809291908181526020018280546108cd90613dda565b801561091a5780601f106108ef5761010080835404028352916020019161091a565b820191906000526020600020905b8154815290600101906020018083116108fd57829003601f168201915b505050505081526020019060010190610882565b50505050905060005b81518110156109c757896040516020016109519190613dbe565b6040516020818303038152906040528051906020012082828151811061097957610979613f1d565b60200260200101516040516020016109919190613dbe565b60405160208183030381529060405280519060200120036109b557600192506109c7565b806109bf81613f49565b915050610937565b50811515600003610aba576001600160a01b038716600090815260046020908152604082208054600181018255908352912001610a048a82613e5d565b50600586604051610a159190613dbe565b908152604051602091819003820190208054600181018255600091825291902084518592600402909101908190610a4c9082613e5d565b5060208201516001820180546001600160a01b0319166001600160a01b0390921691909117905560408201516002820190610a879082613e5d565b5060608201516003909101805460809093015115156101000261ff00199215159290921661ffff19909316929092171790555b610af484602001518560400151866060015187608001518860a001518e8e8b61010001518c61012001518d61014001518e60c001516101b3565b505050505050505050565b60606000600283604051610b139190613dbe565b908152604080519182900360209081018320610180840190925281546001600160a01b0316835260018201805491840191610b4d90613dda565b80601f0160208091040260200160405190810160405280929190818152602001828054610b7990613dda565b8015610bc65780601f10610b9b57610100808354040283529160200191610bc6565b820191906000526020600020905b815481529060010190602001808311610ba957829003601f168201915b50505050508152602001600282018054610bdf90613dda565b80601f0160208091040260200160405190810160405280929190818152602001828054610c0b90613dda565b8015610c585780601f10610c2d57610100808354040283529160200191610c58565b820191906000526020600020905b815481529060010190602001808311610c3b57829003601f168201915b50505050508152602001600382018054610c7190613dda565b80601f0160208091040260200160405190810160405280929190818152602001828054610c9d90613dda565b8015610cea5780601f10610cbf57610100808354040283529160200191610cea565b820191906000526020600020905b815481529060010190602001808311610ccd57829003601f168201915b50505050508152602001600482018054610d0390613dda565b80601f0160208091040260200160405190810160405280929190818152602001828054610d2f90613dda565b8015610d7c5780601f10610d5157610100808354040283529160200191610d7c565b820191906000526020600020905b815481529060010190602001808311610d5f57829003601f168201915b50505050508152602001600582018054610d9590613dda565b80601f0160208091040260200160405190810160405280929190818152602001828054610dc190613dda565b8015610e0e5780601f10610de357610100808354040283529160200191610e0e565b820191906000526020600020905b815481529060010190602001808311610df157829003601f168201915b50505050508152602001600682018054610e2790613dda565b80601f0160208091040260200160405190810160405280929190818152602001828054610e5390613dda565b8015610ea05780601f10610e7557610100808354040283529160200191610ea0565b820191906000526020600020905b815481529060010190602001808311610e8357829003601f168201915b50505050508152602001600782018054610eb990613dda565b80601f0160208091040260200160405190810160405280929190818152602001828054610ee590613dda565b8015610f325780601f10610f0757610100808354040283529160200191610f32565b820191906000526020600020905b815481529060010190602001808311610f1557829003601f168201915b5050509183525050600882015460ff808216151560208401526101008204811615156040840152620100009091041615156060820152600982018054608090920191610f7d90613dda565b80601f0160208091040260200160405190810160405280929190818152602001828054610fa990613dda565b8015610ff65780601f10610fcb57610100808354040283529160200191610ff6565b820191906000526020600020905b815481529060010190602001808311610fd957829003601f168201915b505050505081525050905080600001516001600160a01b0316336001600160a01b03161461105e5760405162461bcd60e51b81526020600482015260156024820152742cb7ba9030b932903737ba103a34329037bbb732b960591b604482015260640161081c565b60058360405161106e9190613dbe565b9081526020016040518091039020805480602002602001604051908101604052809291908181526020016000905b8282101561123257838290600052602060002090600402016040518060a00160405290816000820180546110cf90613dda565b80601f01602080910402602001604051908101604052809291908181526020018280546110fb90613dda565b80156111485780601f1061111d57610100808354040283529160200191611148565b820191906000526020600020905b81548152906001019060200180831161112b57829003601f168201915b505050918352505060018201546001600160a01b0316602082015260028201805460409092019161117890613dda565b80601f01602080910402602001604051908101604052809291908181526020018280546111a490613dda565b80156111f15780601f106111c6576101008083540402835291602001916111f1565b820191906000526020600020905b8154815290600101906020018083116111d457829003601f168201915b50505091835250506003919091015460ff8082161515602080850191909152610100909204161515604090920191909152908252600192909201910161109c565b50505050915050919050565b6112466136de565b6000805b336000908152600460205260409020548110156112f557836040516020016112729190613dbe565b60408051601f198184030181529181528151602092830120336000908152600490935291208054839081106112a9576112a9613f1d565b906000526020600020016040516020016112c39190613f62565b60405160208183030381529060405280519060200120036112e357600191505b806112ed81613f49565b91505061124a565b5060018115151461136e5760405162461bcd60e51b815260206004820152603b60248201527f596f752068617665206e6f7420726563656976656420746869732066696c652060448201527f6f7220746865206f776e6572206861732064656c657465642069740000000000606482015260840161081c565b60006002846040516113809190613dbe565b908152604080519182900360209081018320610180840190925281546001600160a01b03168352600182018054918401916113ba90613dda565b80601f01602080910402602001604051908101604052809291908181526020018280546113e690613dda565b80156114335780601f1061140857610100808354040283529160200191611433565b820191906000526020600020905b81548152906001019060200180831161141657829003601f168201915b5050505050815260200160028201805461144c90613dda565b80601f016020809104026020016040519081016040528092919081815260200182805461147890613dda565b80156114c55780601f1061149a576101008083540402835291602001916114c5565b820191906000526020600020905b8154815290600101906020018083116114a857829003601f168201915b505050505081526020016003820180546114de90613dda565b80601f016020809104026020016040519081016040528092919081815260200182805461150a90613dda565b80156115575780601f1061152c57610100808354040283529160200191611557565b820191906000526020600020905b81548152906001019060200180831161153a57829003601f168201915b5050505050815260200160048201805461157090613dda565b80601f016020809104026020016040519081016040528092919081815260200182805461159c90613dda565b80156115e95780601f106115be576101008083540402835291602001916115e9565b820191906000526020600020905b8154815290600101906020018083116115cc57829003601f168201915b5050505050815260200160058201805461160290613dda565b80601f016020809104026020016040519081016040528092919081815260200182805461162e90613dda565b801561167b5780601f106116505761010080835404028352916020019161167b565b820191906000526020600020905b81548152906001019060200180831161165e57829003601f168201915b5050505050815260200160068201805461169490613dda565b80601f01602080910402602001604051908101604052809291908181526020018280546116c090613dda565b801561170d5780601f106116e25761010080835404028352916020019161170d565b820191906000526020600020905b8154815290600101906020018083116116f057829003601f168201915b5050505050815260200160078201805461172690613dda565b80601f016020809104026020016040519081016040528092919081815260200182805461175290613dda565b801561179f5780601f106117745761010080835404028352916020019161179f565b820191906000526020600020905b81548152906001019060200180831161178257829003601f168201915b5050509183525050600882015460ff8082161515602084015261010082048116151560408401526201000090910416151560608201526009820180546080909201916117ea90613dda565b80601f016020809104026020016040519081016040528092919081815260200182805461181690613dda565b80156118635780601f1061183857610100808354040283529160200191611863565b820191906000526020600020905b81548152906001019060200180831161184657829003601f168201915b5050509190925250919695505050505050565b336000908152600360205260408120546060919067ffffffffffffffff8111156118a2576118a26137a4565b6040519080825280602002602001820160405280156118db57816020015b6118c86136de565b8152602001906001900390816118c05790505b50905060005b33600090815260036020526040902054811015611e50573360009081526003602052604090208054600291908390811061191d5761191d613f1d565b906000526020600020016040516119349190613f62565b908152604080519182900360209081018320610180840190925281546001600160a01b031683526001820180549184019161196e90613dda565b80601f016020809104026020016040519081016040528092919081815260200182805461199a90613dda565b80156119e75780601f106119bc576101008083540402835291602001916119e7565b820191906000526020600020905b8154815290600101906020018083116119ca57829003601f168201915b50505050508152602001600282018054611a0090613dda565b80601f0160208091040260200160405190810160405280929190818152602001828054611a2c90613dda565b8015611a795780601f10611a4e57610100808354040283529160200191611a79565b820191906000526020600020905b815481529060010190602001808311611a5c57829003601f168201915b50505050508152602001600382018054611a9290613dda565b80601f0160208091040260200160405190810160405280929190818152602001828054611abe90613dda565b8015611b0b5780601f10611ae057610100808354040283529160200191611b0b565b820191906000526020600020905b815481529060010190602001808311611aee57829003601f168201915b50505050508152602001600482018054611b2490613dda565b80601f0160208091040260200160405190810160405280929190818152602001828054611b5090613dda565b8015611b9d5780601f10611b7257610100808354040283529160200191611b9d565b820191906000526020600020905b815481529060010190602001808311611b8057829003601f168201915b50505050508152602001600582018054611bb690613dda565b80601f0160208091040260200160405190810160405280929190818152602001828054611be290613dda565b8015611c2f5780601f10611c0457610100808354040283529160200191611c2f565b820191906000526020600020905b815481529060010190602001808311611c1257829003601f168201915b50505050508152602001600682018054611c4890613dda565b80601f0160208091040260200160405190810160405280929190818152602001828054611c7490613dda565b8015611cc15780601f10611c9657610100808354040283529160200191611cc1565b820191906000526020600020905b815481529060010190602001808311611ca457829003601f168201915b50505050508152602001600782018054611cda90613dda565b80601f0160208091040260200160405190810160405280929190818152602001828054611d0690613dda565b8015611d535780601f10611d2857610100808354040283529160200191611d53565b820191906000526020600020905b815481529060010190602001808311611d3657829003601f168201915b5050509183525050600882015460ff808216151560208401526101008204811615156040840152620100009091041615156060820152600982018054608090920191611d9e90613dda565b80601f0160208091040260200160405190810160405280929190818152602001828054611dca90613dda565b8015611e175780601f10611dec57610100808354040283529160200191611e17565b820191906000526020600020905b815481529060010190602001808311611dfa57829003601f168201915b505050505081525050828281518110611e3257611e32613f1d565b60200260200101819052508080611e4890613f49565b9150506118e1565b50919050565b6000600282604051611e689190613dbe565b908152604080519182900360209081018320610180840190925281546001600160a01b0316835260018201805491840191611ea290613dda565b80601f0160208091040260200160405190810160405280929190818152602001828054611ece90613dda565b8015611f1b5780601f10611ef057610100808354040283529160200191611f1b565b820191906000526020600020905b815481529060010190602001808311611efe57829003601f168201915b50505050508152602001600282018054611f3490613dda565b80601f0160208091040260200160405190810160405280929190818152602001828054611f6090613dda565b8015611fad5780601f10611f8257610100808354040283529160200191611fad565b820191906000526020600020905b815481529060010190602001808311611f9057829003601f168201915b50505050508152602001600382018054611fc690613dda565b80601f0160208091040260200160405190810160405280929190818152602001828054611ff290613dda565b801561203f5780601f106120145761010080835404028352916020019161203f565b820191906000526020600020905b81548152906001019060200180831161202257829003601f168201915b5050505050815260200160048201805461205890613dda565b80601f016020809104026020016040519081016040528092919081815260200182805461208490613dda565b80156120d15780601f106120a6576101008083540402835291602001916120d1565b820191906000526020600020905b8154815290600101906020018083116120b457829003601f168201915b505050505081526020016005820180546120ea90613dda565b80601f016020809104026020016040519081016040528092919081815260200182805461211690613dda565b80156121635780601f1061213857610100808354040283529160200191612163565b820191906000526020600020905b81548152906001019060200180831161214657829003601f168201915b5050505050815260200160068201805461217c90613dda565b80601f01602080910402602001604051908101604052809291908181526020018280546121a890613dda565b80156121f55780601f106121ca576101008083540402835291602001916121f5565b820191906000526020600020905b8154815290600101906020018083116121d857829003601f168201915b5050505050815260200160078201805461220e90613dda565b80601f016020809104026020016040519081016040528092919081815260200182805461223a90613dda565b80156122875780601f1061225c57610100808354040283529160200191612287565b820191906000526020600020905b81548152906001019060200180831161226a57829003601f168201915b5050509183525050600882015460ff8082161515602084015261010082048116151560408401526201000090910416151560608201526009820180546080909201916122d290613dda565b80601f01602080910402602001604051908101604052809291908181526020018280546122fe90613dda565b801561234b5780601f106123205761010080835404028352916020019161234b565b820191906000526020600020905b81548152906001019060200180831161232e57829003601f168201915b50505091909252505081516001600160a01b038116600090815260036020526040812093945090929150805b825481101561247857856040516020016123919190613dbe565b604051602081830303815290604052805190602001208382815481106123b9576123b9613f1d565b906000526020600020016040516020016123d39190613f62565b60405160208183030381529060405280519060200120036123f357600191505b60018215151480156124115750825461240e90600190613fd8565b81105b156124665782612422826001613ff1565b8154811061243257612432613f1d565b9060005260206000200183828154811061244e5761244e613f1d565b9060005260206000200190816124649190614004565b505b8061247081613f49565b915050612377565b5081805480612489576124896140d7565b6001900381819060005260206000200160006124a5919061374e565b90556002856040516124b79190613dbe565b90815260405190819003602001902080546001600160a01b031916815560006124e3600183018261374e565b6124f160028301600061374e565b6124ff60038301600061374e565b61250d60048301600061374e565b61251b60058301600061374e565b61252960068301600061374e565b61253760078301600061374e565b60088201805462ffffff1916905561255360098301600061374e565b50505b60006005866040516125689190613dbe565b9081526040519081900360200190205411156126f6576126f16005866040516125919190613dbe565b908152602001604051809103902060016005886040516125b19190613dbe565b908152604051908190036020019020546125cb9190613fd8565b815481106125db576125db613f1d565b906000526020600020906004020160000180546125f790613dda565b80601f016020809104026020016040519081016040528092919081815260200182805461262390613dda565b80156126705780601f1061264557610100808354040283529160200191612670565b820191906000526020600020905b81548152906001019060200180831161265357829003601f168201915b50505050506005876040516126859190613dbe565b908152602001604051809103902060016005896040516126a59190613dbe565b908152604051908190036020019020546126bf9190613fd8565b815481106126cf576126cf613f1d565b60009182526020909120600160049092020101546001600160a01b03166126fd565b612556565b5050505050565b6001600160a01b0381166000908152600460205260408120906060815b83548110156128e257856040516020016127349190613dbe565b6040516020818303038152906040528051906020012084828154811061275c5761275c613f1d565b906000526020600020016040516020016127769190613f62565b604051602081830303815290604052805190602001200361285d576001925060028482815481106127a9576127a9613f1d565b906000526020600020016040516127c09190613f62565b908152602001604051809103902060090180546127dc90613dda565b80601f016020809104026020016040519081016040528092919081815260200182805461280890613dda565b80156128555780601f1061282a57610100808354040283529160200191612855565b820191906000526020600020905b81548152906001019060200180831161283857829003601f168201915b505050505091505b600183151514801561287b5750835461287890600190613fd8565b81105b156128d0578361288c826001613ff1565b8154811061289c5761289c613f1d565b906000526020600020018482815481106128b8576128b8613f1d565b9060005260206000200190816128ce9190614004565b505b806128da81613f49565b91505061271a565b50828054806128f3576128f36140d7565b60019003818190600052602060002001600061290f919061374e565b905560006005826040516129239190613dbe565b908152602001604051809103902090506000805b8254811015612a8e57866001600160a01b031683828154811061295c5761295c613f1d565b60009182526020909120600160049092020101546001600160a01b03160361298357600191505b60018515151480156129a15750825461299e90600190613fd8565b81105b15612a7c57826129b2826001613ff1565b815481106129c2576129c2613f1d565b90600052602060002090600402018382815481106129e2576129e2613f1d565b60009182526020909120600490910201806129fd8382614004565b5060018281015490820180546001600160a01b0319166001600160a01b03909216919091179055600280820190612a3690840182614004565b506003918201805491909201805460ff19811660ff93841615159081178355935461ffff1990911661ff0019909416939093176101009384900490921615159092021790555b80612a8681613f49565b915050612937565b5081805480612a9f57612a9f6140d7565b60008281526020812060001990920191600483020190612abf828261374e565b6001820180546001600160a01b0319169055612adf60028301600061374e565b50600301805461ffff191690559055612af787611e56565b50505050505050565b612b086136de565b336001600160a01b0316600283604051612b229190613dbe565b908152604051908190036020019020546001600160a01b031614612b4557600080fd5b600282604051612b559190613dbe565b908152604080519182900360209081018320610180840190925281546001600160a01b0316835260018201805491840191612b8f90613dda565b80601f0160208091040260200160405190810160405280929190818152602001828054612bbb90613dda565b8015612c085780601f10612bdd57610100808354040283529160200191612c08565b820191906000526020600020905b815481529060010190602001808311612beb57829003601f168201915b50505050508152602001600282018054612c2190613dda565b80601f0160208091040260200160405190810160405280929190818152602001828054612c4d90613dda565b8015612c9a5780601f10612c6f57610100808354040283529160200191612c9a565b820191906000526020600020905b815481529060010190602001808311612c7d57829003601f168201915b50505050508152602001600382018054612cb390613dda565b80601f0160208091040260200160405190810160405280929190818152602001828054612cdf90613dda565b8015612d2c5780601f10612d0157610100808354040283529160200191612d2c565b820191906000526020600020905b815481529060010190602001808311612d0f57829003601f168201915b50505050508152602001600482018054612d4590613dda565b80601f0160208091040260200160405190810160405280929190818152602001828054612d7190613dda565b8015612dbe5780601f10612d9357610100808354040283529160200191612dbe565b820191906000526020600020905b815481529060010190602001808311612da157829003601f168201915b50505050508152602001600582018054612dd790613dda565b80601f0160208091040260200160405190810160405280929190818152602001828054612e0390613dda565b8015612e505780601f10612e2557610100808354040283529160200191612e50565b820191906000526020600020905b815481529060010190602001808311612e3357829003601f168201915b50505050508152602001600682018054612e6990613dda565b80601f0160208091040260200160405190810160405280929190818152602001828054612e9590613dda565b8015612ee25780601f10612eb757610100808354040283529160200191612ee2565b820191906000526020600020905b815481529060010190602001808311612ec557829003601f168201915b50505050508152602001600782018054612efb90613dda565b80601f0160208091040260200160405190810160405280929190818152602001828054612f2790613dda565b8015612f745780601f10612f4957610100808354040283529160200191612f74565b820191906000526020600020905b815481529060010190602001808311612f5757829003601f168201915b5050509183525050600882015460ff808216151560208401526101008204811615156040840152620100009091041615156060820152600982018054608090920191612fbf90613dda565b80601f0160208091040260200160405190810160405280929190818152602001828054612feb90613dda565b80156130385780601f1061300d57610100808354040283529160200191613038565b820191906000526020600020905b81548152906001019060200180831161301b57829003601f168201915b5050505050815250509050919050565b336000908152600460209081526040808320805482518185028101850190935280835260609493849084015b8282101561312057838290600052602060002001805461309390613dda565b80601f01602080910402602001604051908101604052809291908181526020018280546130bf90613dda565b801561310c5780601f106130e15761010080835404028352916020019161310c565b820191906000526020600020905b8154815290600101906020018083116130ef57829003601f168201915b505050505081526020019060010190613074565b5050505090506000815167ffffffffffffffff811115613142576131426137a4565b60405190808252806020026020018201604052801561317b57816020015b6131686136de565b8152602001906001900390816131605790505b50905060005b82518110156136d757600060028483815181106131a0576131a0613f1d565b60200260200101516040516131b59190613dbe565b908152604080519182900360209081018320610180840190925281546001600160a01b031683526001820180549294508492918401916131f490613dda565b80601f016020809104026020016040519081016040528092919081815260200182805461322090613dda565b801561326d5780601f106132425761010080835404028352916020019161326d565b820191906000526020600020905b81548152906001019060200180831161325057829003601f168201915b5050505050815260200160028201805461328690613dda565b80601f01602080910402602001604051908101604052809291908181526020018280546132b290613dda565b80156132ff5780601f106132d4576101008083540402835291602001916132ff565b820191906000526020600020905b8154815290600101906020018083116132e257829003601f168201915b5050505050815260200160038201805461331890613dda565b80601f016020809104026020016040519081016040528092919081815260200182805461334490613dda565b80156133915780601f1061336657610100808354040283529160200191613391565b820191906000526020600020905b81548152906001019060200180831161337457829003601f168201915b505050505081526020016004820180546133aa90613dda565b80601f01602080910402602001604051908101604052809291908181526020018280546133d690613dda565b80156134235780601f106133f857610100808354040283529160200191613423565b820191906000526020600020905b81548152906001019060200180831161340657829003601f168201915b5050505050815260200160058201805461343c90613dda565b80601f016020809104026020016040519081016040528092919081815260200182805461346890613dda565b80156134b55780601f1061348a576101008083540402835291602001916134b5565b820191906000526020600020905b81548152906001019060200180831161349857829003601f168201915b505050505081526020016006820180546134ce90613dda565b80601f01602080910402602001604051908101604052809291908181526020018280546134fa90613dda565b80156135475780601f1061351c57610100808354040283529160200191613547565b820191906000526020600020905b81548152906001019060200180831161352a57829003601f168201915b5050505050815260200160078201805461356090613dda565b80601f016020809104026020016040519081016040528092919081815260200182805461358c90613dda565b80156135d95780601f106135ae576101008083540402835291602001916135d9565b820191906000526020600020905b8154815290600101906020018083116135bc57829003601f168201915b5050509183525050600882015460ff80821615156020840152610100820481161515604084015262010000909104161515606082015260098201805460809092019161362490613dda565b80601f016020809104026020016040519081016040528092919081815260200182805461365090613dda565b801561369d5780601f106136725761010080835404028352916020019161369d565b820191906000526020600020905b81548152906001019060200180831161368057829003601f168201915b5050505050815250508383815181106136b8576136b8613f1d565b60200260200101819052505080806136cf90613f49565b915050613181565b5092915050565b60405180610180016040528060006001600160a01b0316815260200160608152602001606081526020016060815260200160608152602001606081526020016060815260200160608152602001600015158152602001600015158152602001600015158152602001606081525090565b50805461375a90613dda565b6000825580601f1061376a575050565b601f016020900490600052602060002090810190613788919061378b565b50565b5b808211156137a0576000815560010161378c565b5090565b634e487b7160e01b600052604160045260246000fd5b600082601f8301126137cb57600080fd5b813567ffffffffffffffff808211156137e6576137e66137a4565b604051601f8301601f19908116603f0116810190828211818310171561380e5761380e6137a4565b8160405283815286602085880101111561382757600080fd5b836020870160208301376000602085830101528094505050505092915050565b8035801515811461385757600080fd5b919050565b60008060008060008060008060008060006101608c8e03121561387e57600080fd5b67ffffffffffffffff808d35111561389557600080fd5b6138a28e8e358f016137ba565b9b508060208e013511156138b557600080fd5b6138c58e60208f01358f016137ba565b9a508060408e013511156138d857600080fd5b6138e88e60408f01358f016137ba565b99508060608e013511156138fb57600080fd5b61390b8e60608f01358f016137ba565b98508060808e0135111561391e57600080fd5b61392e8e60808f01358f016137ba565b97508060a08e0135111561394157600080fd5b6139518e60a08f01358f016137ba565b96508060c08e0135111561396457600080fd5b6139748e60c08f01358f016137ba565b955061398260e08e01613847565b94506139916101008e01613847565b93506139a06101208e01613847565b9250806101408e013511156139b457600080fd5b506139c68d6101408e01358e016137ba565b90509295989b509295989b9093969950565b80356001600160a01b038116811461385757600080fd5b600080600080600060a08688031215613a0757600080fd5b853567ffffffffffffffff80821115613a1f57600080fd5b613a2b89838a016137ba565b96506020880135915080821115613a4157600080fd5b613a4d89838a016137ba565b9550613a5b604089016139d8565b94506060880135915080821115613a7157600080fd5b50613a7e888289016137ba565b925050613a8d60808701613847565b90509295509295909350565b600060208284031215613aab57600080fd5b813567ffffffffffffffff811115613ac257600080fd5b613ace848285016137ba565b949350505050565b60005b83811015613af1578181015183820152602001613ad9565b50506000910152565b60008151808452613b12816020860160208601613ad6565b601f01601f19169290920160200192915050565b60006020808301818452808551808352604092508286019150828160051b87010184880160005b83811015613bcc57603f19898403018552815160a08151818652613b7382870182613afa565b838b01516001600160a01b0316878c0152898401518782038b8901529092509050613b9e8282613afa565b6060848101511515908801526080938401511515939096019290925250509386019390860190600101613b4d565b509098975050505050505050565b80516001600160a01b0316825260006101806020830151816020860152613c0382860182613afa565b91505060408301518482036040860152613c1d8282613afa565b91505060608301518482036060860152613c378282613afa565b91505060808301518482036080860152613c518282613afa565b91505060a083015184820360a0860152613c6b8282613afa565b91505060c083015184820360c0860152613c858282613afa565b91505060e083015184820360e0860152613c9f8282613afa565b91505061010080840151613cb68287018215159052565b505061012083810151151590850152610140808401511515908501526101608084015185830382870152613cea8382613afa565b9695505050505050565b602081526000613d076020830184613bda565b9392505050565b6000602080830181845280855180835260408601915060408160051b870101925083870160005b82811015613d6357603f19888603018452613d51858351613bda565b94509285019290850190600101613d35565b5092979650505050505050565b60008060408385031215613d8357600080fd5b823567ffffffffffffffff811115613d9a57600080fd5b613da6858286016137ba565b925050613db5602084016139d8565b90509250929050565b60008251613dd0818460208701613ad6565b9190910192915050565b600181811c90821680613dee57607f821691505b602082108103611e5057634e487b7160e01b600052602260045260246000fd5b601f821115613e5857600081815260208120601f850160051c81016020861015613e355750805b601f850160051c820191505b81811015613e5457828155600101613e41565b5050505b505050565b815167ffffffffffffffff811115613e7757613e776137a4565b613e8b81613e858454613dda565b84613e0e565b602080601f831160018114613ec05760008415613ea85750858301515b600019600386901b1c1916600185901b178555613e54565b600085815260208120601f198616915b82811015613eef57888601518255948401946001909101908401613ed0565b5085821015613f0d5787850151600019600388901b60f8161c191681555b5050505050600190811b01905550565b634e487b7160e01b600052603260045260246000fd5b634e487b7160e01b600052601160045260246000fd5b600060018201613f5b57613f5b613f33565b5060010190565b6000808354613f7081613dda565b60018281168015613f885760018114613f9d57613fcc565b60ff1984168752821515830287019450613fcc565b8760005260208060002060005b85811015613fc35781548a820152908401908201613faa565b50505082870194505b50929695505050505050565b81810381811115613feb57613feb613f33565b92915050565b80820180821115613feb57613feb613f33565b81810361400f575050565b6140198254613dda565b67ffffffffffffffff811115614031576140316137a4565b61403f81613e858454613dda565b6000601f821160018114614073576000831561405b5750848201545b600019600385901b1c1916600184901b1784556126f6565b600085815260209020601f19841690600086815260209020845b838110156140ad578286015482556001958601959091019060200161408d565b5085831015613f0d5793015460001960f8600387901b161c19169092555050600190811b01905550565b634e487b7160e01b600052603160045260246000fdfea26469706673582212202b02864658929020ac44a53a327031985ce41b731b78fabdae85e19f2bbd8cfa64736f6c63430008130033",
  "immutableReferences": {},
  "source": "// SPDX-License-Identifier: GPL-3.0\r\n\r\npragma solidity >=0.8.2 <0.9.0;\r\n\r\n/**\r\n * @title Storage\r\n * @dev Store & retrieve value in a variable\r\n * @custom:dev-run-script ./scripts/deploy_with_ethers.ts\r\n */\r\ncontract FileTransfer {\r\n    address public contractOwner;\r\n    uint256 public usercount;\r\n\r\n    constructor(){\r\n        contractOwner = msg.sender;\r\n        usercount = 0;\r\n    }\r\n\r\n    struct PrivateFile{\r\n        address owner;\r\n        string name;\r\n        string desc;\r\n        string format;\r\n        string size;\r\n        string createdAt;\r\n        string publicid;\r\n        string cid;\r\n        \r\n        bool encrypted;\r\n        bool searchable;\r\n        bool canRequest;\r\n        string copyOf;\r\n    }\r\n\r\n    struct Access{\r\n        string publicid;\r\n        address user;\r\n        string ogpublicid;\r\n        bool viewOnly;\r\n        bool valid;\r\n    }\r\n\r\n    mapping(string => PrivateFile) privateFiles; //public key -> file\r\n    mapping(address => string[]) ownedFiles; //owner address -> public key\r\n    mapping(address => string[]) receivedFiles; //receiver address -> public key\r\n    mapping(string => Access[]) accesslist; //public key -> Access\r\n\r\n    function addFile(\r\n        string memory _name,\r\n        string memory _desc,\r\n        string memory _format,\r\n        string memory _size,\r\n        string memory _createdAt,\r\n        string memory _publicid,\r\n        string memory _cid,\r\n        bool _encrypted,\r\n        bool _searchable,\r\n        bool _canRequest,\r\n        string memory _copyOf\r\n    ) public {\r\n        // require(privateFiles[_publicid].exists!=true,\"An unexpected error occured. Please try again.\");\r\n        PrivateFile storage file = privateFiles[_publicid];\r\n        file.owner=msg.sender;\r\n        file.name=_name;\r\n        file.desc=_desc;\r\n        file.format=_format;\r\n        file.size=_size;\r\n        file.createdAt=_createdAt;\r\n        file.publicid=_publicid;\r\n        file.cid=_cid;\r\n        file.encrypted=_encrypted;\r\n        file.searchable=_searchable;\r\n        file.canRequest=_canRequest;\r\n        file.copyOf=_copyOf;\r\n\r\n        ownedFiles[msg.sender].push(_publicid);\r\n    }\r\n\r\n    function viewOwnedFiles()external view returns(PrivateFile[] memory){\r\n        PrivateFile[] memory retFiles=new PrivateFile[](ownedFiles[msg.sender].length);\r\n        for(uint i=0;i<ownedFiles[msg.sender].length;i++){\r\n            retFiles[i]=privateFiles[ownedFiles[msg.sender][i]];\r\n        }\r\n        return retFiles;\r\n    }\r\n\r\n    function viewOwnedFile(string memory _publicid)external view returns(PrivateFile memory){\r\n        require(privateFiles[_publicid].owner==msg.sender);\r\n        return privateFiles[_publicid];\r\n    }\r\n\r\n    function deleteFile(string memory _publicid)public{\r\n        PrivateFile memory file = privateFiles[_publicid];\r\n        // require(msg.sender==file.owner, \"You are not the owner\");\r\n        address owner = file.owner;\r\n        string[] storage oFiles = ownedFiles[owner];\r\n        bool flag = false;\r\n        for(uint i=0; i<oFiles.length;i++){\r\n            if(keccak256(abi.encodePacked(oFiles[i])) == keccak256(abi.encodePacked(_publicid))){\r\n                flag=true;\r\n            }\r\n            if(flag==true && i<oFiles.length-1){\r\n                oFiles[i]=oFiles[i+1];\r\n            }\r\n        }\r\n        oFiles.pop();\r\n\r\n        delete privateFiles[_publicid];\r\n\r\n        while(accesslist[_publicid].length>0){\r\n            revokeAccess(\r\n                accesslist[_publicid][accesslist[_publicid].length-1].publicid,\r\n                accesslist[_publicid][accesslist[_publicid].length-1].user\r\n            );\r\n        }\r\n    }\r\n\r\n    function grantAccess(\r\n        string memory _publicid,\r\n        string memory _cid,\r\n        address _receivingUserAddress,\r\n        string memory _ogpublicid,\r\n        bool _viewOnly)\r\n     external {\r\n        PrivateFile memory file = privateFiles[_ogpublicid];\r\n        require(msg.sender==file.owner, \"You are not the owner\");\r\n\r\n        Access memory access;\r\n        access.user = _receivingUserAddress;\r\n        \r\n        access.viewOnly = _viewOnly;\r\n        access.valid = true;\r\n        access.publicid = _publicid;\r\n        access.ogpublicid=_ogpublicid;\r\n\r\n        bool accessAlreadyGranted = false;\r\n        string[] memory recvFiles = receivedFiles[_receivingUserAddress];\r\n        for(uint i=0; i<recvFiles.length;i++){\r\n            if(keccak256(abi.encodePacked(recvFiles[i])) == keccak256(abi.encodePacked(_publicid))){\r\n                accessAlreadyGranted=true;\r\n                break;\r\n            }\r\n        }\r\n\r\n        if(accessAlreadyGranted==false){\r\n            receivedFiles[_receivingUserAddress].push(_publicid);\r\n            accesslist[_ogpublicid].push(access);\r\n        }\r\n\r\n        addFile(file.name, file.desc, file.format, file.size, file.createdAt, _publicid, _cid, file.encrypted, file.searchable, file.canRequest, file.publicid);\r\n\r\n    }\r\n\r\n    function revokeAccess(\r\n        string memory _publicid,\r\n        address _revokeUserAddress\r\n    ) public {\r\n        string[] storage recvFiles = receivedFiles[_revokeUserAddress];\r\n        bool flag = false;\r\n        string memory ogpublicid;\r\n        for(uint i=0; i<recvFiles.length;i++){\r\n            if(keccak256(abi.encodePacked(recvFiles[i])) == keccak256(abi.encodePacked(_publicid))){\r\n                flag=true;\r\n                ogpublicid=privateFiles[recvFiles[i]].copyOf;\r\n            }\r\n            if(flag==true && i<recvFiles.length-1){\r\n                recvFiles[i]=recvFiles[i+1];\r\n            }\r\n        }\r\n        recvFiles.pop();\r\n\r\n        // removing user address from accesslist\r\n        Access[] storage list = accesslist[ogpublicid];\r\n        bool flag2 = false;\r\n        for(uint i=0; i<list.length;i++){\r\n            if(list[i].user==_revokeUserAddress){\r\n                flag2=true;\r\n            }\r\n            if(flag==true && i<list.length-1){\r\n                list[i]=list[i+1];\r\n            }\r\n        }\r\n        list.pop();\r\n\r\n        deleteFile(_publicid);\r\n    }\r\n\r\n    function viewAccessList(string memory _publicid) external view returns(Access[] memory){\r\n        PrivateFile memory file = privateFiles[_publicid];\r\n        require(msg.sender==file.owner, \"You are not the owner\");\r\n        return accesslist[_publicid];\r\n    }\r\n\r\n    function viewRecievedFiles() external view returns(PrivateFile[] memory){\r\n        string[] memory publicids = receivedFiles[msg.sender];\r\n\r\n        PrivateFile[] memory infos = new PrivateFile[](publicids.length);\r\n        for(uint i=0;i<publicids.length;i++){\r\n            PrivateFile storage info = privateFiles[publicids[i]];\r\n            infos[i]=info;\r\n        }\r\n        return infos;\r\n    }\r\n\r\n    function viewFile(string memory _publicid)external view returns(PrivateFile memory){\r\n        bool fileReceived = false;\r\n        for(uint i=0; i<receivedFiles[msg.sender].length;i++){\r\n            if(keccak256(abi.encodePacked(receivedFiles[msg.sender][i])) == keccak256(abi.encodePacked(_publicid))){\r\n                fileReceived=true;\r\n            }\r\n        }\r\n\r\n        require(fileReceived==true,\"You have not received this file or the owner has deleted it\");\r\n\r\n        PrivateFile memory retFile = privateFiles[_publicid];\r\n\r\n        return retFile;\r\n    }\r\n}",
  "sourcePath": "C:\\Users\\Aprameya\\Desktop\\LawVertex\\contracts\\FileTransfer.sol",
  "compiler": {
    "name": "solc",
    "version": "0.8.19+commit.7dd6d404.Emscripten.clang"
  },
  "schemaVersion": "3.4.16",
  "updatedAt": "2024-04-03T13:57:33.133Z",
  "networkType": "ethereum",
  "devdoc": {
    "custom:dev-run-script": "./scripts/deploy_with_ethers.ts",
    "details": "Store & retrieve value in a variable",
    "kind": "dev",
    "methods": {},
    "title": "Storage",
    "version": 1
  },
  "userdoc": {
    "kind": "user",
    "methods": {},
    "version": 1
  }
}